:04000000FEEF3FF0E0
:106408008C8212008C9412008C8412008C801200F2
:106418008C9212003CEC32F01200036E03505FECD9
:1064280032F012009590959295948C908C928C9461
:10643800120031EC32F0780E5FEC32F0400E5FEC77
:1064480032F01200BCEC32F0C582C5B22EEF32F049
:1064580030EF32F029EF32F01200BCEC32F0C58098
:10646800C5B039EF32F03BEF32F034EF32F01200C2
:10647800BCEC32F0C584C5B444EF32F046EF32F0DC
:106488003FEF32F01200016E9EA84DEF32F04FEF51
:1064980032F048EF32F001C0ADFF120004C002F044
:1064A80005C003F0ECEC33F0F80E026E7F0E036EBD
:1064B800ECEC33F01200026EBCEC32F002C0C9FF03
:1064C8009EA669EF32F06BEF32F064EF32F09E96E1
:1064D800C5501200046E31EC32F0AE0E5FEC32F0B3
:1064E80004505FEC32F003505FEC32F03CEC32F0D9
:1064F8001200036E31EC32F0780E5FEC32F0000ED1
:106508005FEC32F003505FEC32F03CEC32F01200FA
:10651800949C948EAC6AAB6AB86AAC98AC84B88622
:10652800B06ACF0EAF6EAB8EAC8AAB881200016E2C
:106538000150D8A4A2EF32F0A4EF32F0A8EF32F065
:1065480008EC32F0AAEF32F006EC32F0120000EE5E
:1065580060F0100EEE6AE806FDE100EE51F00E0E56
:10656800EE6AE806FDE1000EF86E00012BEF3AF046
:10657800C5CF01F01F0E0116D8A4C5EF32F0C7EF42
:1065880032F0BCEF32F0C7B4CCEF32F0CEEF32F0DD
:10659800BCEF32F01200C90E046E7F0E056E52EC8D
:1065A80032F0ED0E046E7E0E056E52EC32F00B0EDC
:1065B800046E7E0E056E52EC32F01200046E31EC61
:1065C80032F0AE0E5FEC32F004505FEC32F026ECA5
:1065D80032F0AF0E5FEC32F0000EF8EC32F0056EE0
:1065E8003CEC32F005501200026EBCEC32F0C5866D
:1065F800C7A001EF33F003EF33F0FCEF32F0C9CF5F
:1066080003F0BCEC32F00250D8B40DEF33F00FEFCA
:1066180033F012EF33F0C59A13EF33F0C58AC5880B
:10662800C5B819EF33F01BEF33F014EF33F0035014
:106638001200056E7F0E056424EF33F026EF33F069
:1066480027EF33F0056A070E04642DEF33F02FEFC0
:1066580033F030EF33F0046A05C05DF004C05CF03D
:106668000450B00F7DEC32F005500F0B7DEC32F08A
:1066780005380F0B0F0B100F7DEC32F01200076A74
:1066880007C004F0000E1DEC33F01DEC32F0066A72
:10669800000E11EC32F0062A7F0E066456EF33F036
:1066A80058EF33F04CEF33F00EEC32F0072A070EB8
:1066B800076461EF33F063EF33F044EF33F0000E1B
:1066C800046E000E1DEC33F01200720ED36E0F0E26
:1066D800C16E070EB46EB56A896A8A6A8B6A8C6A5B
:1066E8008D6A9268936894689568966816EC32F09B
:1066F8000AEC32F00CEC32F008EC32F08CEC32F0B0
:10670800A00E0E6E860E0F6E010E106E000E116E2C
:10671800BEEC33F0ACEC36F043EC33F012005E50D4
:10672800D8A499EF33F09BEF33F0ADEF33F004507A
:1067380003100BE1300E015C750E0258D8A0A7EFCC
:1067480033F0A9EF33F0BCEF33F0010E5E6EBCEF0F
:1067580033F00450031009E1200E015C4E0E02587C
:10676800D8B0B9EF33F0BBEF33F0BCEF33F05E6A6B
:106778005E50120093809382C66AC56AC76A280E63
:10678800C66EC78E000E016E120E026E7A0E036E72
:10679800000E046E0EC012F00FC013F010C014F0FB
:1067A80011C015F0020ED89012361336143615366D
:1067B800E82ED7EF33F012C005F013C006F014C06E
:1067C80007F015C008F0ACEC35F00104C86E1200F3
:1067D80002EF34F002C0F6FF03C0F7FFF86A070EB5
:1067E800F76403D00800F55005D0F6CFE9FFF7CFDE
:1067F800EAFFEF5047EC32F0024A032A02C0F6FFE4
:1068080003C0F7FFF86A070EF76403D00800F550D5
:1068180005D0F6CFE9FFF7CFEAFFEF500009D8A47B
:1068280018EF34F01AEF34F0EEEF33F0120031EFD6
:1068380034F00FC0F6FF10C0F7FFF86A070EF764D0
:1068480003D00800F55005D0F6CFE9FFF7CFEAFFEF
:10685800EF508EEC38F00F4A102A0FC0F6FF10C028
:10686800F7FFF86A070EF76403D00800F55005D063
:10687800F6CFE9FFF7CFEAFFEF500009D8A447EFBA
:1068880034F049EF34F01DEF34F0120003500410D7
:10689800D8B451EF34F053EF34F077EF34F0010E01
:1068A800056E5BEF34F0D89003360436052A04AE43
:1068B80060EF34F062EF34F057EF34F00350015CCE
:1068C80004500258D8A06BEF34F06DEF34F071EF3C
:1068D80034F00350015E0450025AD8900432033257
:1068E800052E62EF34F001C001F002C002F0120080
:1068F800000E096E000E0A6E000E0B6E000E0C6E76
:1069080001A089EF34F08BEF34F093EF34F00550A9
:10691800092606500A2207500B2208500C22D8904C
:106928000536063607360836D89004320332023266
:1069380001320150021003100410D8A4A6EF34F05D
:10694800A8EF34F084EF34F009C001F00AC002F077
:106958000BC003F00CC004F01200000E00016C6FB5
:10696800000E6D6F000E6E6F000E6F6F000E686F79
:10697800000E696F000E6A6F000E6B6F000E556E89
:10698800000E566E000E576E000E586E000E646FA5
:10699800000E656F000E666F000E676F000E606F69
:1069A800000E616F000E626F000E636F000E516E75
:1069B800000E526E000E536E000E546E5A6A000E90
:1069C800596E5B6A1200066A000E056E03500410C9
:1069D800D8B4F1EF34F0F3EF34F01BEF35F0010EDB
:1069E800076EFBEF34F0D89003360436072A04AE5E
:1069F80000EF35F002EF35F0F7EF34F0D8900536B8
:106A080006360350015C04500258D8A00EEF35F04A
:106A180010EF35F015EF35F00350015E0450025ABF
:106A28000580D89004320332072E02EF35F005C0F6
:106A380001F006C002F012000550061007100810F9
:106A4800D8B429EF35F02BEF35F05BEF35F0010EB8
:106A5800096E35EF35F0D890053606360736083614
:106A6800092A08AE3AEF35F03CEF35F02FEF35F054
:106A78000550015C06500258075003580850045846
:106A8800D8A049EF35F04BEF35F053EF35F005500E
:106A9800015E0650025A0750035A0850045AD8900B
:106AA8000832073206320532092E3CEF35F001C0B4
:106AB80001F002C002F003C003F004C004F01200A9
:106AC8000B6E31EC32F0AE0E5FEC32F00B505FEC37
:106AD80032F026EC32F0AF0E5FEC32F00C6AA0EF29
:106AE80035F0FF0E0524066E076AFF0E07220C50CC
:106AF800086E096A0650085C0950800A0A6E075039
:106B0800800A0A58D8B08BEF35F08DEF35F097EF43
:106B180035F004500C24D96EDA6A010EF8EC32F024
:106B2800DF6E9FEF35F004500C24D96EDA6A000E40
:106B3800F8EC32F0DF6E0C2A05500C5CD8A0A7EFF9
:106B480035F0A9EF35F075EF35F03CEC32F0120076
:106B5800000E096E000E0A6E000E0B6E000E0C6E13
:106B68000550061007100810D8B4BDEF35F0BFEF78
:106B780035F0F5EF35F0010E0D6EC9EF35F0D89010
:106B880005360636073608360D2A08AECEEF35F03C
:106B9800D0EF35F0C3EF35F0D89009360A360B360A
:106BA8000C360550015C065002580750035808502F
:106BB8000458D8A0E2EF35F0E4EF35F0EDEF35F00A
:106BC8000550015E0650025A0750035A0850045AED
:106BD8000980D89008320732063205320D2ED0EFE0
:106BE80035F009C001F00AC002F00BC003F00CC078
:106BF80004F01200FF0EE2EC32F0086E150E0818D1
:106C0800D8B409EF36F00BEF36F00EEF36F0000E81
:106C180050EF36F0400E036E090E6EEC32F0020EA5
:106C2800076E040E066EBA0EE82EFED7062EFCD7A7
:106C3800072EFAD700D0000E036E040E6EEC32F069
:106C4800000E036E050E6EEC32F0000E036E060E9B
:106C58006EEC32F01F0E036E080E6EEC32F0030E6F
:106C6800036E090E6EEC32F0270E036E0A0E6EEC00
:106C780032F0240E036E0C0E6EEC32F0240E036E0E
:106C88000D0E6EEC32F0000EE2EC32F0010EE2EC8A
:106C980032F0B1EC34F0010E1200126A116A085099
:106CA8000910D8A45AEF36F05CEF36F087EF36F0CB
:106CB8000A50D96EDA6A300EDF6E0A50D96EDA6A77
:106CC800010ED926DF6AABEF36F012500B0FD96EE2
:106CD800DA6A08C001F009C002F0046A0A0E036EFD
:106CE8004AEC34F00150300FDF6E08C001F009C0E3
:106CF80002F0046A0A0E036EE7EC34F001C008F0F3
:106D080002C009F0122A08500910D8A48EEF36F0F4
:106D180090EF36F069EF36F09EEF36F0120612501B
:106D28000B0FD96EDA6A0A501124E16EE26ADFCFDE
:106D3800E7FF112A1250D8A4A4EF36F0A6EF36F0D8
:106D480092EF36F00A501124D96EDA6ADF6A12001F
:106D5800020E096E040E086EBA0EE82EFED7082E33
:106D6800FCD7092EFAD700D0AE0E7DEC32F0200EFB
:106D78007DEC32F0020E7DEC32F0B00E7DEC32F09C
:106D8800C80E7DEC32F0000E7DEC32F0100E7DEC7A
:106D980032F0400E7DEC32F0810E7DEC32F07F0E49
:106DA8007DEC32F0A10E7DEC32F0A60E7DEC32F0D7
:106DB800A80E7DEC32F03F0E7DEC32F0A40E7DEC97
:106DC80032F0D30E7DEC32F0000E7DEC32F0D50EB1
:106DD8007DEC32F0800E7DEC32F0D90E7DEC32F095
:106DE800F10E7DEC32F0DA0E7DEC32F0120E7DEC15
:106DF80032F0DB0E7DEC32F0400E7DEC32F08D0E81
:106E08007DEC32F0140E7DEC32F0AF0E7DEC32F0FA
:106E180043EC33F012001F6A1E6A0E500F10101058
:106E28001110D8A41AEF37F01CEF37F05DEF37F0E8
:106E38001250D96EDA6A300EDF6E1250D96EDA6AE5
:106E4800010ED926DF6A83EF37F01F50130FD96E72
:106E5800DA6A0EC001F00FC002F010C003F011C0D2
:106E680004F00A0E056E000E066E000E076E000E88
:106E7800086E20EC35F00150300FDF6E0EC001F0C7
:106E88000FC002F010C003F011C004F00A0E056E26
:106E9800000E066E000E076E000E086EACEC35F0A4
:106EA80001C00EF002C00FF003C010F004C011F0D2
:106EB8001F2A0E500F1010101110D8A466EF37F0CB
:106EC80068EF37F029EF37F076EF37F01F061F50DD
:106ED800130FD96EDA6A12501E24E16EE26ADFCF10
:106EE800E7FF1E2A1F50D8A47CEF37F07EEF37F05B
:106EF8006AEF37F012501E24D96EDA6ADF6A120080
:106F0800166A14BE8CEF37F08AEF37F096EF37F039
:106F1800141E131E121E116C000E122213221422AC
:106F2800010E166E10BE9DEF37F09BEF37F0A7EFFE
:106F380037F0101E0F1E0E1E0D6C000E0E220F22B3
:106F48001022010E161A000E176E000E186E000E93
:106F5800196E000E1A6E1150121013101410D8B4B6
:106F6800B8EF37F0BAEF37F0F0EF37F0010E156EE3
:106F7800C4EF37F0D8901136123613361436152A66
:106F880014AEC9EF37F0CBEF37F0BEEF37F0D8903B
:106F98001736183619361A3611500D5C12500E581D
:106FA80013500F5814501058D8A0DDEF37F0DFEF0A
:106FB80037F0E8EF37F011500D5E12500E5A1350AB
:106FC8000F5A1450105A1780D890143213321232B4
:106FD8001132152ECBEF37F01650D8B4F6EF37F044
:106FE800F8EF37F000EF38F01A1E191E181E176C4C
:106FF800000E182219221A2217C00DF018C00EF020
:1070080019C00FF01AC010F0120020C008F021C0FB
:1070180009F02E0E0A6E51EC36F02E0E026E036A3F
:10702800ECEC33F0C80E026E7F0E036EECEC33F01E
:107038002250D8B422EF38F024EF38F02CEF38F093
:10704800BF0E026E7F0E036EECEC33F032EF38F0B9
:107058007E0E026E7F0E036EECEC33F02250D8A445
:1070680038EF38F03AEF38F042EF38F07E0E026E23
:107078007F0E036EECEC33F065EF38F02350D8B494
:1070880048EF38F04AEF38F05FEF38F024C008F0E6
:1070980025C009F02E0E0A6E51EC36F02E0E026E47
:1070A800036AECEC33F0C80E026E7F0E036EECEC54
:1070B80033F065EF38F0A70E026E7F0E036EECEC2E
:1070C80033F026C00EF027C00FF028C010F029C0FA
:1070D80011F02E0E126E0FEC37F02E0E026E036AB0
:1070E800ECEC33F0C80E026E7F0E036EECEC33F05E
:1070F8002AC00EF02BC00FF02CC010F02DC011F0DC
:107108002E0E126E0FEC37F02E0E046E056A52EC3E
:1071180032F012000C6E0A0E0C18D8A496EF38F054
:1071280098EF38F0ACEF38F05D6A070E5C609FEFBF
:1071380038F0A1EF38F0A4EF38F05C2AA5EF38F06A
:107148005C6A5CC004F05D501DEC33F014EF39F05C
:107158000CC00EF01F0E0E64B4EF38F0B6EF38F026
:10716800BEEF38F07F0E0E64BCEF38F0BEEF38F09B
:10717800C0EF38F03F0E0E6E7A0E5D64C6EF38F041
:10718800C8EF38F0DAEF38F05D6A070E5C60CFEFD1
:1071980038F0D1EF38F0D4EF38F05C2AD5EF38F07A
:1071A8005C6A5CC004F05D501DEC33F0E00E0E2408
:1071B800066E076AFF0E0722050E0602F3CF08F0D7
:1071C800F4CF09F00702F350092608C00AF009C0F5
:1071D8000BF01DEC32F00D6A2B0E066E7C0E076E5E
:1071E8000D500626000E07220A5006260B500722CD
:1071F80006C0F6FF07C0F7FF0800F55011EC32F0A3
:107208000D2A040E0D640BEF39F00DEF39F0F0EF95
:1072180038F0000E11EC32F00EEC32F0060E5D265E
:107228001200376E43EC33F0000E046E0A0E1DECAC
:1072380033F06F0E0F6E7F0E106E1BEC34F0020EE3
:10724800046E0A0E1DEC33F03750D8A42EEF39F037
:1072580030EF39F043EF39F09A0E0F6E7F0E106E53
:107268001BEC34F0040E046E0A0E1DEC33F0600EB5
:107278000F6E7F0E106E1BEC34F082EF39F0200495
:10728800D8A449EF39F04BEF39F060EF39F0EF0E41
:107298000F6E7F0E106E1BEC34F021C008F022C078
:1072A80009F02B0E0A6E51EC36F02B0E0F6E106A99
:1072B8001BEC34F066EF39F0D50E0F6E7F0E106EB2
:1072C8001BEC34F0040E046E0A0E1DEC33F0F40EC1
:1072D8000F6E7F0E106E1BEC34F027C00EF028C026
:1072E8000FF029C010F02AC011F02B0E126E0FEC0F
:1072F80037F02B0E0F6E106A1BEC34F0060E046E7E
:107308000A0E1DEC33F0EA0E0F6E7F0E106E1BECAA
:1073180034F023C00EF024C00FF025C010F026C0B2
:1073280011F02B0E126E0FEC37F02B0E0F6E106A49
:107338001BEC34F012001F0E046E060E056E070ECD
:1073480064EC35F020C00FF0106A116A126A11C09F
:1073580012F010C011F00FC010F00F6A1FC013F028
:10736800146A156A166A14C016F013C015F0146A68
:10737800136A0F501310176E10501410186E115016
:107388001510196E125016101A6E215017101B6E18
:1073980018501C6E19501D6E1A501E6E0D50D96E65
:1073A800DA6A1BC0DEFF1CC0DEFF1DC0DEFF1EC088
:1073B800DEFF23C00FF0106A116A126A11C012F0C2
:1073C80010C011F00FC010F00F6A22C013F0146A39
:1073D800156A166A14C016F013C015F0146A136AF9
:1073E8000F501310176E10501410186E11501510FE
:1073F800196E125016101A6E245017101B6E185062
:107408001C6E19501D6E1A501E6E0E50D96EDA6A17
:107418001BC0DEFF1CC0DEFF1DC0DEFF1EC0DEFF7E
:107428000D50D96EDA6AFF0EDE16FF0EDE16030E59
:10743800DE16000EDE160E50D96EDA6AFF0EDE1664
:10744800FF0EDE16030EDE16000EDE161200000E0C
:10745800466E000E476E000E486E000E496E000E16
:107468004C6E000E4D6E000E4E6E000E4F6E446A4E
:107478004B6A000E4A6E3E6A000E3D6E406A000E70
:107488003F6E426A000E416E69EC33F02F0E046EB7
:107498007F0E056E52EC32F0400E046E7F0E056EC4
:1074A80052EC32F07D0E046E7E0E056E52EC32F018
:1074B800D50E046E7E0E056E52EC32F0FEEC35F001
:1074C800436E43EC33F04350D8A46DEF3AF06FEFBE
:1074D8003AF0A3EF3AF00CEC32F006EC32F09D0EE5
:1074E800046E7E0E056E52EC32F0BA0E046E7E0EFD
:1074F800056E52EC32F0000E046E0A0E1DEC33F0ED
:10750800510E0F6E7F0E106E1BEC34F0020E046EDF
:107518000A0E1DEC33F0CA0E0F6E7F0E106E1BECB8
:1075280034F0040E046E0A0E1DEC33F0B30E0F6E29
:107538007F0E106E1BEC34F00000A0EF3AF004EC64
:1075480032F008EC32F03C0E046E7E0E056E52EC02
:1075580032F0050E046E7F0E056E52EC32F01D0EF1
:10756800046E7F0E056E52EC32F0CFEC32F0000E56
:10757800046E0A0E1DEC33F06F0E0F6E7F0E106E48
:107588001BEC34F0020E046E0A0E1DEC33F0600E94
:107598000F6E7F0E106E1BEC34F0040E046E0A0E94
:1075A8001DEC33F0E00E0F6E7F0E106E1BEC34F006
:1075B800460E0D6E4C0E0E6E9FEC39F04CC001F06D
:1075C8004DC002F04EC003F04FC004F093EC33F00E
:1075D800506E50509BEC32F05004D8A4F6EF3AF0BD
:1075E800F8EF3AF013EF3BF04450D8A4FEEF3AF02E
:1075F80000EF3BF013EF3BF0B1EC34F04B6A000EB8
:107608004A6EC90E046E7F0E056E52EC32F05D0EA6
:10761800046E7E0E056E52EC32F0CFEC32F0505014
:10762800D8A419EF3BF01BEF3BF036EF3BF04404D6
:10763800D8A421EF3BF023EF3BF036EF3BF0B1EC61
:1076480034F04B6A000E4A6EC90E046E7F0E056E4A
:1076580052EC32F08C0E046E7F0E056E52EC32F056
:10766800CFEC32F05004D8A43CEF3BF03EEF3BF0B7
:107678004DEF3BF04CC01BF04DC01CF04EC01DF050
:107688004FC01EF04A0E1F6EBAEC3BF0456E53EF2A
:107698003BF04B6A000E4A6E456AB1EC34F0414A41
:1076A800422A425009E1640E415CD8A05EEF3BF0EB
:1076B80060EF3BF083EF3BF0426A000E416E3D4ABB
:1076C8003E2A3DC020F03EC021F050C022F045C007
:1076D80023F04AC024F04BC025F046C026F047C02E
:1076E80027F048C028F049C029F04CC02AF04DC006
:1076F8002BF04EC02CF04FC02DF009EC38F03F4A6B
:10770800402A405009E1640E3F5CD8A08EEF3BF060
:1077180090EF3BF0ACEF3BF0406A000E3F6E45C087
:1077280020F04AC021F04BC022F046C023F047C0E9
:1077380024F048C025F049C026F04CC027F04DC0C1
:1077480028F04EC029F04FC02AF0505015EC39F0FF
:1077580050C044F01A0E3C6EF80EE82EFED73C2EB0
:10776800FCD700D0DCEF3AF0FEEF3FF01E501D10C2
:1077780009E1200E1B5C4E0E1C58D8B0C6EF3BF03A
:10778800C8EF3BF0CDEF3BF0B1EC34F0000E14EF56
:107798003EF0010E00016027000E6123622363237F
:1077A8006C516D116E116F11D8A4DDEF3BF0DFEF56
:1077B8003BF0F9EF3BF01BC06CF01CC06DF01DC036
:1077C8006EF01EC06FF0000E686F000E696F000E3D
:1077D8006A6F000E6B6F000E556E000E566E000E2F
:1077E800576E000E586ECAEF3BF06CC001F06DC0CA
:1077F80002F06EC003F06FC004F01F0E056E000E9D
:10780800066E000E076E000E086E7CEC34F01B50FE
:1078180001240D6E1C5002200E6E1D5003200F6EA9
:107828001E500420106E200E116E000E126E000EF7
:10783800136E000E146E84EC37F00DC06CF00EC0A1
:107848006DF00FC06EF010C06FF000016C511B5C42
:10785800386E6D511C58396E6E511D583A6E6F5105
:107868001E583B6E3BBE3DEF3CF03BEF3CF058EF03
:107878003CF038C020F039C021F03AC022F03BC0BB
:1078880023F0201E211E221E231E202A000E212244
:107898002222232220C024F021C025F022C026F075
:1078A80023C027F060EF3CF038C024F039C025F041
:1078B8003AC026F03BC027F064C001F065C002F072
:1078C80066C003F067C004F00F0E056E000E066E6A
:1078D800000E076E000E086E7CEC34F02450012474
:1078E800206E25500220216E26500320226E27503C
:1078F8000420236E050E86EF3CF0D8902332223206
:1079080021322032E82E81EF3CF020C064F021C003
:1079180065F022C066F023C067F064C020F065C03F
:1079280021F066C022F067C023F0D89023322232BB
:107938002132203220C028F021C029F022C02AF0AC
:1079480023C02BF02B502A10291007E1500E285C79
:10795800D8B0B1EF3CF0B3EF3CF0BBEF3CF0500EC9
:10796800286E000E296E000E2A6E000E2B6E000186
:1079780063516211611107E1320E605DD8B0C7EF43
:107988003CF0C9EF3CF0DBEF3CF055C068F056C066
:1079980069F057C06AF058C06BF038C055F039C06C
:1079A80056F03AC057F03BC058F0CAEF3BF055507C
:1079B800685D5650695957506A596B51800A206E54
:1079C8005850800A2058D8B0ECEF3CF0EEEF3CF06D
:1079D800F4EF3DF05550385C5650395857503A58E6
:1079E8003B50800A206E5850800A2058D8B0FFEFCC
:1079F8003CF001EF3DF0F4EF3DF05550285C565057
:107A0800295857502A582B50800A206E5850800AFF
:107A18002058D8B012EF3DF014EF3DF0F4EF3DF0F0
:107A2800FF0E60252C6EFF0E61212D6EFF0E622168
:107A38002E6EFF0E63212F6E5150521053105410AA
:107A4800D8B429EF3DF02BEF3DF044EF3DF0515015
:107A58002C5C206E52502D58216E53502E58226E99
:107A680054502F58236E23502210211009E1280E5C
:107A7800205CD8A042EF3DF044EF3DF0F4EF3DF03C
:107A88005150521053105410D8B44DEF3DF04FEFF1
:107A98003DF0ECEF3DF051502C5C306E52502D58BB
:107AA800316E53502E58326E54502F58336E335017
:107AB8003210311009E12E0E305CD8A066EF3DF08F
:107AC80068EF3DF0ECEF3DF033503210311007E134
:107AD800860E305CD8B073EF3DF075EF3DF0ECEFFB
:107AE8003DF0700E016E170E026E000E036E000E52
:107AF800046E30C005F031C006F032C007F033C064
:107B080008F0ACEC35F001C034F002C035F003C029
:107B180036F004C037F037503610351009E12D0E15
:107B2800345CD8A09AEF3DF09CEF3DF0ECEF3DF0CF
:107B380037503610351007E1830E345CD8B0A7EF04
:107B48003DF0A9EF3DF0ECEF3DF059505A10D8A4A4
:107B5800B0EF3DF0B2EF3DF0B8EF3DF034C059F072
:107B680035C05AF0E3EF3DF059C001F05AC002F0B9
:107B7800036A046A030E056E000E066E000E076E99
:107B8800000E086E7CEC34F034500124206E355021
:107B98000220216E36500320226E37500420236EB7
:107BA800030EDCEF3DF0D89023322232213220320E
:107BB800E82ED7EF3DF020C059F021C05AF00A0E48
:107BC8005B60E9EF3DF0EBEF3DF0ECEF3DF05B2A59
:107BD8002CC051F02DC052F02EC053F02FC054F0DD
:107BE80055C068F056C069F057C06AF058C06BF0CD
:107BF80038C055F039C056F03AC057F03BC058F07D
:107C08005B50D8B40AEF3EF00CEF3EF0CAEF3BF001
:107C18001F50D96EDA6A59C0DEFF5AC0DDFF010E67
:107C2800120000000000000000005F0000000700D4
:107C38000700147F147F14242A7F2A122313086450
:107C48006236495522500005030000001C224100FD
:107C58000041221C0014083E081408083E080800C9
:107C68005030000008080808080060600000201074
:107C78000804023E5149453E00427F40004261519E
:107C880049462141454B311814127F102745454577
:107C9800393C4A4949300171090503364949493691
:107CA800064949291E0036360000005636000008ED
:107CB800142241001414141414004122140802015F
:107CC800510906324979413E7E1111117E7F494999
:107CD80049363E414141227F4141221C7F49494961
:107CE800417F090909013E4149497A7F0808087F0F
:107CF80000417F41002040413F017F081422417F1D
:107D0800404040407F020C027F7F0408107F3E41C4
:107D180041413E7F090909063E4151215E7F09190B
:107D28002946464949493101017F01013F40404008
:107D38003F1F2040201F7F2018207F6314081463F2
:107D480007087008076151494543007F4141000217
:107D5800040810200041417F000402010204404051
:107D6800404040000102040020545454787F4844A5
:107D780044383844444420384444487F38545454A0
:107D880018087E0901020C5252523E7F08040478FA
:107D980000447D40002040443D007F1028440000FE
:107DA800417F40007C041804787C08040478384437
:107DB8004444387C14141408081414187C7C0804EF
:107DC80004084854545420043F4440203C40402078
:107DD8007C1C2040201C3C4030403C442810284457
:107DE8000C5050503C4464544C4400083641000048
:107DF800007F0000004136080008082A1C0800001F
:107E08000000002D2D2D2D2D2D2D2D2D2D2D2D2D21
:107E18002D2D2D2D2D2D2D2D2D2D2D2D2D2D2D2D8A
:107E28002D2D2D2D2D2D2D2D2D2D2D2D2D2D2D2D7A
:107E38002D2D2D004D41583330313032206465747A
:107E480065637461646F20636F7272656374616DDA
:107E5800656E7465004465646F2064657465637459
:107E680061646F202D2063616C63756C616E646F53
:107E78002042504D00554152542066756E63696F1B
:107E88006E616E646F206120393630302062617512
:107E980064696F73004552524F523A204D4158332E
:107EA80030313032206E6F206465746563746164AC
:107EB8006F00526576697365205643432C20474E00
:107EC800442C2053444120792053434C005665727A
:107ED80069666963616E646F204D41583330313093
:107EE800322E2E2E004D75657374726109446564D7
:107EF8006F0942504D095245440949520043616C8B
:107F080063756C6F2064652042504D20696E69630B
:107F18006961646F004573706572616E646F206497
:107F280065646F2E2E2E0053697374656D61206928
:107F38006E69636961646F004F4C45442066756ED5
:107F480063696F6E616E646F004D41583330313034
:107F580032204552524F52004573706572616E640B
:107F68006F206465646F005369676E6F732056698C
:107F780074616C6573004E6F206465746563746129
:107F8800646F09004465646F207265746972616486
:107F98006F004E6F2064657465637461646F00439D
:107FA800616C63756C616E646F09005344412053C2
:107FB800434C205643430044657465637461646FA1
:107FC8000900526576697365204932430043616C44
:107FD80063756C616E646F0042504D206C697374F8
:107FE8006F005245443A0042504D3A0049523A0017
:087FF8000D0A0000ABEF32F0AE
:020000040030CA
:0E0000000008181EFF8181FF0FC00FE00F40A7
:00000001FF
