:04000000FEEF3FF0E0
:106C04008C8212008C9412008C8412008C801200EE
:106C14008C92120042EC36F01200036E035065ECC5
:106C240036F012009590959295948C908C928C9459
:106C340012004B6A4A6A496A000EF86E0001D3EFEB
:106C44003CF037EC36F0780E65EC36F0400E65EC2F
:106C540036F01200B1EC36F0C582C5B234EF36F02E
:106C640036EF36F02FEF36F01200B1EC36F0C58077
:106C7400C5B03FEF36F041EF36F03AEF36F0120090
:106C8400B1EC36F0C584C5B44AEF36F04CEF36F0BB
:106C940045EF36F01200016E9EA853EF36F055EF23
:106CA40036F04EEF36F001C0ADFF120004C002F022
:106CB40005C003F0E1EC37F0F80E026E7F0E036EB0
:106CC400E1EC37F01200026EB1EC36F002C0C9FFFD
:106CD4009EA66FEF36F071EF36F06AEF36F09E96AF
:106CE400C5501200046E37EC36F0AE0E65EC36F08B
:106CF400045065EC36F0035065EC36F042EC36F0A7
:106D04001200036E37EC36F0780E65EC36F0000EA8
:106D140065EC36F0035065EC36F042EC36F01200C8
:106D2400949C948EAC6AAB6AB86AAC98AC84B8860E
:106D3400B06ACF0EAF6EAB8EAC8AAB881200016E18
:106D44000150D8A4A8EF36F0AAEF36F0AEEF36F033
:106D540006EC36F0B0EF36F004EC36F01200C5CF96
:106D640001F01F0E0116D8A4BAEF36F0BCEF36F0CE
:106D7400B1EF36F0C7B4C1EF36F0C3EF36F0B1EF80
:106D840036F01200E30E046E7F0E056E58EC36F0FA
:106D9400250E046E7F0E056E58EC36F0390E046E27
:106DA4007E0E056E58EC36F01200046E37EC36F0A9
:106DB400AE0E65EC36F0045065EC36F02CEC36F093
:106DC400AF0E65EC36F0000EEDEC36F0056E42ECDD
:106DD40036F005501200026EB1EC36F0C586C7A03D
:106DE400F6EF36F0F8EF36F0F1EF36F0C9CF03F0F6
:106DF400B1EC36F00250D8B402EF37F004EF37F0BC
:106E040007EF37F0C59A08EF37F0C58AC588C5B8CB
:106E14000EEF37F010EF37F009EF37F003501200A0
:106E2400056E7F0E056419EF37F01BEF37F01CEF8A
:106E340037F0056A070E046422EF37F024EF37F0C9
:106E440025EF37F0046A05C04AF004C049F0045045
:106E5400B00F83EC36F005500F0B83EC36F0053899
:106E64000F0B0F0B100F83EC36F01200076A07C0EC
:106E740004F0000E12EC37F023EC36F0066A000E34
:106E84000FEC36F0062A7F0E06644BEF37F04DEF19
:106E940037F041EF37F00CEC36F0072A070E0764A1
:106EA40056EF37F058EF37F039EF37F0000E046E35
:106EB400000E12EC37F01200720ED36E0F0EC16E7C
:106EC400070EB46EB56A896A8A6A8B6A8C6A8D6A9F
:106ED4009268936894689568966814EC36F008ECA8
:106EE40036F00AEC36F006EC36F092EC36F0A00EF2
:106EF4000E6E860E0F6E010E106E000E116EB3EC48
:106F040037F0E8EC3AF038EC37F012004B50D8A4E4
:106F14008EEF37F090EF37F0A2EF37F00450031004
:106F24000BE1300E015C750E0258D8A09CEF37F0CF
:106F34009EEF37F0B1EF37F0010E4B6EB1EF37F043
:106F44000450031009E1200E015C4E0E0258D8B023
:106F5400AEEF37F0B0EF37F0B1EF37F04B6A4B508C
:106F6400120093809382C66AC56AC76A280EC66EE9
:106F7400C78E000E016E120E026E7A0E036E000EA4
:106F8400046E0EC012F00FC013F010C014F011C044
:106F940015F0020ED8901236133614361536E82E34
:106FA400CCEF37F012C005F013C006F014C007F0A0
:106FB40015C008F087EC39F00104C86E1200F7EF31
:106FC40037F002C0F6FF03C0F7FFF86A070EF76454
:106FD40003D00800F55005D0F6CFE9FFF7CFEAFF5C
:106FE400EF504DEC36F0024A032A02C0F6FF03C00C
:106FF400F7FFF86A070EF76403D00800F55005D0D0
:10700400F6CFE9FFF7CFEAFFEF500009D8A40DEF60
:1070140038F00FEF38F0E3EF37F0120026EF38F0D6
:107024000FC0F6FF10C0F7FFF86A070EF76403D02D
:107034000800F55005D0F6CFE9FFF7CFEAFFEF508F
:10704400C0EC3BF00F4A102A0FC0F6FF10C0F7FF48
:10705400F86A070EF76403D00800F55005D0F6CFA0
:10706400E9FFF7CFEAFFEF500009D8A43CEF38F06E
:107074003EEF38F012EF38F0120003500410D8B489
:1070840046EF38F048EF38F06CEF38F0010E056E3B
:1070940050EF38F0D89003360436052A04AE55EF85
:1070A40038F057EF38F04CEF38F00350015C0450DF
:1070B4000258D8A060EF38F062EF38F066EF38F08D
:1070C4000350015E0450025AD89004320332052E54
:1070D40057EF38F001C001F002C002F01200066A56
:1070E400000E056E03500410D8B47BEF38F07DEF2A
:1070F40038F0A5EF38F0010E076E85EF38F0D89020
:1071040003360436072A04AE8AEF38F08CEF38F0E1
:1071140081EF38F0D890053606360350015C0450F0
:107124000258D8A098EF38F09AEF38F09FEF38F073
:107134000350015E0450025A0580D8900432033291
:10714400072E8CEF38F005C001F006C002F01200E3
:107154000550061007100810D8B4B3EF38F0B5EF97
:1071640038F0E5EF38F0010E096EBFEF38F0D89033
:107174000536063607360836092A08AEC4EF38F055
:10718400C6EF38F0B9EF38F00550015C06500258EC
:107194000750035808500458D8A0D3EF38F0D5EF5F
:1071A40038F0DDEF38F00550015E0650025A075002
:1071B400035A0850045AD89008320732063205326E
:1071C400092EC6EF38F001C001F002C002F003C07E
:1071D40003F004C004F012000B6E37EC36F0AE0E70
:1071E40065EC36F00B5065EC36F02CEC36F0AF0E57
:1071F40065EC36F00C6A2AEF39F0FF0E0524066EB2
:10720400076AFF0E07220C50086E096A0650085CD4
:107214000950800A0A6E0750800A0A58D8B015EF40
:1072240039F017EF39F021EF39F004500C24D96EFE
:10723400DA6A010EEDEC36F0DF6E29EF39F0045016
:107244000C24D96EDA6A000EEDEC36F0DF6E0C2AEF
:1072540005500C5CD8A031EF39F033EF39F0FFEF73
:1072640038F042EC36F01200FF0ED7EC36F0086E20
:10727400150E0818D8B441EF39F043EF39F046EF52
:1072840039F0000E86EF39F0400E036E090E74ECEF
:1072940036F0020E076E040E066EBA0EE82EFED706
:1072A400062EFCD7072EFAD700D0000E036E040E6C
:1072B40074EC36F0000E036E050E74EC36F0000E1E
:1072C400036E060E74EC36F01F0E036E080E74EC9B
:1072D40036F0030E036E090E74EC36F0270E036EBF
:1072E4000A0E74EC36F0240E036E0C0E74EC36F0B9
:1072F400240E036E0D0E74EC36F0000ED7EC36F04F
:10730400010ED7EC36F0010E1200000E096E000ECD
:107314000A6E000E0B6E000E0C6E05500610071060
:107324000810D8B498EF39F09AEF39F0D0EF39F06B
:10733400010E0D6EA4EF39F0D890053606360736E7
:1073440008360D2A08AEA9EF39F0ABEF39F09EEFFD
:1073540039F0D89009360A360B360C360550015CE4
:10736400065002580750035808500458D8A0BDEFDF
:1073740039F0BFEF39F0C8EF39F00550015E06501F
:10738400025A0750035A0850045A0980D890083208
:107394000732063205320D2EABEF39F009C001F089
:1073A4000AC002F00BC003F00CC004F0120020C0AD
:1073B40008F021C009F02B0E0A6E2BEC3AF02B0ECC
:1073C400026E036AE1EC37F0E20E026E7F0E036E8A
:1073D400E1EC37F02250D8B4F2EF39F0F4EF39F0A1
:1073E400FCEF39F0D90E026E7F0E036EE1EC37F03C
:1073F40002EF3AF0970E026E7F0E036EE1EC37F067
:1074040023C00EF024C00FF025C010F026C011F0E8
:107414002B0E126E4BEC3BF02B0E026E036AE1EC6A
:1074240037F0E20E026E7F0E036EE1EC37F027C0F8
:107434000EF028C00FF029C010F02AC011F02B0E56
:10744400126E4BEC3BF02B0E046E056A58EC36F0D2
:107454001200126A116A08500910D8A434EF3AF0E5
:1074640036EF3AF061EF3AF00A50D96EDA6A300E2C
:10747400DF6E0A50D96EDA6A010ED926DF6A85EF0B
:107484003AF012500B0FD96EDA6A08C001F009C045
:1074940002F0046A0A0E036E3FEC38F00150300F1C
:1074A400DF6E08C001F009C002F0046A0A0E036E20
:1074B40071EC38F001C008F002C009F0122A08503B
:1074C4000910D8A468EF3AF06AEF3AF043EF3AF0C3
:1074D40078EF3AF0120612500B0FD96EDA6A0A509E
:1074E4001124E16EE26ADFCFE7FF112A1250D8A41B
:1074F4007EEF3AF080EF3AF06CEF3AF00A50112444
:10750400D96EDA6ADF6A1200346E38EC37F0000E96
:10751400046E0A0E12EC37F0880E0F6E7F0E106E9A
:1075240010EC38F0020E046E0A0E12EC37F03450F0
:10753400D8B49FEF3AF0A1EF3AF0A9EF3AF06A0E0F
:107544000F6E7F0E106E10EC38F0AFEF3AF0C00EF5
:107554000F6E7F0E106E10EC38F0040E046E0A0EDF
:1075640012EC37F0F40E0F6E7F0E106E10EC38F044
:1075740024C00EF025C00FF026C010F027C011F073
:10758400280E126E4BEC3BF0280E0F6E106A10ECB6
:1075940038F0060E046E0A0E12EC37F0EF0E0F6E82
:1075A4007F0E106E10EC38F020C00EF021C00FF0EA
:1075B40022C010F023C011F0280E126E4BEC3BF0E9
:1075C400280E0F6E106A10EC38F01200020E096ECD
:1075D400040E086EBA0EE82EFED7082EFCD7092E2C
:1075E400FAD700D0AE0E83EC36F0200E83EC36F0E2
:1075F400020E83EC36F0B00E83EC36F0C80E83EC4A
:1076040036F0000E83EC36F0100E83EC36F0400EAC
:1076140083EC36F0810E83EC36F07F0E83EC36F08B
:10762400A10E83EC36F0A60E83EC36F0A80E83ECA4
:1076340036F03F0E83EC36F0A40E83EC36F0D30E16
:1076440083EC36F0000E83EC36F0D50E83EC36F086
:10765400800E83EC36F0D90E83EC36F0F10E83EC19
:1076640036F0DA0E83EC36F0120E83EC36F0DB0ED5
:1076740083EC36F0400E83EC36F08D0E83EC36F05E
:10768400140E83EC36F0AF0E83EC36F038EC37F0A2
:1076940012001F6A1E6A0E500F1010101110D8A489
:1076A40056EF3BF058EF3BF099EF3BF01250D96E98
:1076B400DA6A300EDF6E1250D96EDA6A010ED926FC
:1076C400DF6ABFEF3BF01F50130FD96EDA6A0EC0AA
:1076D40001F00FC002F010C003F011C004F00A0E54
:1076E400056E000E066E000E076E000E086EAAEC04
:1076F40038F00150300FDF6E0EC001F00FC002F001
:1077040010C003F011C004F00A0E056E000E066EE0
:10771400000E076E000E086E87EC39F001C00EF003
:1077240002C00FF003C010F004C011F01F2A0E5065
:107734000F1010101110D8A4A2EF3BF0A4EF3BF0EF
:1077440065EF3BF0B2EF3BF01F061F50130FD96EED
:10775400DA6A12501E24E16EE26ADFCFE7FF1E2AC6
:107764001F50D8A4B8EF3BF0BAEF3BF0A6EF3BF0C4
:1077740012501E24D96EDA6ADF6A12000C6E0A0EE9
:107784000C18D8A4C8EF3BF0CAEF3BF0DEEF3BF097
:107794004A6A070E4960D1EF3BF0D3EF3BF0D6EFD6
:1077A4003BF0492AD7EF3BF0496A49C004F04A50FC
:1077B40012EC37F046EF3CF00CC00EF01F0E0E64D6
:1077C400E6EF3BF0E8EF3BF0F0EF3BF07F0E0E64AA
:1077D400EEEF3BF0F0EF3BF0F2EF3BF03F0E0E6EBE
:1077E4007A0E4A64F8EF3BF0FAEF3BF00CEF3CF012
:1077F4004A6A070E496001EF3CF003EF3CF006EFE4
:107804003CF0492A07EF3CF0496A49C004F04A5069
:1078140012EC37F0E00E0E24066E076AFF0E072204
:10782400050E0602F3CF08F0F4CF09F00702F35077
:10783400092608C00AF009C00BF023EC36F00D6AE3
:10784400590E066E7C0E076E0D500626000E07229A
:107854000A5006260B50072206C0F6FF07C0F7FFA2
:107864000800F5500FEC36F00D2A040E0D643DEFC0
:107874003CF03FEF3CF022EF3CF0000E0FEC36F012
:107884000CEC36F0060E4A2612001F0E046E060E8D
:10789400056E070EEEEC38F020C00FF0106A116A86
:1078A400126A11C012F010C011F00FC010F00F6A6C
:1078B4001FC013F0146A156A166A14C016F013C0B8
:1078C40015F0146A136A0F501310176E1050141029
:1078D400186E11501510196E125016101A6E215090
:1078E40017101B6E18501C6E19501D6E1A501E6E08
:1078F4000D50D96EDA6A1BC0DEFF1CC0DEFF1DC04E
:10790400DEFF1EC0DEFF23C00FF0106A116A126A88
:1079140011C012F010C011F00FC010F00F6A22C095
:1079240013F0146A156A166A14C016F013C015F021
:10793400146A136A0F501310176E10501410186E37
:1079440011501510196E125016101A6E245017107B
:107954001B6E18501C6E19501D6E1A501E6E0E5060
:10796400D96EDA6A1BC0DEFF1CC0DEFF1DC0DEFF5D
:107974001EC0DEFF0D50D96EDA6AFF0EDE16FF0E52
:10798400DE16030EDE16000EDE160E50D96EDA6A0F
:10799400FF0EDE16FF0EDE16030EDE16000EDE16DA
:1079A4001200000E406E000E416E000E426E000E7C
:1079B400436E000E446E000E456E000E466E000EC1
:1079C400476E3F6A396A000E386E3B6A000E3A6EA3
:1079D4003D6A000E3C6E5EEC37F0390E046E7F0E8D
:1079E400056E58EC36F04A0E046E7F0E056E58ECA8
:1079F40036F0F40E046E7E0E056E58EC36F0810EF1
:107A0400046E7E0E056E58EC36F00D0E046E7F0E7D
:107A1400056E58EC36F036EC39F03E6E38EC37F043
:107A24003E50D8A418EF3DF01AEF3DF04EEF3DF074
:107A34000AEC36F004EC36F0A10E046E7E0E056EF0
:107A440058EC36F0BE0E046E7E0E056E58EC36F021
:107A5400000E046E0A0E12EC37F05B0E0F6E7F0EF2
:107A6400106E10EC38F0020E046E0A0E12EC37F0B1
:107A7400E40E0F6E7F0E106E10EC38F0040E046EE0
:107A84000A0E12EC37F0CD0E0F6E7F0E106E10EC56
:107A940038F000004BEF3DF002EC36F006EC36F027
:107AA400600E046E7E0E056E58EC36F0D90E046E30
:107AB4007E0E056E58EC36F0C4EC36F0000E046E03
:107AC4000A0E12EC37F0880E0F6E7F0E106E10EC5B
:107AD40038F0020E046E0A0E12EC37F0790E0F6EB7
:107AE4007F0E106E10EC38F0040E046E0A0E12ECC9
:107AF40037F0B30E0F6E7F0E106E10EC38F0400EA0
:107B04000D6E440E0E6E47EC3CF044C001F045C0CF
:107B140002F046C003F047C004F088EC37F0486E2A
:107B24004850A1EC36F04804D8A49BEF3DF09DEFFB
:107B34003DF0B3EF3DF03F50D8A4A3EF3DF0A5EFE7
:107B44003DF0B3EF3DF0E30E046E7F0E056E58EC8E
:107B540036F06A0E046E7F0E056E58EC36F0C4ECF7
:107B640036F04850D8A4B9EF3DF0BBEF3DF0D1EF6B
:107B74003DF03F04D8A4C1EF3DF0C3EF3DF0D1EF99
:107B84003DF0E30E046E7F0E056E58EC36F0A50E44
:107B9400046E7F0E056E58EC36F0C4EC36F03C4AA9
:107BA4003D2A3D5009E1640E3C5CD8A0DCEF3DF079
:107BB400DEEF3DF0FBEF3DF03D6A000E3C6E384ACF
:107BC400392A38C020F039C021F048C022F040C022
:107BD40023F041C024F042C025F043C026F044C045
:107BE40027F045C028F046C029F047C02AF0D9EC58
:107BF40039F03A4A3B2A3B5009E1640E3A5CD8A07A
:107C040006EF3EF008EF3EF01EEF3EF03B6A000E3A
:107C14003A6E40C020F041C021F042C022F043C07F
:107C240023F044C024F045C025F046C026F047C0E8
:107C340027F0485086EC3AF048C03FF01A0E376EF1
:107C4400F80EE82EFED7372EFCD700D081EF3DF09A
:107C5400FEEF3FF000000000000000005F000000A5
:107C640007000700147F147F14242A7F2A12231389
:107C740008646236495522500005030000001C22A6
:107C840041000041221C0014083E081408083E0864
:107C94000800503000000808080808006060000070
:107CA40020100804023E5149453E00427F400042F4
:107CB400615149462141454B311814127F10274523
:107CC4004545393C4A49493001710905033649495A
:107CD4004936064949291E0036360000005636004A
:107CE400000814224100141414141400412214082E
:107CF4000201510906324979413E7E1111117E7FFC
:107D0400494949363E414141227F4141221C7F4934
:107D14004949417F090909013E4149497A7F0808D7
:107D2400087F00417F41002040413F017F08142229
:107D3400417F404040407F020C027F7F0408107F57
:107D44003E4141413E7F090909063E4151215E7F82
:107D540009192946464949493101017F01013F403A
:107D640040403F1F2040201F7F2018207F631408BD
:107D7400146307087008076151494543007F414176
:107D84000002040810200041417F000402010204A3
:107D94004040404040000102040020545454787F85
:107DA400484444383844444420384444487F385490
:107DB400545418087E0901020C5252523E7F0804A2
:107DC400047800447D40002040443D007F10284456
:107DD4000000417F40007C041804787C0804047887
:107DE40038444444387C14141408081414187C7C53
:107DF400080404084854545420043F4440203C40A0
:107E040040207C1C2040201C3C4030403C44281036
:107E140028440C5050503C4464544C4400083641AF
:107E24000000007F0000004136080008082A1C08F2
:107E340000000000002D2D2D2D2D2D2D2D2D2D2D4F
:107E44002D2D2D2D2D2D2D2D2D2D2D2D2D2D2D2D5E
:107E54002D2D2D2D2D2D2D2D2D2D2D004D41583316
:107E6400303130322064657465637461646F2063FB
:107E74006F7272656374616D656E7465005541520D
:107E8400542066756E63696F6E616E646F20612045
:107E9400393630302062617564696F73004552521F
:107EA4004F523A204D41583330313032206E6F20DA
:107EB40064657465637461646F00526576697365A3
:107EC400205643432C20474E442C205344412079D0
:107ED4002053434C00446574656363696F6E20648A
:107EE40065206465646F20696E696369616461001B
:107EF4004C45447320696E64696361646F72657391
:107F04002061637469766F7300566572696669638C
:107F1400616E646F204D415833303130322E2E2E35
:107F2400004D756573747261094465646F09524547
:107F3400440949520053697374656D6120696E691F
:107F4400636961646F004F4C45442066756E6369D4
:107F54006F6E616E646F004D4158333031303220A2
:107F64004552524F52004465646F206465746563E2
:107F74007461646F004573706572616E646F206430
:107F840065646F005369676E6F7320566974616C22
:107F94006573004E6F2064657465637461646F0972
:107FA400004465646F20726574697261646F005582
:107FB4007365204D41583330313032004E6F2064A8
:107FC400657465637461646F005344412053434C8A
:107FD400205643430044657465637461646F09000B
:107FE40052657669736520493243005245443A002C
:0C7FF40049523A000D0A00001BEF36F065
:020000040030CA
:0E0000000008181EFF8181FF0FC00FE00F40A7
:00000001FF
