:04000000FEEF3FF0E0
:105760008C861200928212008C9212008C8212009F
:105770008C9412008C8412008C8012008C968C9871
:10578000120089929292120007EC2CF01200B2ECF7
:105790002BF012009384F19E1200036E03502AEC4A
:1057A0002CF01200959695988C968C9812009590F6
:1057B000959295948C908C928C941200FCEC2BF02A
:1057C000780E2AEC2CF0400E2AEC2CF0120080B25D
:1057D000ECEF2BF0EFEF2BF0010EF0EF2BF0000EC3
:1057E0001200ACEC2CF0C582C5B2F9EF2BF0FBEF48
:1057F0002BF0F4EF2BF01200ACEC2CF0C580C5B010
:1058000004EF2CF006EF2CF0FFEF2BF01200ACECC5
:105810002CF0C584C5B40FEF2CF011EF2CF00AEF7B
:105820002CF01200016E9EA818EF2CF01AEF2CF04D
:1058300013EF2CF001C0ADFF120004C002F005C050
:1058400003F0C0EC2EF0F50E026E7F0E036EC0EC7E
:105850002EF01200026EACEC2CF002C0C9FF9EA626
:1058600034EF2CF036EF2CF02FEF2CF09E96C55035
:105870001200046EFCEC2BF0AE0E2AEC2CF004505F
:105880002AEC2CF003502AEC2CF007EC2CF0120040
:10589000036EFCEC2BF0780E2AEC2CF0000E2AECB8
:1058A0002CF003502AEC2CF007EC2CF01200949C06
:1058B000948EAC6AAB6AB86AAC98AC84B886B06AAD
:1058C000CF0EAF6EAB8EAC8AAB881200016E01506A
:1058D000D8A46DEF2CF06FEF2CF073EF2CF0BAEC36
:1058E0002BF075EF2CF0B8EC2BF0120000EE93F0DB
:1058F0000C0EEE6AE806FDE100EE47F0190EEE6AC6
:10590000E806FDE1000EF86E000179EF3AF0026E54
:10591000036A0250010B34EC2DF0D8900232032AB6
:10592000070E036496EF2CF098EF2CF089EF2CF023
:105930001200C1EC2BF0040EE82EFED7B2EC2BF0D7
:10594000060EE82EFED7E7EC2BF0016E240EE82EB3
:10595000FED700D001501200C5CF01F01F0E011676
:10596000D8A4B5EF2CF0B7EF2CF0ACEF2CF0C7B407
:10597000BCEF2CF0BEEF2CF0ACEF2CF01200D00EF0
:10598000046E7F0E056E1DEC2CF06C0E046E7D0E09
:10599000056E1DEC2CF0050E046E7D0E056E1DECE3
:1059A0002CF0120015EC2DF00009D8A4DAEF2CF041
:1059B000DCEF2CF0DFEF2CF0000EE6EF2CF0CC0E3D
:1059C00087EC2CF0440E87EC2CF0010E1200046ED4
:1059D000FCEC2BF0AE0E2AEC2CF004502AEC2CF050
:1059E000F1EC2BF0AF0E2AEC2CF0000E7BEC2DF03E
:1059F000056E07EC2CF005501200026E0204D8A4CC
:105A000004EF2DF006EF2DF012EF2DF00104D8A4D5
:105A10000CEF2DF00EEF2DF012EF2DF0B6EC2BF079
:105A200014EF2DF0B4EC2BF01200C1EC2BF0C00EF3
:105A300000D0E82EFDD7B2EC2BF02E0EE82EFED7CC
:105A400000D0E7EC2BF00009D8B429EF2DF02CEFB3
:105A50002DF0010E2DEF2DF0000E016EA40E00D0E2
:105A6000E82EFDD701501200016E0150D8B43BEF73
:105A70002DF03DEF2DF04AEF2DF0C1EC2BF0040E90
:105A8000E82EFED7B2EC2BF02A0EE82EFED700D07F
:105A900055EF2DF0C1EC2BF0280EE82EFED7B2EC1E
:105AA0002BF0060EE82EFED700D01200046A056A1D
:105AB00099EC2CF00009D8B460EF2DF062EF2DF0D6
:105AC00070EF2DF005C002F0010E036E022A6BEF9D
:105AD0002DF0D8900336022E69EF2DF003500412FA
:105AE000052A070E056477EF2DF079EF2DF058EFBA
:105AF0002DF004501200026EACEC2CF0C586C7A04D
:105B000084EF2DF086EF2DF07FEF2DF0C9CF03F05D
:105B1000ACEC2CF00250D8B490EF2DF092EF2DF0B9
:105B200095EF2DF0C59A96EF2DF0C58AC588C5B8BA
:105B30009CEF2DF09EEF2DF097EF2DF0035012000B
:105B4000056E7F0E0564A7EF2DF0A9EF2DF0AAEFEB
:105B50002DF0056A070E0464B0EF2DF0B2EF2DF0C2
:105B6000B3EF2DF0046A05C05EF004C05DF0045090
:105B7000B00F48EC2CF005500F0B48EC2CF005381A
:105B80000F0B0F0B100F48EC2CF01200076A07C028
:105B900004F0000EA0EC2DF0DEEC2BF0066A000EF7
:105BA000CDEC2BF0062A7F0E0664D9EF2DF0DBEF4B
:105BB0002DF0CFEF2DF0C4EC2BF0072A070E076471
:105BC000E4EF2DF0E6EF2DF0C7EF2DF0000E046EA0
:105BD000000EA0EC2DF01200720ED36E0F0EC16EEF
:105BE000070EB46EB56AD7EC2BF0CAEC2BF0D2ECF2
:105BF0002BF0BCEC2BF0B4EC2BF0BAEC2BF0BEECA1
:105C00002BF057EC2CF0A00E0E6E860E0F6E010ED0
:105C1000106E000E116E92EC2EF0CDEC32F0C6EC50
:105C20002DF0C7EC2BF0120081B419EF2EF01BEF12
:105C30002EF01FEF2EF0010E016E20EF2EF0016A04
:105C40005A500118D8B427EF2EF029EF2EF02EEF7E
:105C50002EF001C05AF0596A3BEF2EF0050E596044
:105C600034EF2EF036EF2EF039EF2EF0592A3BEFBD
:105C70002EF001C05BF05B501200036E0304D8A449
:105C800044EF2EF046EF2EF065EF2EF002BE52EFFD
:105C90002EF0F00E015C0A0E0258D8A052EF2EF042
:105CA00054EF2EF065EF2EF002BE62EF2EF0950E4F
:105CB000015C110E0258D8B060EF2EF062EF2EF0AA
:105CC00065EF2EF0010E66EF2EF0000E12005F5011
:105CD000D8A46DEF2EF06FEF2EF081EF2EF0045070
:105CE00003100BE1300E015C750E0258D8A07BEF5B
:105CF0002EF07DEF2EF090EF2EF0010E5F6E90EF04
:105D00002EF00450031009E1200E015C4E0E0258E3
:105D1000D8B08DEF2EF08FEF2EF090EF2EF05F6A5F
:105D20005F50120093809382C66AC56AC76A280EC4
:105D3000C66EC78E000E016E120E026E7A0E036ED4
:105D4000000E046E0EC012F00FC013F010C014F05D
:105D500011C015F0020ED8901236133614361536CF
:105D6000E82EABEF2EF012C005F013C006F014C001
:105D700007F015C008F016EC31F00104C86E1200EF
:105D8000D6EF2EF002C0F6FF03C0F7FFF86A070E49
:105D9000F76403D00800F55005D0F6CFE1FFF7CF48
:105DA000E2FFE75012EC2CF0024A032A02C0F6FF91
:105DB00003C0F7FFF86A070EF76403D00800F55038
:105DC00005D0F6CFE1FFF7CFE2FFE7500009D8A4F6
:105DD000ECEF2EF0EEEF2EF0C2EF2EF0120005EFFA
:105DE0002FF00FC0F6FF10C0F7FFF86A070EF76438
:105DF00003D00800F55005D0F6CFE1FFF7CFE2FF62
:105E0000E75098EC34F00F4A102A0FC0F6FF10C08C
:105E1000F7FFF86A070EF76403D00800F55005D0C5
:105E2000F6CFE1FFF7CFE2FFE7500009D8A41BEF60
:105E30002FF01DEF2FF0F1EF2EF0120003500410A1
:105E4000D8B425EF2FF027EF2FF04BEF2FF0010EF6
:105E5000056E2FEF2FF0D89003360436052A04AED6
:105E600034EF2FF036EF2FF02BEF2FF00350015CC3
:105E700004500258D8A03FEF2FF041EF2FF045EF2C
:105E80002FF00350015E0450025AD89004320332BE
:105E9000052E36EF2FF001C001F002C002F0120013
:105EA000000E096E000E0A6E000E0B6E000E0C6ED8
:105EB00001A05DEF2FF05FEF2FF067EF2FF005509F
:105EC000092606500A2207500B2208500C22D890AF
:105ED0000536063607360836D890043203320232C9
:105EE00001320150021003100410D8A47AEF2FF0F1
:105EF0007CEF2FF058EF2FF009C001F00AC002F03C
:105F00000BC003F00CC004F01200000E4F6E000E28
:105F1000506E000E516E000E526E000E00019B6F0F
:105F2000000E9C6F000E9D6F000E9E6F000E4B6E5C
:105F3000000E4C6E000E4D6E000E4E6E000E976FF2
:105F4000000E986F000E996F000E9A6F000E936FFF
:105F5000000E946F000E956F000E966F000E476E48
:105F6000000E486E000E496E000E4A6E566A000E14
:105F7000556E5C6A1200066A000E056E035004102E
:105F8000D8B4C5EF2FF0C7EF2FF0EFEF2FF0010ED1
:105F9000076ECFEF2FF0D89003360436072A04AEF1
:105FA000D4EF2FF0D6EF2FF0CBEF2FF0D8900536AF
:105FB00006360350015C04500258D8A0E2EF2FF0DF
:105FC000E4EF2FF0E9EF2FF00350015E0450025A86
:105FD0000580D89004320332072ED6EF2FF005C08B
:105FE00001F006C002F0120005500610071008105C
:105FF000D8B4FDEF2FF0FFEF2FF02FEF30F0010EB0
:10600000096E09EF30F0D8900536063607360836A7
:10601000092A08AE0EEF30F010EF30F003EF30F049
:106020000550015C065002580750035808500458A8
:10603000D8A01DEF30F01FEF30F027EF30F0055003
:10604000015E0650025A0750035A0850045AD8906D
:106050000832073206320532092E10EF30F001C047
:1060600001F002C002F003C003F004C004F012000B
:106070000B6EFCEC2BF0AE0E2AEC2CF00B502AEC45
:106080002CF0F1EC2BF0AF0E2AEC2CF00C6A74EF34
:1060900030F0FF0E0524066E076AFF0E07220C5033
:1060A000086E096A0650085C0950800A0A6E07509B
:1060B000800A0A58D8B05FEF30F061EF30F06BEF34
:1060C00030F004500C24D96EDA6A010E7BEC2DF00E
:1060D000DF6E73EF30F004500C24D96EDA6A000ED4
:1060E0007BEC2DF0DF6E0C2A05500C5CD8A07BEF0A
:1060F00030F07DEF30F049EF30F007EC2CF012007B
:10610000106A08500910D8A488EF30F08AEF30F0F8
:10611000ADEF30F0300E12EC2CF0C8EF30F0105034
:106120000A0FD96EDA6A08C001F009C002F0046AE9
:106130000A0E036E1EEC2FF00150300FDF6E08C008
:1061400001F009C002F0046A0A0E036EBBEC2FF0E6
:1061500001C008F002C009F0102A08500910D8A4A4
:10616000B4EF30F0B6EF30F08FEF30F0C0EF30F03A
:10617000100610500A0FD96EDA6ADF5012EC2CF0BC
:106180001050D8A4C6EF30F0C8EF30F0B8EF30F0C0
:10619000120015EC2DF00009D8A4D1EF30F0D3EFA8
:1061A00030F0D6EF30F0000E15EF31F0CC0E87EC6A
:1061B0002CF0BE0E87EC2CF056EC2DF0206E56EC39
:1061C0002DF0216E21501C6E20501E6E1CC01FF041
:1061D0001EC001F01FC002F0000E02BEFF0E036ED3
:1061E000046E710E056E020E066E000E076E000E36
:1061F000086E50EC2FF001C00DF002C00EF003C08D
:106200000FF004C010F0640E116E000E126E000E3E
:10621000136E000E146E13EC34F01B50D96EDA6A54
:106220000DC0DEFF0EC0DDFF010E1200000E096E74
:10623000000E0A6E000E0B6E000E0C6E055006105E
:1062400007100810D8B427EF31F029EF31F05FEFD5
:1062500031F0010E0D6E33EF31F0D8900536063671
:10626000073608360D2A08AE38EF31F03AEF31F034
:106270002DEF31F0D89009360A360B360C36055022
:10628000015C065002580750035808500458D8A023
:106290004CEF31F04EEF31F057EF31F00550015E29
:1062A0000650025A0750035A0850045A0980D890E1
:1062B00008320732063205320D2E3AEF31F009C0AE
:1062C00001F00AC002F00BC003F00CC004F0120091
:1062D000FF0EE7EC2CF0086E150E0818D8B473EF1B
:1062E00031F075EF31F078EF31F0000EBAEF31F0A8
:1062F000400E036E090E39EC2CF0020E076E040EF0
:10630000066EBA0EE82EFED7062EFCD7072EFAD759
:1063100000D0000E036E040E39EC2CF0000E036E5C
:10632000050E39EC2CF0000E036E060E39EC2CF045
:106330001F0E036E080E39EC2CF0030E036E090ECF
:1063400039EC2CF0270E036E0A0E39EC2CF0240EDB
:10635000036E0C0E39EC2CF0240E036E0D0E39EC8E
:106360002CF0000EE7EC2CF0010EE7EC2CF085ECA5
:106370002FF0010E1200066A02BEC3EF31F0C1EF2A
:1063800031F0C9EF31F0016C021ED8B0022A010EC3
:10639000066E04BED0EF31F0CEEF31F0D4EF31F025
:1063A000036C041ED8B0042A03500410D8B4DBEFE9
:1063B00031F0DDEF31F001EF32F0010E056EE5EF67
:1063C00031F0D89003360436052A04AEEAEF31F0F6
:1063D000ECEF31F0E1EF31F00350015C0450025872
:1063E000D8A0F5EF31F0F7EF31F0FBEF31F00350CB
:1063F000015E0450025AD89004320332052EECEFAD
:1064000031F00650D8B407EF32F009EF32F00DEF5B
:1064100032F0016C021ED8B0022A01C001F002C0A5
:1064200002F01200126A116A08500910D8A41BEF7A
:1064300032F01DEF32F048EF32F00A50D96EDA6ACE
:10644000300EDF6E0A50D96EDA6A010ED926DF6A85
:106450006CEF32F012500B0FD96EDA6A08C001F0FF
:1064600009C002F0046A0A0E036E1EEC2FF0015000
:10647000300FDF6E08C001F009C002F0046A0A0E96
:10648000036EBBEC2FF001C008F002C009F0122A25
:1064900008500910D8A44FEF32F051EF32F02AEF34
:1064A00032F05FEF32F0120612500B0FD96EDA6A3B
:1064B0000A501124E16EE26ADFCFE7FF112A125081
:1064C000D8A465EF32F067EF32F053EF32F00A50A4
:1064D0001124D96EDA6ADF6A1200066A04BE75EF0B
:1064E00032F073EF32F07BEF32F0036C041ED8B061
:1064F000042A010E066E02BE82EF32F080EF32F007
:1065000088EF32F0016C021ED8B0022A010E061A82
:10651000086A000E076E03500410D8B492EF32F0F0
:1065200094EF32F0BCEF32F0010E056E9CEF32F0CA
:10653000D89003360436052A04AEA1EF32F0A3EF5B
:1065400032F098EF32F0D890073608360350015CED
:1065500004500258D8A0AFEF32F0B1EF32F0B6EFEE
:1065600032F00350015E0450025A0780D890043282
:106570000332052EA3EF32F00650D8B4C2EF32F04A
:10658000C4EF32F0C8EF32F0076C081ED8B0082A0A
:1065900007C001F008C002F01200020E096E040EDE
:1065A000086EBA0EE82EFED7082EFCD7092EFAD7B1
:1065B00000D0AE0E48EC2CF0200E48EC2CF0020E71
:1065C00048EC2CF0B00E48EC2CF0C80E48EC2CF047
:1065D000000E48EC2CF0100E48EC2CF0400E48EC6D
:1065E0002CF0810E48EC2CF07F0E48EC2CF0A10E24
:1065F00048EC2CF0A60E48EC2CF0A80E48EC2CF041
:106600003F0E48EC2CF0A40E48EC2CF0D30E48ECD6
:106610002CF0000E48EC2CF0D50E48EC2CF0800E3F
:1066200048EC2CF0D90E48EC2CF0F10E48EC2CF094
:10663000DA0E48EC2CF0120E48EC2CF0DB0E48EC95
:106640002CF0400E48EC2CF08D0E48EC2CF0140E83
:1066500048EC2CF0AF0E48EC2CF0C6EC2DF01200FC
:10666000046E056A0404D8A438EF33F03AEF33F02F
:106670005AEF33F00104D8A440EF33F042EF33F087
:106680005AEF33F0035009E13C0E025CD8A04BEF07
:1066900033F04DEF33F058EF33F0035009E1650E5E
:1066A000025CD8A056EF33F058EF33F05AEF33F0D6
:1066B000010E056E0550D8B460EF33F062EF33F091
:1066C00094EF33F0B0EC2BF05850D8A46AEF33F0CD
:1066D0006CEF33F073EF33F0576A546A000E536E69
:1066E0008C989AEF33F0534A542A545009E1320EF1
:1066F000535CD8A07EEF33F080EF33F09AEF33F0A5
:10670000546A000E536E5750D8A489EF33F08BEFC4
:1067100033F090EF33F0010E576E8C889AEF33F020
:10672000576A8C989AEF33F0BEEC2BF0576A546A94
:10673000000E536E05C058F0055012001F6A1E6A05
:106740000E500F1010101110D8A4A9EF33F0ABEFBA
:1067500033F0ECEF33F01250D96EDA6A300EDF6EA0
:106760001250D96EDA6A010ED926DF6A12EF34F0C0
:106770001F50130FD96EDA6A0EC001F00FC002F07D
:1067800010C003F011C004F00A0E056E000E066E74
:10679000000E076E000E086EF4EC2FF00150300F63
:1067A000DF6E0EC001F00FC002F010C003F011C088
:1067B00004F00A0E056E000E066E000E076E000E47
:1067C000086E16EC31F001C00EF002C00FF003C0ED
:1067D00010F004C011F01F2A0E500F1010101110ED
:1067E000D8A4F5EF33F0F7EF33F0B8EF33F005EF5F
:1067F00034F01F061F50130FD96EDA6A12501E2490
:10680000E16EE26ADFCFE7FF1E2A1F50D8A40BEF2C
:1068100034F00DEF34F0F9EF33F012501E24D96E3E
:10682000DA6ADF6A1200166A14BE1BEF34F019EF41
:1068300034F025EF34F0141E131E121E116C000EDE
:10684000122213221422010E166E10BE2CEF34F009
:106850002AEF34F036EF34F0101E0F1E0E1E0D6CB2
:10686000000E0E220F221022010E161A000E176EB5
:10687000000E186E000E196E000E1A6E11501210D6
:1068800013101410D8B447EF34F049EF34F07FEF11
:1068900034F0010E156E53EF34F0D89011361236E5
:1068A00013361436152A14AE58EF34F05AEF34F07C
:1068B0004DEF34F0D8901736183619361A36115075
:1068C0000D5C12500E5813500F5814501058D8A089
:1068D0006CEF34F06EEF34F077EF34F011500D5E62
:1068E00012500E5A13500F5A1450105A1780D89045
:1068F0001432133212321132152E5AEF34F0165070
:10690000D8B485EF34F087EF34F08FEF34F01A1EEF
:10691000191E181E176C000E182219221A2217C0F1
:106920000DF018C00EF019C00FF01AC010F01200D0
:106930000C6E0A0E0C18D8A4A0EF34F0A2EF34F0BD
:10694000B6EF34F05E6A070E5D60A9EF34F0ABEF8E
:1069500034F0AEEF34F05D2AAFEF34F05D6A5DC025
:1069600004F05E50A0EC2DF01EEF35F00CC00EF0E0
:106970001F0E0E64BEEF34F0C0EF34F0C8EF34F0F9
:106980007F0E0E64C6EF34F0C8EF34F0CAEF34F077
:106990003F0E0E6E7A0E5E64D0EF34F0D2EF34F01C
:1069A000E4EF34F05E6A070E5D60D9EF34F0DBEFA0
:1069B00034F0DEEF34F05D2ADFEF34F05D6A5DC065
:1069C00004F05E50A0EC2DF0E00E0E24066E076A77
:1069D000FF0E0722050E0602F3CF08F0F4CF09F0F0
:1069E0000702F350092608C00AF009C00BF0DEECDC
:1069F0002BF00D6A250E066E7B0E076E0D500626D7
:106A0000000E07220A5006260B50072206C0F6FF8A
:106A100007C0F7FF0800F550CDEC2BF00D2A040E4F
:106A20000D6415EF35F017EF35F0FAEF34F0000E86
:106A3000CDEC2BF0C4EC2BF0060E5E261200236A80
:106A4000246A14BE28EF35F026EF35F03CEF35F020
:106A50001550D96EDA6A2D0EDF6E242A13C016F097
:106A600014C017F0161E171E164A172A16C020F05B
:106A700017C021F040EF35F013C020F014C021F012
:106A800020C001F021C002F0046A640E036EBBEC6A
:106A90002FF001C01EF002C01FF020C001F021C085
:106AA00002F0046A640E036E1EEC2FF00150226E99
:106AB0001EC008F01FC009F0180E0A6E12EC32F06A
:106AC0006EEF35F02350180FD96EDA6A1550242472
:106AD000E16EE26ADFCFE7FF232A242A2350180F52
:106AE000D96EDA6ADF50D8A478EF35F07AEF35F056
:106AF00062EF35F015502424D96EDA6A2E0EDF6E5F
:106B0000242A15502424D96EDA6A22C001F0026AC0
:106B1000046A0A0E036E6DEC32F00150300FDF6E26
:106B2000242A15502424D96EDA6A22C001F0026AA0
:106B3000046A0A0E036EBBEC31F00150300FDF6EB9
:106B4000242A15502424D96EDA6ADF6A12001F0E37
:106B5000046E060E056E070E38EC30F020C00FF004
:106B6000106A116A126A11C012F010C011F00FC041
:106B700010F00F6A1FC013F0146A156A166A14C069
:106B800016F013C015F0146A136A0F501310176E25
:106B900010501410186E11501510196E1250161056
:106BA0001A6E215017101B6E18501C6E19501D6E56
:106BB0001A501E6E0D50D96EDA6A1BC0DEFF1CC063
:106BC000DEFF1DC0DEFF1EC0DEFF23C00FF0106A17
:106BD000116A126A11C012F010C011F00FC010F04B
:106BE0000F6A22C013F0146A156A166A14C016F0F0
:106BF00013C015F0146A136A0F501310176E10505B
:106C00001410186E11501510196E125016101A6EBD
:106C1000245017101B6E18501C6E19501D6E1A5000
:106C20001E6E0E50D96EDA6A1BC0DEFF1CC0DEFF7E
:106C30001DC0DEFF1EC0DEFF0D50D96EDA6AFF0EEA
:106C4000DE16FF0EDE16030EDE16000EDE160E50EA
:106C5000D96EDA6AFF0EDE16FF0EDE16030EDE16A2
:106C6000000EDE1612003B6EC6EC2DF0000E046E18
:106C70000A0EA0EC2DF0200E0F6E7F0E106EEFECC2
:106C80002EF0020E046E0A0EA0EC2DF03B50D8A49C
:106C90004CEF36F04EEF36F056EF36F04B0E0F6EEF
:106CA0007F0E106EEFEC2EF07FEF36F02950D8A457
:106CB0005CEF36F05EEF36F066EF36F0110E0F6ED9
:106CC0007F0E106EEFEC2EF07FEF36F0F10E0F6EB0
:106CD0007F0E106EEFEC2EF02AC008F02BC009F0EA
:106CE0002F0E0A6E12EC32F02F0E0F6E106AEFECC0
:106CF0002EF0910E0F6E7F0E106EEFEC2EF0040E44
:106D0000046E0A0EA0EC2DF03B50D8A48AEF36F0AA
:106D10008CEF36F094EF36F0E30E0F6E7E0E106EB1
:106D2000EFEC2EF0CDEF36F02550D8A49AEF36F0E8
:106D30009CEF36F0A4EF36F03D0E0F6E7F0E106E16
:106D4000EFEC2EF0CDEF36F02650D8A4AAEF36F0B7
:106D5000ACEF36F0B4EF36F0E30E0F6E7E0E106E31
:106D6000EFEC2EF0CDEF36F0E70E0F6E7F0E106ECB
:106D7000EFEC2EF027C013F028C014F02F0E156E84
:106D80001FEC35F02F0E0F6E106AEFEC2EF0F80EA0
:106D90000F6E7F0E106EEFEC2EF0060E046E0A0ED4
:106DA000A0EC2DF02E50D8B4D8EF36F0DAEF36F054
:106DB000E2EF36F08A0E0F6E7F0E106EEFEC2EF0C3
:106DC00008EF37F02D50D8B4E8EF36F0EAEF36F0A0
:106DD000F2EF36F0D30E0F6E7E0E106EEFEC2EF04B
:106DE00008EF37F02C50D8B4F8EF36F0FAEF36F061
:106DF00002EF37F07E0E0F6E7F0E106EEFEC2EF06E
:106E000008EF37F0590E0F6E7F0E106EEFEC2EF07C
:106E1000120025C008F026C009F080EC30F0CF0E3B
:106E2000026E7F0E036EC0EC2EF02750D8A41BEF2D
:106E300037F01DEF37F02BEF37F02F0E026E7F0E7D
:106E4000036EC0EC2EF0D90E026E7F0E036EC0EC06
:106E50002EF053EF37F02C50D8A431EF37F033EF4A
:106E600037F041EF37F0A10E026E7F0E036EC0ECDB
:106E70002EF0660E026E7F0E036EC0EC2EF053EF06
:106E800037F0A10E026E7F0E036EC0EC2EF02DC007
:106E900008F02EC009F080EC30F0DB0E026E7F0EA1
:106EA000036EC0EC2EF02750D8A459EF37F05BEFFB
:106EB00037F069EF37F02F0E026E7F0E036EC0ECD5
:106EC0002EF0E10E026E7F0E036EC0EC2EF0AEEFE0
:106ED00037F02850D8A46FEF37F071EF37F07FEF1D
:106EE00037F0A10E026E7F0E036EC0EC2EF0B70ECF
:106EF000026E7F0E036EC0EC2EF0AEEF37F029501D
:106F0000D8A485EF37F087EF37F095EF37F02F0EE5
:106F1000026E7F0E036EC0EC2EF0E10E026E7F0E4D
:106F2000036EC0EC2EF0AEEF37F0A10E026E7F0EB6
:106F3000036EC0EC2EF02AC013F02BC014F03A0EF2
:106F4000156E1FEC35F03A0E026E036AC0EC2EF09F
:106F5000E30E026E7F0E036EC0EC2EF02FC00EF01B
:106F600030C00FF031C010F032C011F03A0E126E86
:106F70009EEC33F03A0E026E036AC0EC2EF0CF0E98
:106F8000026E7F0E036EC0EC2EF033C00EF034C0E4
:106F90000FF035C010F036C011F03A0E126E9EECB4
:106FA00033F03A0E026E036AC0EC2EF0CF0E026E82
:106FB0007F0E036EC0EC2EF03750D8B4E2EF37F0FE
:106FC000E4EF37F0ECEF37F0ED0E026E7F0E036E5C
:106FD000C0EC2EF0F2EF37F0C90E026E7F0E036E9A
:106FE000C0EC2EF03850D8B4F8EF37F0FAEF37F0A5
:106FF00002EF38F0960E026E7F0E036EC0EC2EF09C
:1070000008EF38F0D10E026E7F0E036EC0EC2EF04A
:107010003950D8B40EEF38F010EF38F018EF38F0E0
:10702000C20E046E7F0E056E1DEC2CF01EEF38F0C4
:10703000C00E046E7F0E056E1DEC2CF012001E506B
:107040001D1009E1200E1B5C4E0E1C58D8B02BEF12
:1070500038F02DEF38F032EF38F085EC2FF0000EDD
:1070600078EF3AF0010E00019327000E9423952348
:1070700096234F50501051105210D8A442EF38F0C0
:1070800044EF38F05EEF38F01BC04FF01CC050F0FA
:107090001DC051F01EC052F0000E9B6F000E9C6F81
:1070A000000E9D6F000E9E6F000E4B6E000E4C6E1C
:1070B000000E4D6E000E4E6E2FEF38F04FC001F0F7
:1070C00050C002F051C003F052C004F01F0E056E14
:1070D000000E066E000E076E000E086E50EC2FF0CC
:1070E0001B5001240D6E1C5002200E6E1D500320FB
:1070F0000F6E1E500420106E200E116E000E126EC8
:10710000000E136E000E146E13EC34F00DC04FF031
:107110000EC050F00FC051F010C052F04F501B5C29
:10712000386E50501C58396E51501D583A6E52509E
:107130001E583B6E3BBEA1EF38F09FEF38F0BCEF1E
:1071400038F038C020F039C021F03AC022F03BC0FE
:1071500023F0201E211E221E231E202A000E212283
:107160002222232220C024F021C025F022C026F0B4
:1071700023C027F0C4EF38F038C024F039C025F020
:107180003AC026F03BC027F097C001F098C002F04B
:1071900099C003F09AC004F00F0E056E000E066E43
:1071A000000E076E000E086E50EC2FF024500124E4
:1071B000206E25500220216E26500320226E27507B
:1071C0000420236E050EEAEF38F0D89023322232E5
:1071D00021322032E82EE5EF38F020C097F021C0B0
:1071E00098F022C099F023C09AF097C020F098C080
:1071F00021F099C022F09AC023F0D8902332223295
:107200002132203220C028F021C029F022C02AF0EB
:1072100023C02BF02B502A10291007E1500E285CB8
:10722000D8B015EF39F017EF39F01FEF39F0500EE5
:10723000286E000E296E000E2A6E000E2B6E0001C5
:1072400096519511941107E1320E935DD8B02BEF52
:1072500039F02DEF39F03FEF39F04BC09BF04CC0C7
:107260009CF04DC09DF04EC09EF038C04BF039C030
:107270004CF03AC04DF03BC04EF02FEF38F04B5081
:107280009B5D4C509C594D509D599E51800A206EDB
:107290004E50800A2058D8B050EF39F052EF39F0F4
:1072A00058EF3AF04B50385C4C5039584D503A58E2
:1072B0003B50800A206E4E50800A2058D8B063EFB1
:1072C00039F065EF39F058EF3AF04B50285C4C50EC
:1072D00029584D502A582B50800A206E4E50800A53
:1072E0002058D8B076EF39F078EF39F058EF3AF00F
:1072F000FF0E93252C6EFF0E94212D6EFF0E95210F
:107300002E6EFF0E96212F6E4750481049104A10DE
:10731000D8B48DEF39F08FEF39F0A8EF39F047503E
:107320002C5C206E48502D58216E49502E58226EEC
:107330004A502F58236E23502210211009E1280EA5
:10734000205CD8A0A6EF39F0A8EF39F058EF3AF05A
:107350004750481049104A10D8B4B1EF39F0B3EF94
:1073600039F050EF3AF047502C5C306E48502D58B1
:10737000316E49502E58326E4A502F58336E33506A
:107380003210311009E12E0E305CD8A0CAEF39F06E
:10739000CCEF39F050EF3AF033503210311007E1B2
:1073A000860E305CD8B0D7EF39F0D9EF39F050EF16
:1073B0003AF0700E016E170E026E000E036E000E94
:1073C000046E30C005F031C006F032C007F033C0A3
:1073D00008F016EC31F001C034F002C035F003C003
:1073E00036F004C037F037503610351009E12D0E55
:1073F000345CD8A0FEEF39F000EF3AF050EF3AF0ED
:1074000037503610351007E1830E345CD8B00BEFDF
:107410003AF00DEF3AF050EF3AF055505610D8A42C
:1074200014EF3AF016EF3AF01CEF3AF034C055F092
:1074300035C056F047EF3AF055C001F056C002F0A3
:10744000036A046A030E056E000E066E000E076ED8
:10745000000E086E50EC2FF034500124206E355091
:107460000220216E36500320226E37500420236EF6
:10747000030E40EF3AF0D8902332223221322032EC
:10748000E82E3BEF3AF020C055F021C056F00A0E2E
:107490005C604DEF3AF04FEF3AF050EF3AF05C2A73
:1074A0002CC047F02DC048F02EC049F02FC04AF044
:1074B0004BC09BF04CC09CF04DC09DF04EC09EF068
:1074C00038C04BF039C04CF03AC04DF03BC04EF0E4
:1074D0005C50D8B46EEF3AF070EF3AF02FEF38F01E
:1074E0001F50D96EDA6A55C0DEFF56C0DDFF010EAF
:1074F0001200000E00017B6F000E7C6F000E7D6F8E
:10750000000E7E6F000E876F000E886F000E896F71
:10751000000E8A6F6E6B8C6B000E8B6F8E6B000E85
:107520008D6F8F6B806B816B706B000E6F6F906BCC
:10753000926B736B696B000E686F000E606F000ECC
:10754000616F000E626F000E636F000E646F000EBD
:10755000656F000E666F000E676F856B776B786BDB
:10756000756B000E746F866B846B000E836F796B86
:10757000726B000E716F6B6B000E6A6F6D6B000E9D
:107580006C6FECEC2DF068EC31F00001766F765109
:10759000D8A4CDEF3AF0CFEF3AF006EF3BF0B4ECE1
:1075A0002BF0B8EC2BF0BEEC2BF0C6EC2DF0000E5F
:1075B000046E0A0EA0EC2DF0F30E0F6E7E0E106E10
:1075C000EFEC2EF0020E046E0A0EA0EC2DF0AC0EC5
:1075D0000F6E7F0E106EEFEC2EF0040E046E0A0E8E
:1075E000A0EC2DF0720E0F6E7F0E106EEFEC2EF0F1
:1075F0005D0E046E7E0E056E1DEC2CF07A0E046E90
:107600007E0E056E1DEC2CF004EF3BF0C20E046EF6
:107610007E0E056E1DEC2CF03C0E046E7E0E056E8B
:107620001DEC2CF0F20E046E7D0E056E1DEC2CF0A0
:10763000BFEC2CF0C6EC2DF0000E046E0A0EA0EC90
:107640002DF0200E0F6E7F0E106EEFEC2EF0020E5E
:10765000046E0A0EA0EC2DF0020E0F6E7F0E106E5F
:10766000EFEC2EF0BAEC2BF0BEEC2BF07B0E0D6E97
:10767000870E0E6EA7EC35F087C001F088C002F0CF
:1076800089C003F08AC004F067EC2EF00001916F0E
:10769000915166EC2CF000019105D8A452EF3BF01B
:1076A00054EF3BF088EF3BF06E51D8A45AEF3BF01B
:1076B0005CEF3BF088EF3BF085EC2FF000018C6B2A
:1076C000000E8B6F8E6B000E8D6F8F6B706B000ECC
:1076D0006F6FD2EC2CF00001816F8151D8B473EF41
:1076E0003BF075EF3BF079EF3BF0010E806F7AEFE6
:1076F0003BF0806BD00E046E7F0E056E1DEC2CF0FF
:10770000190E046E7E0E056E1DEC2CF0BFEC2CF0F5
:1077100000019151D8A48FEF3BF091EF3BF0A3EF24
:107720003BF08C6B000E8B6F826B8E6B000E8D6F3F
:107730008F6B7F6B816B706B000E6F6F806B85EC56
:107740002FF0FBEF3BF087C01BF088C01CF089C016
:107750001DF08AC01EF08B0E1F6E1FEC38F000016A
:10776000826F8151D8B4B7EF3BF0B9EF3BF0DFEF58
:107770003BF06F4B702B705109E1500E6F5DD8A03C
:10778000C4EF3BF0C6EF3BF0F2EF3BF08D0E1B6E0B
:10779000C9EC30F000018F6F8F51D8B4D2EF3BF0BD
:1077A000D4EF3BF0D8EF3BF0010E806FD9EF3BF008
:1077B000806B816B706B000E6F6FF2EF3BF0D2EC61
:1077C0002CF00001816F8151D8B4E9EF3BF0EBEF71
:1077D0003BF0EFEF3BF0010E806FDAEF3BF0806B98
:1077E000DAEF3BF08DC001F08EC002F08F513DEC1E
:1077F0002EF000017F6F00017605D8A402EF3CF067
:1078000004EF3CF010EF3CF08005D8A40AEF3CF008
:107810000CEF3CF010EF3CF0010E7A6F11EF3CF0F2
:107820007A6B80C001F07651FDEC2CF092C073F0C1
:1078300014EC2EF00001926F9205D8A422EF3CF0D8
:1078400024EF3CF087EF3CF07351D8A42AEF3CF0D2
:107850002CEF3CF087EF3CF071C068F072C069F02B
:107860007BC060F07CC061F07DC062F07EC063F0E0
:1078700087C064F088C065F089C066F08AC067F090
:1078800091C085F08FC077F07FC078F08DC074F024
:107890008EC075F082C086F08BC083F08CC084F0FF
:1078A0007AC079F0D00E046E7F0E056E1DEC2CF0C0
:1078B000950E046E7E0E056E1DEC2CF0BD0E046E52
:1078C0007D0E056E1DEC2CF086C001F083C002F029
:1078D00084C003F00001855130EC33F00001906F5B
:1078E00077C025F078C026F074C027F075C028F066
:1078F00086C029F083C02AF084C02BF079C02CF018
:1079000092C02DF090C02EF0855133EC36F000017E
:107910009251D8A48EEF3CF090EF3CF0A6EF3CF0F3
:107920007305D8A496EF3CF098EF3CF0A6EF3CF03E
:10793000D00E046E7F0E056E1DEC2CF0AD0E046EA5
:107940007E0E056E1DEC2CF0BFEC2CF00001925168
:10795000D8A4ADEF3CF0AFEF3CF0BCEF3CF082C000
:1079600001F08BC002F08CC003F0915130EC33F089
:107970000001906FC7EF3CF086C001F083C002F0B9
:1079800084C003F0855130EC33F00001906F6C4BF4
:107990006D2B6D5109E1640E6C5DD8A0D2EF3CF007
:1079A000D4EF3CF03BEF3DF06D6B000E6C6F9251ED
:1079B000D8A4DDEF3CF0DFEF3CF00FEF3DF0714B72
:1079C000722B71C025F072C026F091C027F08FC0D5
:1079D00028F07FC029F08DC02AF08EC02BF082C025
:1079E0002CF08BC02DF08CC02EF07BC02FF07CC013
:1079F00030F07DC031F07EC032F087C033F088C0F7
:107A000034F089C035F08AC036F07AC037F092C0C1
:107A100038F090C039F009EC37F03BEF3DF068C02A
:107A200025F069C026F085C027F077C028F078C01F
:107A300029F074C02AF075C02BF086C02CF083C0EA
:107A40002DF084C02EF060C02FF061C030F062C015
:107A500031F063C032F064C033F065C034F066C00A
:107A600035F067C036F079C037F092C038F090C07A
:107A700039F009EC37F000016A4B6B2B6B5109E1CF
:107A8000640E6A5DD8A047EF3DF049EF3DF084EF0A
:107A90003DF06B6B000E6A6F9251D8A452EF3DF02F
:107AA00054EF3DF06DEF3DF08FC025F07FC026F024
:107AB0008DC027F08EC028F082C029F08BC02AF03C
:107AC0008CC02BF07AC02CF092C02DF090C02EF01C
:107AD000915133EC36F084EF3DF077C025F078C05B
:107AE00026F074C027F075C028F086C029F083C046
:107AF0002AF084C02BF079C02CF092C02DF090C0F9
:107B00002EF0855133EC36F091C06EF01A0E466EB1
:107B1000F80EE82EFED7462EFCD700D036EF3BF00D
:107B2000FEEF3FF000000000000000005F000000DA
:107B300007000700147F147F14242A7F2A122313BE
:107B400008646236495522500005030000001C22DB
:107B500041000041221C0014083E081408083E0899
:107B600008005030000008080808080060600000A5
:107B700020100804023E5149453E00427F40004229
:107B8000615149462141454B311814127F10274558
:107B90004545393C4A49493001710905033649498F
:107BA0004936064949291E0036360000005636007F
:107BB0000008142241001414141414004122140863
:107BC0000201510906324979413E7E1111117E7F31
:107BD000494949363E414141227F4141221C7F496A
:107BE0004949417F090909013E4149497A7F08080D
:107BF000087F00417F41002040413F017F0814225F
:107C0000417F404040407F020C027F7F0408107F8C
:107C10003E4141413E7F090909063E4151215E7FB7
:107C200009192946464949493101017F01013F406F
:107C300040403F1F2040201F7F2018207F631408F2
:107C4000146307087008076151494543007F4141AB
:107C50000002040810200041417F000402010204D8
:107C60004040404040000102040020545454787FBA
:107C7000484444383844444420384444487F3854C5
:107C8000545418087E0901020C5252523E7F0804D7
:107C9000047800447D40002040443D007F1028448B
:107CA0000000417F40007C041804787C08040478BC
:107CB00038444444387C14141408081414187C7C88
:107CC000080404084854545420043F4440203C40D5
:107CD00040207C1C2040201C3C4030403C4428106C
:107CE00028440C5050503C4464544C4400083641E5
:107CF0000000007F0000004136080008082A1C0828
:107D000000000000002D2D2D2D2D2D2D2D2D2D2D84
:107D10002D2D2D2D2D2D2D2D2D2D2D2D2D2D2D2D93
:107D20002D2D2D2D2D2D2D2D2D2D2D2D2D2D2D2D83
:107D30002D2D2D2D2D2D2D2D2D2D2D2D2D2D2D2D73
:107D40002D2D2D2D2D2D2D2D2D2D2D2D2D2D2D2D63
:107D50002D2D2D2D2D2D2D2D2D2D2D2D2D2D2D2D53
:107D60002D2D2D2D2D2D2D2D2D2D2D004D7565738A
:107D70007472610946435F45737461646F094643D9
:107D80005F56616C6F720954656D705F4573746105
:107D9000646F0954656D705F56616C6F720952456E
:107DA000440949520953697374656D61094D6F64E3
:107DB0006F09416C61726D615F42504D004C6F7391
:107DC0002076616C6F726573206465204F4C45446A
:107DD0002C20554152542C2062757A7A6572207994
:107DE000204C45442071756564616E2066696A6F38
:107DF00073004573706572616E646F206465646FB3
:107E000020706172612061637469766172206D65B2
:107E1000646963696F6E6573004465646F206465AF
:107E20007465637461646F202D206D656469636996
:107E30006F6E206163746976616461004D415833EF
:107E4000303130322064657465637461646F20631F
:107E50006F7272656374616D656E74650045525230
:107E60004F523A204D41583330313032206E6F201E
:107E700064657465637461646F00526576697365E7
:107E8000205643432C20474E442C20534441207914
:107E90002053434C004D4F444F20434F4E47454CD9
:107EA00041444F20414354495641444F004D4F44B3
:107EB0004F204E4F524D414C20414354495641446E
:107EC0004F0053697374656D6120696E6963696100
:107ED000646F004D6F646F3A20434F4E47454C41ED
:107EE000444F0054656D703A204E6F206465746590
:107EF0006374004D41583330313032204552524F77
:107F000052004573706572616E646F206465646FC2
:107F10000046433A2043616C63756C616E646F0088
:107F20005369676E6F7320566974616C6573004E98
:107F30006F2064657465637461646F090054656DD6
:107F4000703A204C6579656E646F0046433A204E66
:107F50006F206465746563740053697374656D6143
:107F60003A204553500043616C63756C616E646FD9
:107F700009005344412053434C2056434300536966
:107F80007374656D613A204F4B00414C455254412A
:107F90003A2042504D00434F4E47454C41444F0913
:107FA0000044657465637461646F090052657669A5
:107FB000736520493243004C6579656E646F090032
:107FC000494E414354495641004553504552410999
:107FD000004E4F524D414C09002D2D2042504D096D
:107FE000002D2D2043090054656D703A004F4B0958
:107FF0000046433A000D0A002043000076EF2CF0C3
:020000040030CA
:0E0000000008181EFF8181FF0FC00FE00F40A7
:00000001FF
