:04000000FEEF3FF0E0
:107A30003BEC3DF01200036E03506EEC3DF0120083
:107A4000146A136A000EF86E0001A3EF3DF030ECEB
:107A50003DF0780E6EEC3DF0400E6EEC3DF0120005
:107A600090EC3DF0C580C5B038EF3DF03AEF3DF009
:107A700033EF3DF0120090EC3DF0C584C5B443EF08
:107A80003DF045EF3DF03EEF3DF0120093809382D4
:107A9000800EC76E280EC66EC56A770EC86E9E969B
:107AA0001200F7EC3DF0030E046E080ED1EC3DF031
:107AB000EF0E0F6E7F0E106EB6EC3DF01200036EEF
:107AC00030EC3DF0780E6EEC3DF0000E6EEC3DF0CB
:107AD00003506EEC3DF03BEC3DF01200026E90EC7A
:107AE0003DF09E9602C0C9FF9EA679EF3DF07BEF68
:107AF0003DF074EF3DF09E96C5501200720ED36EAD
:107B0000070EB46EB56AA00E016E860E026E010EEF
:107B1000036E000E046E46EC3DF01DEC3EF01200CC
:107B2000C5CF01F01F0E0116D8A499EF3DF09BEFD1
:107B30003DF090EF3DF0C7B4A0EF3DF0A2EF3DF077
:107B400090EF3DF012007EEC3DF051EC3DF00B0E5D
:107B5000126E260E116E5E0EE82EFED7112EFCD789
:107B6000122EFAD7A7EF3DF0FEEF3FF0C2EF3DF047
:107B70000FC0F6FF10C0F7FF0800F55080EC3EF094
:107B80000F4A102A0FC0F6FF10C0F7FF0800F5508B
:107B90000009D8A4CEEF3DF0D0EF3DF0B8EF3DF0B6
:107BA0001200056E7F0E0564D8EF3DF0DAEF3DF070
:107BB000DBEF3DF0056A070E0464E1EF3DF0E3EF13
:107BC0003DF0E4EF3DF0046A05C014F004C013F08A
:107BD0000450B00F5FEC3DF005500F0B5FEC3DF033
:107BE00005380F0B0F0B100F5FEC3DF01200076A0A
:107BF00007C004F0000ED1EC3DF027EC3DF0066A22
:107C0000000E1BEC3DF0062A7F0E06640AEF3EF0E4
:107C10000CEF3EF000EF3EF018EC3DF0072A070EA7
:107C2000076415EF3EF017EF3EF0F8EF3DF0000E61
:107C3000046E000ED1EC3DF01200020E096E040E2F
:107C4000086EBA0EE82EFED7082EFCD7092EFAD7FA
:107C500000D0AE0E5FEC3DF0200E5FEC3DF0020E6A
:107C60005FEC3DF0B00E5FEC3DF0C80E5FEC3DF018
:107C7000000E5FEC3DF0100E5FEC3DF0400E5FEC4F
:107C80003DF0810E5FEC3DF07F0E5FEC3DF0A10E0C
:107C90005FEC3DF0A60E5FEC3DF0A80E5FEC3DF012
:107CA0003F0E5FEC3DF0A40E5FEC3DF0D30E5FECB9
:107CB0003DF0000E5FEC3DF0D50E5FEC3DF0800E28
:107CC0005FEC3DF0D90E5FEC3DF0F10E5FEC3DF066
:107CD000DA0E5FEC3DF0120E5FEC3DF0DB0E5FEC78
:107CE0003DF0400E5FEC3DF08D0E5FEC3DF0140E6C
:107CF0005FEC3DF0AF0E5FEC3DF0F7EC3DF01200B5
:107D00000C6E0A0E0C18D8A488EF3EF08AEF3EF0F5
:107D10009EEF3EF0146A070E136091EF3EF093EF72
:107D20003EF096EF3EF0132A97EF3EF0136A13C031
:107D300004F01450D1EC3DF006EF3FF00CC00EF013
:107D40001F0E0E64A6EF3EF0A8EF3EF0B0EF3EF03F
:107D50007F0E0E64AEEF3EF0B0EF3EF0B2EF3EF0BD
:107D60003F0E0E6E7A0E1464B8EF3EF0BAEF3EF09E
:107D7000CCEF3EF0146A070E1360C1EF3EF0C3EF84
:107D80003EF0C6EF3EF0132AC7EF3EF0136A13C071
:107D900004F01450D1EC3DF0E00E0E24066E076A9C
:107DA000FF0E0722050E0602F3CF08F0F4CF09F00C
:107DB0000702F350092608C00AF009C00BF027ECAF
:107DC0003DF00D6A0F0E066E7E0E076E0D500626F4
:107DD000000E07220A5006260B50072206C0F6FFA7
:107DE00007C0F7FF0800F5501BEC3DF00D2A040E0C
:107DF0000D64FDEF3EF0FFEF3EF0E2EF3EF0000ECF
:107E00001BEC3DF018EC3DF0060E142612000000AD
:107E10000000000000005F00000007000700147F62
:107E2000147F14242A7F2A122313086462364955CA
:107E300022500005030000001C2241000041221CCA
:107E40000014083E081408083E08080050300000DE
:107E50000808080808006060000020100804023EBE
:107E60005149453E00427F4000426151494621410F
:107E7000454B311814127F1027454545393C4A4976
:107E800049300171090503364949493606494929EE
:107E90001E0036360000005636000008142241004D
:107EA000141414141400412214080201510906325A
:107EB0004979413E7E1111117E7F494949363E4143
:107EC0004141227F4141221C7F494949417F0909A3
:107ED00009013E4149497A7F0808087F00417F41F6
:107EE000002040413F017F081422417F4040404034
:107EF0007F020C027F7F0408107F3E4141413E7F9C
:107F0000090909063E4151215E7F09192946464962
:107F100049493101017F01013F4040403F1F20405E
:107F2000201F7F2018207F6314081463070870083F
:107F3000076151494543007F414100020408102078
:107F40000041417F000402010204404040404000E3
:107F50000102040020545454787F48444438384483
:107F6000444420384444487F3854545418087E0907
:107F700001020C5252523E7F0804047800447D40B6
:107F8000002040443D007F1028440000417F400015
:107F90007C041804787C0804047838444444387C11
:107FA00014141408081414187C7C08040408485499
:107FB000545420043F4440203C4040207C1C20403E
:107FC000201C3C4030403C44281028440C50505069
:107FD0003C4464544C44000836410000007F0000DB
:107FE000004136080008082A1C0800000000007044
:0B7FF00072616374696361203300005C
:047FFC0020EF3DF045
:020000040030CA
:0E0000000008181EFF8181FF0FC00FE00F40A7
:00000001FF
