:04000000FEEF3FF0E0
:106DAA008C8212008C9412008C8012008C92120039
:106DBA008C84120014EC37F01200036E035037EC87
:106DCA0037F012009590959295948C908C928C94B1
:106DDA001200476A466A000EF86E000143EF3DF062
:106DEA0009EC37F0780E37EC37F0400E37EC37F015
:106DFA00120073EC37F0C582C5B206EF37F008EF20
:106E0A0037F001EF37F0120073EC37F0C580C5B0E8
:106E1A0011EF37F013EF37F00CEF37F0120073EC85
:106E2A0037F0C584C5B41CEF37F01EEF37F017EF03
:106E3A0037F01200016E9EA825EF37F027EF37F0E2
:106E4A0020EF37F001C0ADFF120004C002F005C008
:106E5A0003F078EC38F0F60E026E7F0E036E78ECD3
:106E6A0038F01200026E73EC37F002C0C9FF9EA61A
:106E7A0041EF37F043EF37F03CEF37F09E96C550BD
:106E8A001200046E09EC37F0AE0E37EC37F00450FE
:106E9A0037EC37F0035037EC37F014EC37F01200C8
:106EAA00036E09EC37F0780E37EC37F0000E37EC4A
:106EBA0037F0035037EC37F014EC37F01200949C9B
:106ECA00948EAC6AAB6AB86AAC98AC84B886B06A7D
:106EDA00CF0EAF6EAB8EAC8AAB881200C5CF01F075
:106EEA001F0E0116D8A47CEF37F07EEF37F073EF50
:106EFA0037F0C7B483EF37F085EF37F073EF37F029
:106F0A001200FA0E046E7F0E056E2AEC37F07B0E25
:106F1A00046E7F0E056E2AEC37F0D70E046E7E0ED5
:106F2A00056E2AEC37F01200046E09EC37F0AE0E4B
:106F3A0037EC37F0045037EC37F0FEEC36F0AF0E92
:106F4A0037EC37F0000EAFEC37F0056E14EC37F083
:106F5A0005501200026E73EC37F0C586C7A0B8EF71
:106F6A0037F0BAEF37F0B3EF37F0C9CF03F073EC6D
:106F7A0037F00250D8B4C4EF37F0C6EF37F0C9EF94
:106F8A0037F0C59ACAEF37F0C58AC588C5B8D0EFB9
:106F9A0037F0D2EF37F0CBEF37F003501200056E1F
:106FAA007F0E0564DBEF37F0DDEF37F0DEEF37F009
:106FBA00056A070E0464E4EF37F0E6EF37F0E7EF0F
:106FCA0037F0046A05C047F004C046F00450B00F19
:106FDA0055EC37F005500F0B55EC37F005380F0B11
:106FEA000F0B100F55EC37F01200076A07C004F0B8
:106FFA00000ED4EC37F0F5EC36F0066A000EE2EC3F
:10700A0036F0062A7F0E06640DEF38F00FEF38F0DF
:10701A0003EF38F0DFEC36F0072A070E076418EFA3
:10702A0038F01AEF38F0FBEF37F0000E046E000E5E
:10703A00D4EC37F01200720ED36E0F0EC16E070E2B
:10704A00B46EB56A896A8A6A8B6A8C6A8D6A926832
:10705A009368946895689668E7EC36F0D9EC36F050
:10706A00DBEC36F0DDEC36F064EC37F0A00E0E6E99
:10707A00860E0F6E010E106E000E116E4AEC38F07D
:10708A0058EC3BF0FAEC37F0120093809382C66A10
:10709A00C56AC76A280EC66EC78E000E016E120E2A
:1070AA00026E7A0E036E000E046E0EC012F00FC04E
:1070BA0013F010C014F011C015F0020ED890123659
:1070CA00133614361536E82E63EF38F012C005F081
:1070DA0013C006F014C007F015C008F0ABEC3AF084
:1070EA000104C86E12008EEF38F002C0F6FF03C02A
:1070FA00F7FFF86A070EF76403D00800F55005D0C9
:10710A00F6CFE9FFF7CFEAFFEF501FEC37F0024A5C
:10711A00032A02C0F6FF03C0F7FFF86A070EF764F6
:10712A0003D00800F55005D0F6CFE9FFF7CFEAFF04
:10713A00EF500009D8A4A4EF38F0A6EF38F07AEFA0
:10714A0038F01200BDEF38F00FC0F6FF10C0F7FF9D
:10715A00F86A070EF76403D00800F55005D0F6CF99
:10716A00E9FFF7CFEAFFEF5030EC3CF00F4A102A64
:10717A000FC0F6FF10C0F7FFF86A070EF76403D0D6
:10718A000800F55005D0F6CFE9FFF7CFEAFFEF5038
:10719A000009D8A4D3EF38F0D5EF38F0A9EF38F0CA
:1071AA00120003500410D8B4DDEF38F0DFEF38F0E6
:1071BA0003EF39F0010E056EE7EF38F0D890033689
:1071CA000436052A04AEECEF38F0EEEF38F0E3EFC0
:1071DA0038F00350015C04500258D8A0F7EF38F099
:1071EA00F9EF38F0FDEF38F00350015E0450025A0F
:1071FA00D89004320332052EEEEF38F001C001F0C8
:10720A0002C002F01200066A000E056E0350041056
:10721A00D8B412EF39F014EF39F03CEF39F0010E1F
:10722A00076E1CEF39F0D89003360436072A04AEED
:10723A0021EF39F023EF39F018EF39F0D8900536FD
:10724A0006360350015C04500258D8A02FEF39F0DB
:10725A0031EF39F036EF39F00350015E0450025A2B
:10726A000580D89004320332072E23EF39F005C087
:10727A0001F006C002F0120020C008F021C009F097
:10728A002A0E0A6EFDEC3AF02A0E026E036A78ECB8
:10729A0038F0F90E026E7F0E036E78EC38F022C0D9
:1072AA000EF023C00FF024C010F025C011F02A0EF2
:1072BA00126EBBEC3BF02A0E026E036A78EC38F0D1
:1072CA00F90E026E7F0E036E78EC38F026C00EF0CF
:1072DA0027C00FF028C010F029C011F02A0E126E34
:1072EA00BBEC3BF02A0E046E056A2AEC37F012005A
:1072FA000550061007100810D8B486EF39F088EF49
:10730A0039F0B8EF39F0010E096E92EF39F0D890E2
:10731A000536063607360836092A08AE97EF39F0D9
:10732A0099EF39F08CEF39F00550015C065002589C
:10733A000750035808500458D8A0A6EF39F0A8EF10
:10734A0039F0B0EF39F00550015E0650025A075085
:10735A00035A0850045AD8900832073206320532C6
:10736A00092E99EF39F001C001F002C002F003C002
:10737A0003F004C004F012000B6E09EC37F0AE0EF5
:10738A0037EC37F00B5037EC37F0FEEC36F0AF0E37
:10739A0037EC37F00C6AFDEF39F0FF0E0524066E64
:1073AA00076AFF0E07220C50086E096A0650085C2D
:1073BA000950800A0A6E0750800A0A58D8B0E8EFC6
:1073CA0039F0EAEF39F0F4EF39F004500C24D96EB1
:1073DA00DA6A010EAFEC37F0DF6EFCEF39F00450D9
:1073EA000C24D96EDA6A000EAFEC37F0DF6E0C2A85
:1073FA0005500C5CD8A004EF3AF006EF3AF0D2EF51
:10740A0039F014EC37F01200FF0E99EC37F0086EE1
:10741A00150E0818D8B414EF3AF016EF3AF019EF2F
:10742A003AF0000E59EF3AF0400E036E090E46ECA0
:10743A0037F0020E076E040E066EBA0EE82EFED75D
:10744A00062EFCD7072EFAD700D0000E036E040EC4
:10745A0046EC37F0000E036E050E46EC37F0000ED0
:10746A00036E060E46EC37F01F0E036E080E46EC4E
:10747A0037F0030E036E090E46EC37F0270E036E43
:10748A000A0E46EC37F0240E036E0C0E46EC37F06B
:10749A00240E036E0D0E46EC37F0000E99EC37F011
:1074AA00010E99EC37F0010E1200FAEC37F0000EDB
:1074BA00046E0A0ED4EC37F0A80E0F6E7F0E106E13
:1074CA00A7EC38F0020E046E0A0ED4EC37F0ED0E7B
:1074DA000F6E7F0E106EA7EC38F020C00EF021C0A0
:1074EA000FF022C010F023C011F0280E126EBBEC70
:1074FA003BF0280E0F6E106AA7EC38F0040E046EEB
:10750A000A0ED4EC37F0F20E0F6E7F0E106EA7EC57
:10751A0038F024C00EF025C00FF026C010F027C0A6
:10752A0011F0280E126EBBEC3BF0280E0F6E106A9B
:10753A00A7EC38F0060E046E0A0ED4EC37F0CE0E25
:10754A000F6E7F0E106EA7EC38F01200000E096E57
:10755A00000E0A6E000E0B6E000E0C6E0550061021
:10756A0007100810D8B4BCEF3AF0BEEF3AF0F4EFC7
:10757A003AF0010E0D6EC8EF3AF0D890053606368D
:10758A00073608360D2A08AECDEF3AF0CFEF3AF0BB
:10759A00C2EF3AF0D89009360A360B360C36055047
:1075AA00015C065002580750035808500458D8A0E6
:1075BA00E1EF3AF0E3EF3AF0ECEF3AF00550015E12
:1075CA000650025A0750035A0850045A0980D890A4
:1075DA0008320732063205320D2ECFEF3AF009C0D3
:1075EA0001F00AC002F00BC003F00CC004F0120054
:1075FA00126A116A08500910D8A406EF3BF008EF86
:10760A003BF033EF3BF00A50D96EDA6A300EDF6E88
:10761A000A50D96EDA6A010ED926DF6A57EF3BF0B3
:10762A0012500B0FD96EDA6A08C001F009C002F0D5
:10763A00046A0A0E036ED6EC38F00150300FDF6E82
:10764A0008C001F009C002F0046A0A0E036E08ECD1
:10765A0039F001C008F002C009F0122A08500910D6
:10766A00D8A43AEF3BF03CEF3BF015EF3BF04AEF82
:10767A003BF0120612500B0FD96EDA6A0A50112427
:10768A00E16EE26ADFCFE7FF112A1250D8A450EF69
:10769A003BF052EF3BF03EEF3BF00A501124D96E1B
:1076AA00DA6ADF6A1200020E096E040E086EBA0E5A
:1076BA00E82EFED7082EFCD7092EFAD700D0AE0E38
:1076CA0055EC37F0200E55EC37F0020E55EC37F03A
:1076DA00B00E55EC37F0C80E55EC37F0000E55ECED
:1076EA0037F0100E55EC37F0400E55EC37F0810E9E
:1076FA0055EC37F07F0E55EC37F0A10E55EC37F00C
:10770A00A60E55EC37F0A80E55EC37F03F0E55ECA7
:10771A0037F0A40E55EC37F0D30E55EC37F0000EC7
:10772A0055EC37F0D50E55EC37F0800E55EC37F0A6
:10773A00D90E55EC37F0F10E55EC37F0DA0E55EC60
:10774A0037F0120E55EC37F0DB0E55EC37F0400EE1
:10775A0055EC37F08D0E55EC37F0140E55EC37F02A
:10776A00AF0E55EC37F0FAEC37F012001F6A1E6ABA
:10777A000E500F1010101110D8A4C6EF3BF0C8EF2E
:10778A003BF009EF3CF01250D96EDA6A300EDF6E28
:10779A001250D96EDA6A010ED926DF6A2FEF3CF051
:1077AA001F50130FD96EDA6A0EC001F00FC002F033
:1077BA0010C003F011C004F00A0E056E000E066E2A
:1077CA00000E076E000E086E7DEC39F00150300F86
:1077DA00DF6E0EC001F00FC002F010C003F011C03E
:1077EA0004F00A0E056E000E066E000E076E000EFD
:1077FA00086EABEC3AF001C00EF002C00FF003C005
:10780A0010F004C011F01F2A0E500F1010101110A2
:10781A00D8A412EF3CF014EF3CF0D5EF3BF022EF86
:10782A003CF01F061F50130FD96EDA6A12501E243D
:10783A00E16EE26ADFCFE7FF1E2A1F50D8A428EFC5
:10784A003CF02AEF3CF016EF3CF012501E24D96EA1
:10785A00DA6ADF6A12000C6E0A0E0C18D8A438EF26
:10786A003CF03AEF3CF04EEF3CF0476A070E4660B8
:10787A0041EF3CF043EF3CF046EF3CF0462A47EF3D
:10788A003CF0466A46C004F04750D4EC37F0B6EFF5
:10789A003CF00CC00EF01F0E0E6456EF3CF058EF91
:1078AA003CF060EF3CF07F0E0E645EEF3CF060EF60
:1078BA003CF062EF3CF03F0E0E6E7A0E476468EFC2
:1078CA003CF06AEF3CF07CEF3CF0476A070E4660FA
:1078DA0071EF3CF073EF3CF076EF3CF0462A77EF1D
:1078EA003CF0466A46C004F04750D4EC37F0E00E4C
:1078FA000E24066E076AFF0E0722050E0602F3CF54
:10790A0008F0F4CF09F00702F350092608C00AF07C
:10791A0009C00BF0F5EC36F00D6A990E066E7C0E76
:10792A00076E0D500626000E07220A5006260B5037
:10793A00072206C0F6FF07C0F7FF0800F550E2EC81
:10794A0036F00D2A040E0D64ADEF3CF0AFEF3CF0BB
:10795A0092EF3CF0000EE2EC36F0DFEC36F0060E69
:10796A00472612001F0E046E060E056E070EC1ECA6
:10797A0039F020C00FF0106A116A126A11C012F0B1
:10798A0010C011F00FC010F00F6A1FC013F0146A74
:10799A00156A166A14C016F013C015F0146A136A31
:1079AA000F501310176E10501410186E1150151036
:1079BA00196E125016101A6E215017101B6E18509D
:1079CA001C6E19501D6E1A501E6E0D50D96EDA6A51
:1079DA001BC0DEFF1CC0DEFF1DC0DEFF1EC0DEFFB7
:1079EA0023C00FF0106A116A126A11C012F010C097
:1079FA0011F00FC010F00F6A22C013F0146A156A52
:107A0A00166A14C016F013C015F0146A136A0F50E0
:107A1A001310176E10501410186E11501510196E9D
:107A2A00125016101A6E245017101B6E18501C6E26
:107A3A0019501D6E1A501E6E0E50D96EDA6A1BC08E
:107A4A00DEFF1CC0DEFF1DC0DEFF1EC0DEFF0D50C4
:107A5A00D96EDA6AFF0EDE16FF0EDE16030EDE168A
:107A6A00000EDE160E50D96EDA6AFF0EDE16FF0E13
:107A7A00DE16030EDE16000EDE161200000E3E6E35
:107A8A00000E3F6E000E406E000E416E000E426EFA
:107A9A00000E436E000E446E000E456E386A000EEC
:107AAA00376E3A6A000E396E3C6A000E3B6E20EC65
:107ABA0038F0590E046E7F0E056E2AEC37F06A0E06
:107ACA00046E7F0E056E2AEC37F0280E046E7F0EC8
:107ADA00056E2AEC37F09A0E046E7E0E056E2AECBD
:107AEA0037F0410E046E7F0E056E2AEC37F009EC72
:107AFA003AF03D6EFAEC37F03D50D8A487EF3DF0EE
:107B0A0089EF3DF0BDEF3DF0DBEC36F0D7EC36F017
:107B1A00BA0E046E7E0E056E2AEC37F0F30E046E72
:107B2A007E0E056E2AEC37F0000E046E0A0ED4ECB7
:107B3A0037F08A0E0F6E7F0E106EA7EC38F0020E29
:107B4A00046E0A0ED4EC37F0D90E0F6E7F0E106E4B
:107B5A00A7EC38F0040E046E0A0ED4EC37F0B60E19
:107B6A000F6E7F0E106EA7EC38F00000BAEF3DF0F2
:107B7A00D5EC36F0DDEC36F0790E046E7E0E056E2D
:107B8A002AEC37F00E0E046E7F0E056E2AEC37F0E3
:107B9A0086EC37F0000E046E0A0ED4EC37F0990E1C
:107BAA000F6E7F0E106EA7EC38F0020E046E0A0EEE
:107BBA00D4EC37F0C20E0F6E7F0E106EA7EC38F0C1
:107BCA00040E046E0A0ED4EC37F0E40E0F6E7F0E2C
:107BDA00106EA7EC38F03E0E0D6E420E0E6EB7EC2C
:107BEA003CF03B4A3C2A3C5009E1640E3B5CD8A07D
:107BFA0001EF3EF003EF3EF01EEF3EF03C6A000E4E
:107C0A003B6E374A382A37C020F038C021F03EC0D0
:107C1A0022F03FC023F040C024F041C025F042C00A
:107C2A0026F043C027F044C028F045C029F041ECB3
:107C3A0039F0394A3A2A3A5009E1640E395CD8A037
:107C4A0029EF3EF02BEF3EF040EF3EF03A6A000E8D
:107C5A00396E3EC020F03FC021F040C022F041C042
:107C6A0023F042C024F043C025F044C026F045C0AA
:107C7A0027F05AEC3AF01A0E366EF80EE82EFED7B6
:107C8A00362EFCD700D0F0EF3DF0FEEF3FF00000BB
:107C9A000000000000005F00000007000700147FDA
:107CAA00147F14242A7F2A12231308646236495542
:107CBA0022500005030000001C2241000041221C42
:107CCA000014083E081408083E0808005030000056
:107CDA000808080808006060000020100804023E36
:107CEA005149453E00427F40004261514946214187
:107CFA00454B311814127F1027454545393C4A49EE
:107D0A004930017109050336494949360649492965
:107D1A001E003636000000563600000814224100C4
:107D2A0014141414140041221408020151090632D1
:107D3A004979413E7E1111117E7F494949363E41BA
:107D4A004141227F4141221C7F494949417F09091A
:107D5A0009013E4149497A7F0808087F00417F416D
:107D6A00002040413F017F081422417F40404040AB
:107D7A007F020C027F7F0408107F3E4141413E7F13
:107D8A00090909063E4151215E7F091929464649DA
:107D9A0049493101017F01013F4040403F1F2040D6
:107DAA00201F7F2018207F631408146307087008B7
:107DBA00076151494543007F4141000204081020F0
:107DCA000041417F0004020102044040404040005B
:107DDA000102040020545454787F484444383844FB
:107DEA00444420384444487F3854545418087E097F
:107DFA0001020C5252523E7F0804047800447D402E
:107E0A00002040443D007F1028440000417F40008C
:107E1A007C041804787C0804047838444444387C88
:107E2A0014141408081414187C7C08040408485410
:107E3A00545420043F4440203C4040207C1C2040B5
:107E4A00201C3C4030403C44281028440C505050E0
:107E5A003C4464544C44000836410000007F000052
:107E6A00004136080008082A1C0800000000004DDE
:107E7A00415833303130322064657465637461640B
:107E8A006F20636F7272656374616D656E746500ED
:107E9A00554152542066756E63696F6E616E646FE8
:107EAA00206120393630302062617564696F730051
:107EBA004552524F523A204D4158333031303220D8
:107ECA006E6F2064657465637461646F002D2D2D77
:107EDA002D2D2D2D2D2D2D2D2D2D2D2D2D2D2D2DC8
:107EEA002D2D2D2D2D2D2D2D005265766973652092
:107EFA005643432C20474E442C205344412079209A
:107F0A0053434C004C65637475726120524544209A
:107F1A006520495220696E696369616461004C4554
:107F2A00447320696E64696361646F72657320616A
:107F3A00637469766F730056657269666963616E08
:107F4A00646F204D415833303130322E2E2E00537B
:107F5A00697374656D6120696E69636961646F0034
:107F6A004F4C45442066756E63696F6E616E646F2F
:107F7A00004D75657374726109524544094952008E
:107F8A004D41583330313032204552524F5200530E
:107F9A0069676E6F7320566974616C6573004D4131
:107FAA005833303130322044415441005344412047
:107FBA0053434C20564343004C6579656E646F20E9
:107FCA004D4158004C6579656E646F2E2E2E005215
:107FDA0065766973652049324300524544202F2053
:107FEA004952005245443A0049523A000D0A0009E2
:067FFA000000EEEF36F07E
:020000040030CA
:0E0000000008181EFF8181FF0FC00FE00F40A7
:00000001FF
