:04000000FEEF3FF0E0
:10778C008C8012008C9212008C841200F6EC3BF070
:10779C001200036E035019EC3CF012009590959278
:1077AC0095948C908C928C941200176A166A000E29
:1077BC00F86E00017FEF3DF0EBEC3BF0780E19EC2E
:1077CC003CF0400E19EC3CF0120046EC3CF0C5804D
:1077DC00C5B0F3EF3BF0F5EF3BF0EEEF3BF01200F2
:1077EC0046EC3CF0C584C5B4FEEF3BF000EF3CF03A
:1077FC00F9EF3BF01200016E9EA807EF3CF009EF89
:10780C003CF002EF3CF001C0ADFF120004C002F0EE
:10781C0005C003F074EC3CF0F70E026E7F0E036EA5
:10782C0074EC3CF01200026E46EC3CF002C0C9FF56
:10783C009EA623EF3CF025EF3CF01EEF3CF09E960D
:10784C00C5501200036EEBEC3BF0780E19EC3CF0DB
:10785C00000E19EC3CF0035019EC3CF0F6EC3BF04C
:10786C001200949C948EAC6AAB6AB86AAC98AC84E7
:10787C00B886B06ACF0EAF6EAB8EAC8AAB881200F6
:10788C00C5CF01F01F0E0116D8A44FEF3CF051EFFD
:10789C003CF046EF3CF0C7B456EF3CF058EF3CF0F0
:1078AC0046EF3CF0120065EF3CF00FC0F6FF10C045
:1078BC00F7FF0800F55039EC3EF00F4A102A0FC0C4
:1078CC00F6FF10C0F7FF0800F5500009D8A471EFBF
:1078DC003CF073EF3CF05BEF3CF0120080EF3CF0BF
:1078EC0002C0F6FF03C0F7FF0800F55001EC3CF0B6
:1078FC00024A032A02C0F6FF03C0F7FF0800F55046
:10790C000009D8A48CEF3CF08EEF3CF076EF3CF005
:10791C001200720ED36E0F0EC16E070EB46EB56AE6
:10792C00896A8A6A8B6A8C6A8D6A92689368946891
:10793C0095689668D4EC3BF037EC3CF0A00E0E6EDC
:10794C00860E0F6E010E106E000E116EFFEC3CF0E9
:10795C00D6EC3DF0D9EC3CF01200056E7F0E0564C0
:10796C00BAEF3CF0BCEF3CF0BDEF3CF0056A070E03
:10797C000464C3EF3CF0C5EF3CF0C6EF3CF0046A86
:10798C0005C017F004C016F00450B00F28EC3CF002
:10799C0005500F0B28EC3CF005380F0B0F0B100F9C
:1079AC0028EC3CF01200076A07C004F0000EB3ECA0
:1079BC003CF0E2EC3BF0066A000ECFEC3BF0062A02
:1079CC007F0E0664ECEF3CF0EEEF3CF0E2EF3CF0A7
:1079DC00CCEC3BF0072A070E0764F7EF3CF0F9EF0D
:1079EC003CF0DAEF3CF0000E046E000EB3EC3CF011
:1079FC00120093809382C66AC56AC76A280EC66E47
:107A0C00C78E000E016E120E026E7A0E036E000E01
:107A1C00046E0EC012F00FC013F010C014F011C0A1
:107A2C0015F0020ED8901236133614361536E82E91
:107A3C0018EF3DF012C005F013C006F014C007F0AB
:107A4C0015C008F02DEC3DF00104C86E1200000EBC
:107A5C00096E000E0A6E000E0B6E000E0C6E0550B9
:107A6C00061007100810D8B43EEF3DF040EF3DF083
:107A7C0076EF3DF0010E0D6E4AEF3DF0D8900536D5
:107A8C000636073608360D2A08AE4FEF3DF051EF9B
:107A9C003DF044EF3DF0D89009360A360B360C36E3
:107AAC000550015C06500258075003580850045802
:107ABC00D8A063EF3DF065EF3DF06EEF3DF0055063
:107ACC00015E0650025A0750035A0850045A0980A6
:107ADC00D89008320732063205320D2E51EF3DF0A8
:107AEC0009C001F00AC002F00BC003F00CC004F096
:107AFC0012008FEC3CF0AC0E046E7F0E056E0CEC9D
:107B0C003CF0BD0E046E7F0E056E0CEC3CF0810E4D
:107B1C00046E7F0E056E0CEC3CF0610E046E7F0E55
:107B2C00056E0CEC3CF09A0E046E7F0E056E0CECA0
:107B3C003CF0000E046E0A0EB3EC3CF0CE0E0F6E51
:107B4C007F0E106E59EC3CF0020E046E0A0EB3EC74
:107B5C003CF0E70E0F6E7F0E106E59EC3CF0040EED
:107B6C00046E0A0EB3EC3CF0EF0E0F6E7F0E106E2F
:107B7C0059EC3CF0060E046E0A0EB3EC3CF0DD0E34
:107B8C000F6E7F0E106E59EC3CF0C6EC3BF0C8EC5F
:107B9C003BF0CAEC3BF00000D1EF3DF0FEEF3FF0C4
:107BAC00020E096E040E086EBA0EE82EFED7082ED1
:107BBC00FCD7092EFAD700D0AE0E28EC3CF0200EE4
:107BCC0028EC3CF0020E28EC3CF0B00E28EC3CF01B
:107BDC00C80E28EC3CF0000E28EC3CF0100E28EC03
:107BEC003CF0400E28EC3CF0810E28EC3CF07F0E73
:107BFC0028EC3CF0A10E28EC3CF0A60E28EC3CF056
:107C0C00A80E28EC3CF03F0E28EC3CF0A40E28EC1F
:107C1C003CF0D30E28EC3CF0000E28EC3CF0D50EDA
:107C2C0028EC3CF0800E28EC3CF0D90E28EC3CF013
:107C3C00F10E28EC3CF0DA0E28EC3CF0120E28EC9D
:107C4C003CF0DB0E28EC3CF0400E28EC3CF08D0EAA
:107C5C0028EC3CF0140E28EC3CF0AF0E28EC3CF079
:107C6C00D9EC3CF012000C6E0A0E0C18D8A441EFA3
:107C7C003EF043EF3EF057EF3EF0176A070E1660EA
:107C8C004AEF3EF04CEF3EF04FEF3EF0162A50EF2D
:107C9C003EF0166A16C004F01750B3EC3CF0BFEF80
:107CAC003EF00CC00EF01F0E0E645FEF3EF061EF65
:107CBC003EF069EF3EF07F0E0E6467EF3EF069EF29
:107CCC003EF06BEF3EF03F0E0E6E7A0E176471EFC6
:107CDC003EF073EF3EF085EF3EF0176A070E16602C
:107CEC007AEF3EF07CEF3EF07FEF3EF0162A80EF0D
:107CFC003EF0166A16C004F01750B3EC3CF0E00EE0
:107D0C000E24066E076AFF0E0722050E0602F3CF3D
:107D1C0008F0F4CF09F00702F350092608C00AF066
:107D2C0009C00BF0E2EC3BF00D6A810E066E7D0E85
:107D3C00076E0D500626000E07220A5006260B5021
:107D4C00072206C0F6FF07C0F7FF0800F550CFEC7E
:107D5C003BF00D2A040E0D64B6EF3EF0B8EF3EF08A
:107D6C009BEF3EF0000ECFEC3BF0CCEC3BF0060E64
:107D7C001726120000000000000000005F00000049
:107D8C0007000700147F147F14242A7F2A12231360
:107D9C0008646236495522500005030000001C227D
:107DAC0041000041221C0014083E081408083E083B
:107DBC000800503000000808080808006060000047
:107DCC0020100804023E5149453E00427F400042CB
:107DDC00615149462141454B311814127F102745FA
:107DEC004545393C4A494930017109050336494931
:107DFC004936064949291E00363600000056360021
:107E0C000008142241001414141414004122140804
:107E1C000201510906324979413E7E1111117E7FD2
:107E2C00494949363E414141227F4141221C7F490B
:107E3C004949417F090909013E4149497A7F0808AE
:107E4C00087F00417F41002040413F017F08142200
:107E5C00417F404040407F020C027F7F0408107F2E
:107E6C003E4141413E7F090909063E4151215E7F59
:107E7C0009192946464949493101017F01013F4011
:107E8C0040403F1F2040201F7F2018207F63140894
:107E9C00146307087008076151494543007F41414D
:107EAC000002040810200041417F0004020102047A
:107EBC004040404040000102040020545454787F5C
:107ECC00484444383844444420384444487F385467
:107EDC00545418087E0901020C5252523E7F080479
:107EEC00047800447D40002040443D007F1028442D
:107EFC000000417F40007C041804787C080404785E
:107F0C0038444444387C14141408081414187C7C29
:107F1C00080404084854545420043F4440203C4076
:107F2C0040207C1C2040201C3C4030403C4428100D
:107F3C0028440C5050503C4464544C440008364186
:107F4C000000007F0000004136080008082A1C08C9
:107F5C000000000000554152542066756E63696F35
:107F6C006E616E646F20612039363030206261752D
:107F7C0064696F73004C45447320696E6469636176
:107F8C00646F7265732061637469766F73005369F3
:107F9C007374656D6120656E206573706572610028
:107FAC0053697374656D6120696E69636961646F8F
:107FBC00004F4C45442066756E63696F6E616E644C
:107FCC006F005369676E6F7320566974616C6573CB
:107FDC0000456E20657370657261004F4C454420FE
:0F7FEC004F4B0055415254204F4B000D0A0000DF
:047FFC00DBEF3BF08C
:020000040030CA
:0E0000000008181EFF8181FF0FC00FE00F40A7
:00000001FF
