:04000000FEEF3FF0E0
:106A120030EC35F01200036E035095EC35F01200A5
:106A220025EC35F0780E95EC35F0400E95EC35F00E
:106A3200120082EC35F0C582C5B222EF35F024EFA8
:106A420035F01DEF35F0120082EC35F0C580C5B08F
:106A52002DEF35F02FEF35F028EF35F0120082ECF4
:106A620035F0C584C5B438EF35F03AEF35F033EF81
:106A720035F01200016E9EA841EF35F043EF35F07C
:106A82003CEF35F001C0ADFF120004C002F005C0BA
:106A920003F08EEC36F0F40E026E7F0E036E8EEC77
:106AA20036F01200036E25EC35F0780E95EC35F0D9
:106AB200000E95EC35F0035095EC35F030EC35F0E6
:106AC2001200949C948EAC6AAB6AB86AAC98AC849F
:106AD200B886B06ACF0EAF6EAB8EAC8AAB881200AE
:106AE20000EE60F0100EEE6AE806FDE100EE4AF0FC
:106AF200150EEE6AE806FDE1000EF86E0001C6EF23
:106B02003CF0C5CF01F01F0E0116D8A48BEF35F073
:106B12008DEF35F082EF35F0C7B492EF35F094EF98
:106B220035F082EF35F01200026E82EC35F002C0D1
:106B3200C9FF9EA69FEF35F0A1EF35F09AEF35F031
:106B42009E96C5BCA7EF35F0AAEF35F0010EABEF6C
:106B520035F0000E1200720ED36E0F0EC16E070ECC
:106B6200B46EB56A62EC35F0A00E0E6E860E0F6E34
:106B7200010E106E000E116E60EC36F0E0EC38F093
:106B82000FEC36F01200026E82EC35F0C586C7A01B
:106B9200CDEF35F0CFEF35F0C8EF35F0C9CF03F0C8
:106BA20082EC35F00250D8B4D9EF35F0DBEF35F096
:106BB200DEEF35F0C59ADFEF35F0C58AC588C5B876
:106BC200E5EF35F0E7EF35F0E0EF35F00350120076
:106BD200056E7F0E0564F0EF35F0F2EF35F0F3EF5E
:106BE20035F0056A070E0464F9EF35F0FBEF35F076
:106BF200FCEF35F0046A05C05DF004C05CF004509F
:106C0200B00F53EC35F005500F0B53EC35F005384F
:106C12000F0B0F0B100F53EC35F01200076A07C071
:106C220004F0000EE9EC35F011EC35F0066A000EC6
:106C32000CEC35F0062A7F0E066422EF36F024EFC4
:106C420036F018EF36F009EC35F0072A070E076424
:106C52002DEF36F02FEF36F010EF36F0000E046E07
:106C6200000EE9EC35F012005E50D8A43BEF36F08E
:106C72003DEF36F04FEF36F0045003100BE1300ECB
:106C8200015C750E0258D8A049EF36F04BEF36F092
:106C92005EEF36F0010E5E6E5EEF36F004500310CA
:106CA20009E1200E015C4E0E0258D8B05BEF36F0BF
:106CB2005DEF36F05EEF36F05E6A5E501200938052
:106CC2009382C66AC56AC76A280EC66EC78E000E50
:106CD200016E120E026E7A0E036E000E046E0EC06C
:106CE20012F00FC013F010C014F011C015F0020E14
:106CF200D8901236133614361536E82E79EF36F060
:106D020012C005F013C006F014C007F015C008F059
:106D12008EEC38F00104C86E1200A4EF36F002C007
:106D2200F6FF03C0F7FFF86A070EF76403D0080006
:106D3200F55005D0F6CFE9FFF7CFEAFFEF503BEC75
:106D420035F0024A032A02C0F6FF03C0F7FFF86AD1
:106D5200070EF76403D00800F55005D0F6CFE9FF1F
:106D6200F7CFEAFFEF500009D8A4BAEF36F0BCEF34
:106D720036F090EF36F01200D3EF36F00FC0F6FF88
:106D820010C0F7FFF86A070EF76403D00800F55049
:106D920005D0F6CFE9FFF7CFEAFFEF503AEC3AF031
:106DA2000F4A102A0FC0F6FF10C0F7FFF86A070E4D
:106DB200F76403D00800F55005D0F6CFE9FFF7CF0E
:106DC200EAFFEF500009D8A4E9EF36F0EBEF36F016
:106DD200BFEF36F012000FEC36F0000E046E0A0E12
:106DE200E9EC35F03C0E0F6E7F0E106EBDEC36F006
:106DF200020E046E0A0EE9EC35F04A0E0F6E7F0E9B
:106E0200106EBDEC36F0040E046E0A0EE9EC35F09D
:106E1200710E0F6E7F0E106EBDEC36F0060E046E14
:106E22000A0EE9EC35F0950E0F6E7F0E106EBDEC7A
:106E320036F01200046E25EC35F0AE0E95EC35F00E
:106E4200056E0550D8B428EF37F02AEF37F02FEF50
:106E520037F030EC35F0000E4EEF37F0045095EC81
:106E620035F0056E0550D8B439EF37F03BEF37F007
:106E72003DEF37F02AEF37F0035095EC35F0056E11
:106E82000550D8B447EF37F049EF37F04BEF37F002
:106E92002AEF37F030EC35F0010E12000850D96EAF
:106EA200DA6ADF6A0750D96EDA6ADF6A08C004F06C
:106EB200FF0EBEEC37F00A6E07C004F0FE0EBEEC09
:106EC20037F00B6E0A04D8A469EF37F06BEF37F096
:106ED20082EF37F00B04D8A471EF37F073EF37F07D
:106EE20082EF37F00850D96EDA6A150EDE18D8A490
:106EF2007DEF37F07FEF37F082EF37F0010E83EF4F
:106F020037F0000E1200196E0FEC36F0000E046E10
:106F12000A0EE9EC35F02D0E0F6E7F0E106EBDECF1
:106F220036F0020E046E0A0EE9EC35F0570E0F6EC3
:106F32007F0E106EBDEC36F0040E046E0A0EE9EC04
:106F420035F0E00E0F6E7F0E106EBDEC36F0110EB6
:106F5200016E19503FEC38F0110E0F6E106ABDEC45
:106F620036F0060E046E0A0EE9EC35F01E0E0F6EB8
:106F72007F0E106EBDEC36F01200056E25EC35F07A
:106F8200AE0E95EC35F0066E0650D8B4CBEF37F066
:106F9200CDEF37F0D2EF37F030EC35F0000EFAEFEC
:106FA20037F0055095EC35F0066E0650D8B4DCEF9C
:106FB20037F0DEEF37F0E0EF37F0CDEF37F01AECD5
:106FC20035F0AF0E95EC35F0066E0650D8B4ECEF06
:106FD20037F0EEEF37F0F0EF37F0CDEF37F0045047
:106FE200D96EDA6A000EC4EC35F0DF6E30EC35F0A3
:106FF200010E12000550061007100810D8B404EF55
:1070020038F006EF38F036EF38F0010E096E10EF67
:1070120038F0D8900536063607360836092A08AE03
:1070220015EF38F017EF38F00AEF38F00550015C31
:10703200065002580750035808500458D8A024EFAD
:1070420038F026EF38F02EEF38F00550015E06508A
:10705200025A0750035A0850045AD890083207328D
:1070620006320532092E17EF38F001C001F002C0D6
:1070720002F003C003F004C004F01200026E0238F2
:107082000F0B0F0B036E02500F0B046E0150D96EE3
:10709200DA6A300EDF6E0150D96EDA6A010ED92635
:1070A200780EDF6E0A0E036059EF38F05BEF38F0AE
:1070B20065EF38F00150D96EDA6A020ED926035014
:1070C200300FDF6E6DEF38F00150D96EDA6A020EC2
:1070D200D9260350370FDF6E0A0E046073EF38F0C3
:1070E20075EF38F07FEF38F00150D96EDA6A030E8F
:1070F200D9260450300FDF6E87EF38F00150D96E79
:10710200DA6A030ED9260450370FDF6E0150D96EAA
:10711200DA6A040ED926DF6A1200000E096E000E2A
:107122000A6E000E0B6E000E0C6E05500610071054
:107132000810D8B49FEF38F0A1EF38F0D7EF38F04D
:10714200010E0D6EABEF38F0D890053606360736D5
:1071520008360D2A08AEB0EF38F0B2EF38F0A5EFDE
:1071620038F0D89009360A360B360C360550015CD9
:10717200065002580750035808500458D8A0C4EFCC
:1071820038F0C6EF38F0CFEF38F00550015E065008
:10719200025A0750035A0850045A0980D8900832FC
:1071A2000732063205320D2EB2EF38F009C001F077
:1071B2000AC002F00BC003F00CC004F01200020E71
:1071C200096E040E086EBA0EE82EFED7082EFCD702
:1071D200092EFAD700D0AE0E53EC35F0200E53EC48
:1071E20035F0020E53EC35F0B00E53EC35F0C80E0C
:1071F20053EC35F0000E53EC35F0100E53EC35F035
:10720200400E53EC35F0810E53EC35F07F0E53EC0B
:1072120035F0A10E53EC35F0A60E53EC35F0A80E66
:1072220053EC35F03F0E53EC35F0A40E53EC35F031
:10723200D30E53EC35F0000E53EC35F0D50E53EC73
:1072420035F0800E53EC35F0D90E53EC35F0F10EDB
:1072520053EC35F0DA0E53EC35F0120E53EC35F0F8
:10726200DB0E53EC35F0400E53EC35F08D0E53EC43
:1072720035F0140E53EC35F0AF0E53EC35F00FEC45
:1072820036F012001F6A1E6A0E500F1010101110F5
:10729200D8A44EEF39F050EF39F091EF39F0125097
:1072A200D96EDA6A300EDF6E1250D96EDA6A010ECA
:1072B200D926DF6AB7EF39F01F50130FD96EDA6A99
:1072C2000EC001F00FC002F010C003F011C004F0B4
:1072D2000A0E056E000E066E000E076E000E086E98
:1072E200FBEC37F00150300FDF6E0EC001F00FC023
:1072F20002F010C003F011C004F00A0E056E000E79
:10730200066E000E076E000E086E8EEC38F001C09D
:107312000EF002C00FF003C010F004C011F01F2ADB
:107322000E500F1010101110D8A49AEF39F09CEFE4
:1073320039F05DEF39F0AAEF39F01F061F50130F35
:10734200D96EDA6A12501E24E16EE26ADFCFE7FFDD
:107352001E2A1F50D8A4B0EF39F0B2EF39F09EEFD9
:1073620039F012501E24D96EDA6ADF6A1200376EC3
:107372000FEC36F0000E046E0A0EE9EC35F03750D1
:10738200D8B4C6EF39F0C8EF39F0D0EF39F0890E32
:107392000F6E7F0E106EBDEC36F0D6EF39F0640E34
:1073A2000F6E7F0E106EBDEC36F0020E046E0A0EEA
:1073B200E9EC35F0EB0E0F6E7F0E106EBDEC36F081
:1073C20022C00EF023C00FF024C010F025C011F02F
:1073D2002B0E126E43EC39F02B0E0F6E106ABDECC1
:1073E20036F0040E046E0A0EE9EC35F0F00E0F6E64
:1073F2007F0E106EBDEC36F026C00EF027C00FF0E7
:1074020028C010F029C011F02B0E126E43EC39F097
:107412002B0E0F6E106ABDEC36F0060E046E0A0ECD
:10742200E9EC35F02A50D8B419EF3AF01BEF3AF0F4
:1074320023EF3AF0AB0E0F6E7F0E106EBDEC36F0FE
:1074420029EF3AF0B50E0F6E7F0E106EBDEC36F0DE
:10745200F70E0F6E7F0E106EBDEC36F02B0E016E26
:1074620020503FEC38F02B0E0F6E106ABDEC36F058
:1074720012000C6E0A0E0C18D8A442EF3AF044EF38
:107482003AF058EF3AF05D6A070E5C604BEF3AF063
:107492004DEF3AF050EF3AF05C2A51EF3AF05C6A65
:1074A2005CC004F05D50E9EC35F0C0EF3AF00CC07E
:1074B2000EF01F0E0E6460EF3AF062EF3AF06AEFE0
:1074C2003AF07F0E0E6468EF3AF06AEF3AF06CEF32
:1074D2003AF03F0E0E6E7A0E5D6472EF3AF074EF80
:1074E2003AF086EF3AF05D6A070E5C607BEF3AF0A5
:1074F2007DEF3AF080EF3AF05C2A81EF3AF05C6A75
:107502005CC004F05D50E9EC35F0E00E0E24066E2E
:10751200076AFF0E0722050E0602F3CF08F0F4CF2A
:1075220009F00702F350092608C00AF009C00BF05F
:1075320011EC35F00D6AD90E066E7B0E076E0D50FA
:107542000626000E07220A5006260B50072206C006
:10755200F6FF07C0F7FF0800F5500CEC35F00D2AD6
:10756200040E0D64B7EF3AF0B9EF3AF09CEF3AF03F
:10757200000E0CEC35F009EC35F0060E5D2612001B
:10758200376EF60E046E7F0E056E46EC35F07F0EFA
:10759200046E7E0E056E46EC35F03750D8B4D4EF4B
:1075A2003AF0D6EF3AF0DEEF3AF0600E046E7E0E5D
:1075B200056E46EC35F0E4EF3AF0400E046E7E0EB6
:1075C200056E46EC35F0A10E026E7F0E036E8EEC58
:1075D20036F02B0E016E20503FEC38F02B0E046E6D
:1075E200056A46EC35F0BF0E026E7F0E036E8EEC1E
:1075F20036F02B0E016E21503FEC38F02B0E046E4C
:10760200056A46EC35F0DA0E026E7F0E036E8EECE2
:1076120036F022C00EF023C00FF024C010F025C0B7
:1076220011F02B0E126E43EC39F02B0E046E056A2C
:1076320046EC35F0E60E026E7F0E036E8EEC36F0EF
:1076420026C00EF027C00FF028C010F029C011F09C
:107652002B0E126E43EC39F02B0E046E056A46ECCB
:1076620035F02A50D8B438EF3BF03AEF3BF042EF16
:107672003BF0C80E046E7F0E056E46EC35F048EF07
:107682003BF0D10E046E7F0E056E46EC35F0120013
:10769200400E036E090E1BEC37F00009D8A454EF1C
:1076A2003BF056EF3BF059EF3BF0000EE8EF3BF0BA
:1076B200020E086E040E076EBA0EE82EFED7072ED3
:1076C200FCD7082EFAD700D0000E036E040E1BEC76
:1076D20037F00009D8A470EF3BF072EF3BF074EF83
:1076E2003BF056EF3BF0000E036E050E1BEC37F03D
:1076F2000009D8A47FEF3BF081EF3BF083EF3BF032
:1077020056EF3BF0000E036E060E1BEC37F000093D
:10771200D8A48EEF3BF090EF3BF092EF3BF056EFA8
:107722003BF01F0E036E080E1BEC37F00009D8A4C5
:107732009DEF3BF09FEF3BF0A1EF3BF056EF3BF0AC
:10774200030E036E090E1BEC37F00009D8A4ACEF50
:107752003BF0AEEF3BF0B0EF3BF056EF3BF0270EC5
:10776200036E0A0E1BEC37F00009D8A4BBEF3BF006
:10777200BDEF3BF0BFEF3BF056EF3BF0240E036E44
:107782000C0E1BEC37F00009D8A4CAEF3BF0CCEF8B
:107792003BF0CEEF3BF056EF3BF0240E036E0D0EA6
:1077A2001BEC37F00009D8A4D9EF3BF0DBEF3BF03C
:1077B200DDEF3BF056EF3BF0090E046E000EBEEC1F
:1077C20037F0090E046E010EBEEC37F0010E120006
:1077D20025EC35F0AE0E95EC35F01C6E1C50D8B48D
:1077E200F5EF3BF0F7EF3BF0FCEF3BF030EC35F020
:1077F200000EC5EF3CF0070E95EC35F01C6E1C50E8
:10780200D8B406EF3CF008EF3CF00AEF3CF0F7EF9B
:107812003BF01AEC35F0AF0E95EC35F01C6E1C50B7
:10782200D8B416EF3CF018EF3CF01AEF3CF0F7EF4B
:107832003BF01D6A050E1D6021EF3CF023EF3CF08A
:107842002DEF3CF01D50160FD96EDA6A010EC4EC12
:1078520035F0DF6E35EF3CF01D50160FD96EDA6A47
:10786200000EC4EC35F0DF6E1D2A050E1D643CEFE0
:107872003CF03EEF3CF01BEF3CF030EC35F017C033
:1078820006F0076A086A096A08C009F007C008F02A
:1078920006C007F0066A16C00AF00B6A0C6A0D6A87
:1078A2000BC00DF00AC00CF00B6A0A6A06500A10EF
:1078B2000E6E07500B100F6E08500C10106E095010
:1078C2000D10116E18500E10126E0F50136E1050D4
:1078D200146E1150156E0450D96EDA6A12C0DEFFB2
:1078E20013C0DEFF14C0DEFF15C0DEFF1AC006F0B3
:1078F200076A086A096A08C009F007C008F006C0EA
:1079020007F0066A19C00AF00B6A0C6A0D6A0BC00E
:107912000DF00AC00CF00B6A0A6A06500A100E6ECD
:1079220007500B100F6E08500C10106E09500D10FE
:10793200116E1B500E10126E0F50136E1050146EFB
:107942001150156E0550D96EDA6A12C0DEFF13C0EF
:10795200DEFF14C0DEFF15C0DEFF0450D96EDA6A06
:10796200FF0EDE16FF0EDE16030EDE16000EDE160C
:107972000550D96EDA6AFF0EDE16FF0EDE16030E12
:10798200DE16000EDE16010E1200446A496A436AD0
:10799200000E3F6E000E406E000E416E000E426EF3
:1079A200000E456E000E466E000E476E000E486ECB
:1079B2003D6A3A6A000E396E3C6A000E3B6EACECD0
:1079C20035F0ECEC36F0F60E046E7F0E056E46ECEA
:1079D20035F0180E046E7E0E056E46EC35F09B0EE9
:1079E200046E7E0E056E46EC35F0090E046E7F0EB7
:1079F200056E46EC35F0180E046E7E0E056E46ECF2
:107A020035F0F60E046E7F0E056E46EC35F07D0EF7
:107A1200046E7F0E056E46EC35F0B40E046E7E0EDB
:107A2200056E46EC35F0F40E046E7E0E056E46ECE5
:107A320035F0CA0E046E7E0E056E46EC35F0DF0E92
:107A4200046E7E0E056E46EC35F0F60E046E7F0E69
:107A5200056E46EC35F04450D8A432EF3DF034EFD9
:107A62003DF063EF3DF0430E076E490E086E4FEC9A
:107A720037F03E6E3E04D8A441EF3DF043EF3DF0B7
:107A82005EEF3DF049EC3BF0446E4404D8A44CEF69
:107A92003DF04EEF3DF056EF3DF0E90E046E7D0EE7
:107AA200056E46EC35F081EF3DF0B90E046E7D0EA9
:107AB200056E46EC35F081EF3DF0495084EC37F02D
:107AC20081EF3DF03F0E046E450E056EE9EC3BF092
:107AD2003E6E3E04D8A470EF3DF072EF3DF07FEFB2
:107AE2003DF045C001F046C002F047C003F048C077
:107AF20004F035EC36F03D6E81EF3DF0446A3D6AAC
:107B0200394A3A2A3A5009E1320E395CD8A08CEF50
:107B12003DF08EEF3DF0B7EF3DF03A6A000E396E60
:107B22004404D8A497EF3DF099EF3DF0B4EF3DF057
:107B320049C020F043C021F03FC022F040C023F0F2
:107B420041C024F042C025F045C026F046C027F0CF
:107B520047C028F048C029F03DC02AF03E50B8EC9A
:107B620039F0B7EF3DF0495084EC37F03B4A3C2AFC
:107B72003C5009E1640E3B5CD8A0C2EF3DF0C4EF7B
:107B82003DF0E0EF3DF03C6A000E3B6E49C020F054
:107B920043C021F03FC022F040C023F041C024F096
:107BA20042C025F045C026F046C027F047C028F065
:107BB20048C029F03DC02AF04450C1EC3AF01A0EF8
:107BC200386EF80EE82EFED7382EFCD700D02CEFF8
:107BD2003DF0FEEF3FF000000000000000005F00FB
:107BE200000007000700147F147F14242A7F2A1242
:107BF2002313086462364955225000050300000031
:107C02001C2241000041221C0014083E08140808EE
:107C12003E080800503000000808080808006060AC
:107C2200000020100804023E5149453E00427F40B8
:107C32000042615149462141454B311814127F10CF
:107C420027454545393C4A49493001710905033602
:107C520049494936064949291E0036360000005670
:107C62003600000814224100141414141400412296
:107C720014080201510906324979413E7E1111115F
:107C82007E7F494949363E414141227F4141221C82
:107C92007F494949417F090909013E4149497A7FA2
:107CA2000808087F00417F41002040413F017F08D2
:107CB2001422417F404040407F020C027F7F040833
:107CC200107F3E4141413E7F090909063E41512153
:107CD2005E7F09192946464949493101017F01015F
:107CE2003F4040403F1F2040201F7F2018207F63DD
:107CF2001408146307087008076151494543007F5F
:107D020041410002040810200041417F00040201A9
:107D120002044040404040000102040020545454F8
:107D2200787F484444383844444420384444487FA7
:107D32003854545418087E0901020C5252523E7FA4
:107D42000804047800447D40002040443D007F1038
:107D520028440000417F40007C041804787C080419
:107D6200047838444444387C141414080814141851
:107D72007C7C080404084854545420043F444020A6
:107D82003C4040207C1C2040201C3C4030403C4475
:107D9200281028440C5050503C4464544C44000871
:107DA20036410000007F0000004136080008082A22
:107DB2001C0800000000004D4158333031303220A1
:107DC20064657465637461646F2C207065726F20E2
:107DD20066616C6C6F206C6120636F6E666967759B
:107DE200726163696F6E004D415833303130322019
:107DF20064657465637461646F207920636F6E6675
:107E02006967757261646F20636F72726563746112
:107E12006D656E7465003D3D3D3D3D3D3D3D3D3DE5
:107E22003D3D3D3D3D3D3D3D3D3D3D3D3D3D3D3D80
:107E32003D3D3D3D3D3D3D3D3D3D3D3D3D0045736F
:107E42007461646F204932433A2073656E736F72B6
:107E5200206E6F2064657465637461646F0045739E
:107E62007461646F204932433A204D4158333031B6
:107E720030322064657465637461646F002D2D2D4A
:107E82002D2D20505255454241204D41583330311D
:107E92003032202D2D2D2D2D00205052554542419E
:107EA200204D4158333031303220504F5220493228
:107EB2004300204D415833303130322056494E2054
:107EC2002D3E20332E335600204D41583330313071
:107ED2003220534441202D3E2052423000204D4159
:107EE2005833303130322053434C202D3E20524201
:107EF2003100204D4158333031303220474E44203A
:107F02002D3E20474E4400204F4C454420535344BD
:107F120031333036202B2055415254005265766958
:107F22007365205344412F53434C004D4158333025
:107F3200313032204552524F52004D415833303188
:107F42003032205445535400496E696369616E644E
:107F52006F2E2E2E004932433A204E4F2052455367
:107F620050004D4158333031303220455252004991
:107F72003243205242302F52423100436F6E6578B5
:107F8200696F6E65733A004D41583330313032209B
:107F92004F4B004F4C454420616374697661005039
:107FA2004152545F49443A20004465646F3A205379
:107FB2004920004465646F3A204E4F2000524556D6
:107FC2005F49443A20004465646F3A2053490044B3
:107FD20065646F3A204E4F005245443A20005041AA
:107FE20052543A0049523A20005245443A0049520A
:097FF2003A000D0A00503A0000AB
:047FFC0071EF35F0FC
:020000040030CA
:0E0000000008181EFF8181FF0FC00FE00F40A7
:00000001FF
