:04000000FEEF3FF0E0
:1078C0008C8012008C9212008C84120090EC3CF0A0
:1078D0001200036E03509BEC3CF0120095909592C1
:1078E00095948C908C928C941200176A166A000EF4
:1078F000F86E000189EF3DF085EC3CF0780E9BECD2
:107900003CF0400E9BEC3CF01200B9EC3CF0C58022
:10791000C5B08DEF3CF08FEF3CF088EF3CF01200EB
:10792000B9EC3CF0C584C5B498EF3CF09AEF3CF05C
:1079300093EF3CF01200026EB9EC3CF002C0C9FFBC
:107940009EA6A5EF3CF0A7EF3CF0A0EF3CF09E9682
:10795000C5501200036E85EC3CF0780E9BEC3CF0B9
:10796000000E9BEC3CF003509BEC3CF090EC3CF0A8
:107970001200C5CF01F01F0E0116D8A4C2EF3CF0D3
:10798000C4EF3CF0B9EF3CF0C7B4C9EF3CF0CBEF2B
:107990003CF0B9EF3CF01200D8EF3CF00FC0F6FF1E
:1079A00010C0F7FF0800F55071EC3EF00F4A102AA6
:1079B0000FC0F6FF10C0F7FF0800F5500009D8A46B
:1079C000E4EF3CF0E6EF3CF0CEEF3CF01200056E49
:1079D0007F0E0564EEEF3CF0F0EF3CF0F1EF3CF091
:1079E000056A070E0464F7EF3CF0F9EF3CF0FAEF9C
:1079F0003CF0046A05C017F004C016F00450B00F44
:107A0000AAEC3CF005500F0BAAEC3CF005380F0B2C
:107A10000F0B100FAAEC3CF01200076A07C004F02D
:107A2000000EE7EC3CF07CEC3CF0066A000E69ECE2
:107A30003CF0062A7F0E066420EF3DF022EF3DF079
:107A400016EF3DF066EC3CF0072A070E07642BEFBB
:107A50003DF02DEF3DF00EEF3DF0000E046E000EF8
:107A6000E7EC3CF01200720ED36E0F0EC16E070EE3
:107A7000B46EB56A896A8A6A8B6A8C6A8D6A926802
:107A800093689468956896686EEC3CF060EC3CF006
:107A900062EC3CF064EC3CF0A00E0E6E860E0F6EB5
:107AA000010E106E000E116E5BEC3DF00EEC3EF020
:107AB0000DEC3DF0120093809382C66AC56AC76AD6
:107AC000280EC66EC78E000E016E120E026E7A0E62
:107AD000036E000E046E0EC012F00FC013F010C043
:107AE00014F011C015F0020ED89012361336143669
:107AF0001536E82E74EF3DF012C005F013C006F005
:107B000014C007F015C008F0BCEC3DF00104C86ECD
:107B1000120033EC3DF0000E046E0A0EE7EC3CF070
:107B2000D10E0F6E7F0E106ECCEC3CF0020E046E88
:107B30000A0EE7EC3CF0EA0E0F6E7F0E106ECCECF6
:107B40003CF0040E046E0A0EE7EC3CF0F20E0F6EF1
:107B50007F0E106ECCEC3CF0060E046E0A0EE7ECC5
:107B60003CF0E00E0F6E7F0E106ECCEC3CF000008F
:107B7000B7EF3DF0FEEF3FF0000E096E000E0A6E0B
:107B8000000E0B6E000E0C6E05500610071008104C
:107B9000D8B4CDEF3DF0CFEF3DF005EF3EF0010E54
:107BA0000D6ED9EF3DF0D89005360636073608360B
:107BB0000D2A08AEDEEF3DF0E0EF3DF0D3EF3DF0F3
:107BC000D89009360A360B360C360550015C065043
:107BD00002580750035808500458D8A0F2EF3DF05F
:107BE000F4EF3DF0FDEF3DF00550015E0650025A06
:107BF0000750035A0850045A0980D89008320732B7
:107C0000063205320D2EE0EF3DF009C001F00AC04A
:107C100002F00BC003F00CC004F01200020E096E5B
:107C2000040E086EBA0EE82EFED7082EFCD7092ED9
:107C3000FAD700D0AE0EAAEC3CF0200EAAEC3CF035
:107C4000020EAAEC3CF0B00EAAEC3CF0C80EAAEC76
:107C50003CF0000EAAEC3CF0100EAAEC3CF0400EFA
:107C6000AAEC3CF0810EAAEC3CF07F0EAAEC3CF0B2
:107C7000A10EAAEC3CF0A60EAAEC3CF0A80EAAECD1
:107C80003CF03F0EAAEC3CF0A40EAAEC3CF0D30E64
:107C9000AAEC3CF0000EAAEC3CF0D50EAAEC3CF0AD
:107CA000800EAAEC3CF0D90EAAEC3CF0F10EAAEC46
:107CB0003CF0DA0EAAEC3CF0120EAAEC3CF0DB0E23
:107CC000AAEC3CF0400EAAEC3CF08D0EAAEC3CF085
:107CD000140EAAEC3CF0AF0EAAEC3CF00DEC3DF01B
:107CE00012000C6E0A0E0C18D8A479EF3EF07BEF50
:107CF0003EF08FEF3EF0176A070E166082EF3EF0FF
:107D000084EF3EF087EF3EF0162A88EF3EF0166AC9
:107D100016C004F01750E7EC3CF0F7EF3EF00CC053
:107D20000EF01F0E0E6497EF3EF099EF3EF0A1EFBC
:107D30003EF07F0E0E649FEF3EF0A1EF3EF0A3EF0A
:107D40003EF03F0E0E6E7A0E1764A9EF3EF0ABEFD9
:107D50003EF0BDEF3EF0176A070E1660B2EF3EF040
:107D6000B4EF3EF0B7EF3EF0162AB8EF3EF0166AD9
:107D700016C004F01750E7EC3CF0E00E0E24066E3F
:107D8000076AFF0E0722050E0602F3CF08F0F4CFB4
:107D900009F00702F350092608C00AF009C00BF0E9
:107DA0007CEC3CF00D6AF10E066E7D0E076E0D50F8
:107DB0000626000E07220A5006260B50072206C090
:107DC000F6FF07C0F7FF0800F55069EC3CF00D2AFC
:107DD000040E0D64EEEF3EF0F0EF3EF0D3EF3EF018
:107DE000000E69EC3CF066EC3CF0060E1726120023
:107DF00000000000000000005F0000000700070016
:107E0000147F147F14242A7F2A12231308646236F5
:107E1000495522500005030000001C22410000418A
:107E2000221C0014083E081408083E0808005030C0
:107E3000000008080808080060600000201008041E
:107E4000023E5149453E00427F4000426151494651
:107E50002141454B311814127F1027454545393CC7
:107E60004A494930017109050336494949360649ED
:107E700049291E003636000000563600000814223C
:107E80004100141414141400412214080201510971
:107E900006324979413E7E1111117E7F49494936AA
:107EA0003E414141227F4141221C7F494949417F56
:107EB000090909013E4149497A7F0808087F0041C4
:107EC0007F41002040413F017F081422417F404014
:107ED00040407F020C027F7F0408107F3E414141F9
:107EE0003E7F090909063E4151215E7F0919294655
:107EF000464949493101017F01013F4040403F1F50
:107F00002040201F7F2018207F6314081463070877
:107F10007008076151494543007F41410002040850
:107F200010200041417F0004020102044040404013
:107F300040000102040020545454787F48444438DF
:107F40003844444420384444487F38545454180832
:107F50007E0901020C5252523E7F0804047800440C
:107F60007D40002040443D007F1028440000417FB8
:107F700040007C041804787C0804047838444444A5
:107F8000387C14141408081414187C7C08040408A1
:107F90004854545420043F4440203C4040207C1C22
:107FA0002040201C3C4030403C44281028440C50C9
:107FB00050503C4464544C44000836410000007F5B
:107FC0000000004136080008082A1C0800000000D4
:107FD000005369676E6F7320566974616C65730036
:107FE000456E20657370657261004F4C4544204FAB
:0B7FF0004B004C454473204F4B000039
:047FFC0075EF3CF0F1
:020000040030CA
:0E0000000008181EFF8181FF0FC00FE00F40A7
:00000001FF
