:04000000FEEF3FF0E0
:105C7600928212008C9212008C8212008C94120076
:105C86008C8412008C80120089929292120085EC0C
:105C96002EF012003BEC2EF01200036E0350A8EC1F
:105CA6002EF012009590959295948C908C928C94EF
:105CB60012007AEC2EF0780EA8EC2EF0400EA8EC2E
:105CC6002EF0120080B26AEF2EF06DEF2EF0010E6C
:105CD6006EEF2EF0000E120029EC2FF0C582C5B231
:105CE60077EF2EF079EF2EF072EF2EF0120029ECFE
:105CF6002FF0C580C5B082EF2EF084EF2EF07DEF39
:105D06002EF0120029EC2FF0C584C5B48DEF2EF0CD
:105D16008FEF2EF088EF2EF01200016E9EA896EF00
:105D26002EF098EF2EF091EF2EF001C0ADFF12008D
:105D360004C002F005C003F00EEC31F0F50E026E61
:105D46007F0E036E0EEC31F01200026E29EC2FF07E
:105D560002C0C9FF9EA6B2EF2EF0B4EF2EF0ADEF53
:105D66002EF09E96C5501200046E7AEC2EF0AE0E02
:105D7600A8EC2EF00450A8EC2EF00350A8EC2EF060
:105D860085EC2EF01200036E7AEC2EF0780EA8EC5D
:105D96002EF0000EA8EC2EF00350A8EC2EF085ECA9
:105DA6002EF01200949C948EAC6AAB6AB86AAC98DA
:105DB600AC84B886B06ACF0EAF6EAB8EAC8AAB88B9
:105DC6001200016E0150D8A4EBEF2EF0EDEF2EF08D
:105DD600F1EF2EF043EC2EF0F3EF2EF041EC2EF027
:105DE60012000001806B7F6B7E6B7D6B00EE45F0D1
:105DF6001A0EEE6AE806FDE1000EF86E0001B3EF3A
:105E060039F0026E036A0250010BB1EC2FF0D89004
:105E16000232032A070E036413EF2FF015EF2FF05B
:105E260006EF2FF0120047EC2EF0040EE82EFED7F8
:105E36003BEC2EF0060EE82EFED765EC2EF0016E3A
:105E4600240EE82EFED700D001501200C5CF01F077
:105E56001F0E0116D8A432EF2FF034EF2FF029EFE2
:105E66002FF0C7B439EF2FF03BEF2FF029EF2FF0CB
:105E76001200E50E046E7F0E056E9BEC2EF0160EDC
:105E8600046E7E0E056E9BEC2EF0C50E046E7D0E26
:105E9600056E9BEC2EF0120092EC2FF00009D8A4B0
:105EA60057EF2FF059EF2FF05CEF2FF0000E63EF56
:105EB6002FF0CC0E04EC2FF0440E04EC2FF0010E64
:105EC6001200046E7AEC2EF0AE0EA8EC2EF0045002
:105ED600A8EC2EF06FEC2EF0AF0EA8EC2EF0000E14
:105EE6001AEC30F0056E85EC2EF005501200026EAD
:105EF6000204D8A481EF2FF083EF2FF08FEF2FF05D
:105F06000104D8A489EF2FF08BEF2FF08FEF2FF03D
:105F16003FEC2EF091EF2FF03DEC2EF0120047EC07
:105F26002EF0C00E00D0E82EFDD73BEC2EF02E0E44
:105F3600E82EFED700D065EC2EF00009D8B4A6EF07
:105F46002FF0A9EF2FF0010EAAEF2FF0000E016E31
:105F5600A40E00D0E82EFDD701501200016E0150AC
:105F6600D8B4B8EF2FF0BAEF2FF0C7EF2FF047EC09
:105F76002EF0040EE82EFED73BEC2EF02A0EE82E6D
:105F8600FED700D0D2EF2FF047EC2EF0280EE82EE9
:105F9600FED73BEC2EF0060EE82EFED700D0120000
:105FA600720ED36E0F0EC16E070EB46EB56A55EC47
:105FB6002EF045EC2EF03DEC2EF043EC2EF0D5EC19
:105FC6002EF0A00E0E6E860E0F6E010E106E000ED7
:105FD600116EE0EC30F01BEC35F065EC30F04DEC7A
:105FE6002EF01200046A056A16EC2FF00009D8B4E8
:105FF600FFEF2FF001EF30F00FEF30F005C002F0A9
:10600600010E036E022A0AEF30F0D8900336022EF4
:1060160008EF30F003500412052A070E056416EF48
:1060260030F018EF30F0F7EF2FF004501200026E48
:1060360029EC2FF0C586C7A023EF30F025EF30F00E
:106046001EEF30F0C9CF03F029EC2FF00250D8B480
:106056002FEF30F031EF30F034EF30F0C59A35EFF6
:1060660030F0C58AC588C5B83BEF30F03DEF30F05B
:1060760036EF30F003501200056E7F0E056446EFD2
:1060860030F048EF30F049EF30F0056A070E04644F
:106096004FEF30F051EF30F052EF30F0046A05C0A8
:1060A6005DF004C05CF00450B00FC6EC2EF0055055
:1060B6000F0BC6EC2EF005380F0B0F0B100FC6ECAE
:1060C6002EF01200076A07C004F0000E3FEC30F015
:1060D6005CEC2EF0066A000E50EC2EF0062A7F0EBF
:1060E600066478EF30F07AEF30F06EEF30F04AEC7D
:1060F6002EF0072A070E076483EF30F085EF30F0A5
:1061060066EF30F0000E046E000E3FEC30F0120029
:10611600036E0304D8A492EF30F094EF30F0B3EF9F
:1061260030F002BEA0EF30F0F00E015C0A0E02580D
:10613600D8A0A0EF30F0A2EF30F0B3EF30F002BEFF
:10614600B0EF30F0950E015C110E0258D8B0AEEFEC
:1061560030F0B0EF30F0B3EF30F0010EB4EF30F0C6
:10616600000E12005E50D8A4BBEF30F0BDEF30F049
:10617600CFEF30F0045003100BE1300E015C750ECA
:106186000258D8A0C9EF30F0CBEF30F0DEEF30F098
:10619600010E5E6EDEEF30F00450031009E1200EB2
:1061A600015C4E0E0258D8B0DBEF30F0DDEF30F078
:1061B600DEEF30F05E6A5E50120093809382C66A0C
:1061C600C56AC76A280EC66EC78E000E016E120E0D
:1061D600026E7A0E036E000E046E0EC012F00FC031
:1061E60013F010C014F011C015F0020ED89012363C
:1061F600133614361536E82EF9EF30F012C005F0D6
:1062060013C006F014C007F015C008F064EC33F0B4
:106216000104C86E120024EF31F002C0F6FF03C07D
:10622600F7FFF86A070EF76403D00800F55005D0AB
:10623600F6CFE1FFF7CFE2FFE75090EC2EF0024AEF
:10624600032A02C0F6FF03C0F7FFF86A070EF764D9
:1062560003D00800F55005D0F6CFE1FFF7CFE2FFF7
:10626600E7500009D8A43AEF31F03CEF31F010EFD7
:1062760031F0120053EF31F00FC0F6FF10C0F7FFF8
:10628600F86A070EF76403D00800F55005D0F6CF7C
:10629600E1FFF7CFE2FFE75078EC36F00F4A102A1D
:1062A6000FC0F6FF10C0F7FFF86A070EF76403D0B9
:1062B6000800F55005D0F6CFE1FFF7CFE2FFE75033
:1062C6000009D8A469EF31F06BEF31F03FEF31F000
:1062D600120003500410D8B473EF31F075EF31F0AB
:1062E60099EF31F0010E056E7DEF31F0D89003364F
:1062F6000436052A04AE82EF31F084EF31F079EFEF
:1063060031F00350015C04500258D8A08DEF31F0F3
:106316008FEF31F093EF31F00350015E0450025AD3
:10632600D89004320332052E84EF31F001C001F01B
:1063360002C002F01200000E096E000E0A6E000E78
:106346000B6E000E0C6E01A0ABEF31F0ADEF31F02D
:10635600B5EF31F00550092606500A2207500B22E8
:1063660008500C22D8900536063607360836D890DF
:1063760004320332023201320150021003100410BB
:10638600D8A4C8EF31F0CAEF31F0A6EF31F009C05A
:1063960001F00AC002F00BC003F00CC004F01200BA
:1063A600000E556E000E566E000E576E000E586E9D
:1063B600000E00017D6F000E7E6F000E7F6F000ED7
:1063C600806F000E516E000E526E000E536E000E60
:1063D600546E000E4D6E000E4E6E000E4F6E000E89
:1063E600506E000E496E000E4A6E000E4B6E000E89
:1063F6004C6E000E456E000E466E000E476E000E89
:10640600486E5A6A000E596E5B6A1200066A000EE2
:10641600056E03500410D8B413EF32F015EF32F0C6
:106426003DEF32F0010E076E1DEF32F0D8900336C5
:106436000436072A04AE22EF32F024EF32F019EFC9
:1064460032F0D890053606360350015C04500258E7
:10645600D8A030EF32F032EF32F037EF32F003509F
:10646600015E0450025A0580D89004320332072E8A
:1064760024EF32F005C001F006C002F0120005500C
:10648600061007100810D8B44BEF32F04DEF32F07B
:106496007DEF32F0010E096E57EF32F0D8900536D7
:1064A600063607360836092A08AE5CEF32F05EEF8C
:1064B60032F051EF32F00550015C06500258075099
:1064C600035808500458D8A06BEF32F06DEF32F045
:1064D60075EF32F00550015E0650025A0750035A16
:1064E6000850045AD8900832073206320532092E6F
:1064F6005EEF32F001C001F002C002F003C003F00B
:1065060004C004F012000B6E7AEC2EF0AE0EA8EC6E
:106516002EF00B50A8EC2EF06FEC2EF0AF0EA8EC80
:106526002EF00C6AC2EF32F0FF0E0524066E076AE3
:10653600FF0E07220C50086E096A0650085C0950C7
:10654600800A0A6E0750800A0A58D8B0ADEF32F0BA
:10655600AFEF32F0B9EF32F004500C24D96EDA6A9C
:10656600010E1AEC30F0DF6EC1EF32F004500C244D
:10657600D96EDA6A000E1AEC30F0DF6E0C2A05507E
:106586000C5CD8A0C9EF32F0CBEF32F097EF32F0C7
:1065960085EC2EF01200106A08500910D8A4D6EF28
:1065A60032F0D8EF32F0FBEF32F0300E90EC2EF0F6
:1065B60016EF33F010500A0FD96EDA6A08C001F0F0
:1065C60009C002F0046A0A0E036E6CEC31F0015049
:1065D600300FDF6E08C001F009C002F0046A0A0E2F
:1065E600036E09EC32F001C008F002C009F0102A6F
:1065F60008500910D8A402EF33F004EF33F0DDEFB2
:1066060032F00EEF33F0100610500A0FD96EDA6A28
:10661600DF5090EC2EF01050D8A414EF33F016EFA4
:1066260033F006EF33F0120092EC2FF00009D8A4F5
:106636001FEF33F021EF33F024EF33F0000E63EF5A
:1066460033F0CC0E04EC2FF0BE0E04EC2FF0F5EC7C
:106656002FF0206EF5EC2FF0216E21501C6E20508D
:106666001E6E1CC01FF01EC001F01FC002F0000EFF
:1066760002BEFF0E036E046E710E056E020E066EEE
:10668600000E076E000E086E9EEC31F001C00DF094
:1066960002C00EF003C00FF004C010F0640E116EBD
:1066A600000E126E000E136E000E146EF3EC35F033
:1066B6001B50D96EDA6A0DC0DEFF0EC0DDFF010E7B
:1066C6001200000E096E000E0A6E000E0B6E000E12
:1066D6000C6E0550061007100810D8B475EF33F08D
:1066E60077EF33F0ADEF33F0010E0D6E81EF33F03F
:1066F600D89005360636073608360D2A08AE86EFD8
:1067060033F088EF33F07BEF33F0D89009360A3652
:106716000B360C360550015C0650025807500358DC
:1067260008500458D8A09AEF33F09CEF33F0A5EF49
:1067360033F00550015E0650025A0750035A0850BE
:10674600045A0980D89008320732063205320D2ED7
:1067560088EF33F009C001F00AC002F00BC003F065
:106766000CC004F01200FF0E64EC2FF0086E150E3C
:106776000818D8B4C1EF33F0C3EF33F0C6EF33F0E7
:10678600000E08EF34F0400E036E090EB7EC2EF043
:10679600020E076E040E066EBA0EE82EFED7062E01
:1067A600FCD7072EFAD700D0000E036E040EB7EC06
:1067B6002EF0000E036E050EB7EC2EF0000E036EE3
:1067C600060EB7EC2EF01F0E036E080EB7EC2EF079
:1067D600030E036E090EB7EC2EF0270E036E0A0E9B
:1067E600B7EC2EF0240E036E0C0EB7EC2EF0240E32
:1067F600036E0D0EB7EC2EF0000E64EC2FF0010EBA
:1068060064EC2FF0D3EC31F0010E1200066A02BEE2
:1068160011EF34F00FEF34F017EF34F0016C021E75
:10682600D8B0022A010E066E04BE1EEF34F01CEF2D
:1068360034F022EF34F0036C041ED8B0042A03505F
:106846000410D8B429EF34F02BEF34F04FEF34F0C6
:10685600010E056E33EF34F0D89003360436052A60
:1068660004AE38EF34F03AEF34F02FEF34F0035043
:10687600015C04500258D8A043EF34F045EF34F0E1
:1068860049EF34F00350015E0450025AD8900432A6
:106896000332052E3AEF34F00650D8B455EF34F0F3
:1068A60057EF34F05BEF34F0016C021ED8B0022AC9
:1068B60001C001F002C002F01200126A116A08500B
:1068C6000910D8A469EF34F06BEF34F096EF34F08A
:1068D6000A50D96EDA6A300EDF6E0A50D96EDA6A5D
:1068E600010ED926DF6ABAEF34F012500B0FD96EBB
:1068F600DA6A08C001F009C002F0046A0A0E036EE3
:106906006CEC31F00150300FDF6E08C001F009C0A9
:1069160002F0046A0A0E036E09EC32F001C008F0B8
:1069260002C009F0122A08500910D8A49DEF34F0CD
:106936009FEF34F078EF34F0ADEF34F012061250DA
:106946000B0FD96EDA6A0A501124E16EE26ADFCFC4
:10695600E7FF112A1250D8A4B3EF34F0B5EF34F0A4
:10696600A1EF34F00A501124D96EDA6ADF6A1200F8
:10697600066A04BEC3EF34F0C1EF34F0C9EF34F059
:10698600036C041ED8B0042A010E066E02BED0EFB8
:1069960034F0CEEF34F0D6EF34F0016C021ED8B0EE
:1069A600022A010E061A086A000E076E035004102A
:1069B600D8B4E0EF34F0E2EF34F00AEF35F0010E30
:1069C600056EEAEF34F0D89003360436052A04AE95
:1069D600EFEF34F0F1EF34F0E6EF34F0D89007360D
:1069E60008360350015C04500258D8A0FDEF34F07D
:1069F600FFEF34F004EF35F00350015E0450025A05
:106A06000780D89004320332052EF1EF34F0065099
:106A1600D8B410EF35F012EF35F016EF35F0076CFD
:106A2600081ED8B0082A07C001F008C002F01200FC
:106A3600020E096E040E086EBA0EE82EFED7082E58
:106A4600FCD7092EFAD700D0AE0EC6EC2EF0200EDB
:106A5600C6EC2EF0020EC6EC2EF0B00EC6EC2EF0F2
:106A6600C80EC6EC2EF0000EC6EC2EF0100EC6ECCC
:106A76002EF0400EC6EC2EF0810EC6EC2EF07F0EE8
:106A8600C6EC2EF0A10EC6EC2EF0A60EC6EC2EF02D
:106A9600A80EC6EC2EF03F0EC6EC2EF0A40EC6ECE9
:106AA6002EF0D30EC6EC2EF0000EC6EC2EF0D50E50
:106AB600C6EC2EF0800EC6EC2EF0D90EC6EC2EF0EB
:106AC600F10EC6EC2EF0DA0EC6EC2EF0120EC6EC67
:106AD6002EF0DB0EC6EC2EF0400EC6EC2EF08D0E20
:106AE600C6EC2EF0140EC6EC2EF0AF0EC6EC2EF051
:106AF60065EC30F012001F6A1E6A0E500F1010105F
:106B06001110D8A489EF35F08BEF35F0CCEF35F0C6
:106B16001250D96EDA6A300EDF6E1250D96EDA6A0A
:106B2600010ED926DF6AF2EF35F01F50130FD96E2A
:106B3600DA6A0EC001F00FC002F010C003F011C0F7
:106B460004F00A0E056E000E066E000E076E000EAD
:106B5600086E42EC32F00150300FDF6E0EC001F0CD
:106B66000FC002F010C003F011C004F00A0E056E4B
:106B7600000E066E000E076E000E086E64EC33F013
:106B860001C00EF002C00FF003C010F004C011F0F7
:106B96001F2A0E500F1010101110D8A4D5EF35F083
:106BA600D7EF35F098EF35F0E5EF35F01F061F50BB
:106BB600130FD96EDA6A12501E24E16EE26ADFCF35
:106BC600E7FF1E2A1F50D8A4EBEF35F0EDEF35F0A6
:106BD600D9EF35F012501E24D96EDA6ADF6A120038
:106BE600166A14BEFBEF35F0F9EF35F005EF36F017
:106BF600141E131E121E116C000E122213221422D2
:106C0600010E166E10BE0CEF36F00AEF36F016EFD8
:106C160036F0101E0F1E0E1E0D6C000E0E220F22D9
:106C26001022010E161A000E176E000E186E000EB8
:106C3600196E000E1A6E1150121013101410D8B4DB
:106C460027EF36F029EF36F05FEF36F0010E156EBE
:106C560033EF36F0D8901136123613361436152A1D
:106C660014AE38EF36F03AEF36F02DEF36F0D89016
:106C76001736183619361A3611500D5C12500E5842
:106C860013500F5814501058D8A04CEF36F04EEF52
:106C960036F057EF36F011500D5E12500E5A135063
:106CA6000F5A1450105A1780D890143213321232D9
:106CB6001132152E3AEF36F01650D8B465EF36F08D
:106CC60067EF36F06FEF36F01A1E191E181E176C96
:106CD600000E182219221A2217C00DF018C00EF045
:106CE60019C00FF01AC010F012000C6E0A0E0C1824
:106CF600D8A480EF36F082EF36F096EF36F05D6A74
:106D0600070E5C6089EF36F08BEF36F08EEF36F0CB
:106D16005C2A8FEF36F05C6A5CC004F05D503FEC95
:106D260030F0FEEF36F00CC00EF01F0E0E649EEF34
:106D360036F0A0EF36F0A8EF36F07F0E0E64A6EF21
:106D460036F0A8EF36F0AAEF36F03F0E0E6E7A0E4A
:106D56005D64B0EF36F0B2EF36F0C4EF36F05D6A40
:106D6600070E5C60B9EF36F0BBEF36F0BEEF36F0DB
:106D76005C2ABFEF36F05C6A5CC004F05D503FEC05
:106D860030F0E00E0E24066E076AFF0E0722050E8F
:106D96000602F3CF08F0F4CF09F00702F3500926F4
:106DA60008C00AF009C00BF05CEC2EF00D6AE50E87
:106DB600066E7B0E076E0D500626000E07220A5041
:106DC60006260B50072206C0F6FF07C0F7FF08008D
:106DD600F55050EC2EF00D2A040E0D64F5EF36F04A
:106DE600F7EF36F0DAEF36F0000E50EC2EF04AEC04
:106DF6002EF0060E5D261200236A246A14BE08EFE2
:106E060037F006EF37F01CEF37F01550D96EDA6A17
:106E16002D0EDF6E242A13C016F014C017F0161EAE
:106E2600171E164A172A16C020F017C021F020EFA9
:106E360037F013C020F014C021F020C001F021C0AB
:106E460002F0046A640E036E09EC32F001C01EF013
:106E560002C01FF020C001F021C002F0046A640ED7
:106E6600036E6CEC31F00150226E1EC008F01FC09C
:106E760009F0180E0A6E60EC34F04EEF37F023502E
:106E8600180FD96EDA6A15502424E16EE26ADFCF54
:106E9600E7FF232A242A2350180FD96EDA6ADF5017
:106EA600D8A458EF37F05AEF37F042EF37F01550C5
:106EB6002424D96EDA6A2E0EDF6E242A1550242475
:106EC600D96EDA6A22C001F0026A046A0A0E036EFB
:106ED600BBEC34F00150300FDF6E242A1550242409
:106EE600D96EDA6A22C001F0026A046A0A0E036EDB
:106EF60009EC34F00150300FDF6E242A155024249B
:106F0600D96EDA6ADF6A12001F0E046E060E056E6F
:106F1600070E86EC32F020C00FF0106A116A126A72
:106F260011C012F010C011F00FC010F00F6A1FC090
:106F360013F0146A156A166A14C016F013C015F019
:106F4600146A136A0F501310176E10501410186E2F
:106F560011501510196E125016101A6E2150171076
:106F66001B6E18501C6E19501D6E1A501E6E0D5059
:106F7600D96EDA6A1BC0DEFF1CC0DEFF1DC0DEFF55
:106F86001EC0DEFF23C00FF0106A116A126A11C01C
:106F960012F010C011F00FC010F00F6A22C013F0EB
:106FA600146A156A166A14C016F013C015F0146A2E
:106FB600136A0F501310176E10501410186E1150DC
:106FC6001510196E125016101A6E245017101B6EDB
:106FD60018501C6E19501D6E1A501E6E0E50D96E2A
:106FE600DA6A1BC0DEFF1CC0DEFF1DC0DEFF1EC04E
:106FF600DEFF0D50D96EDA6AFF0EDE16FF0EDE16C4
:10700600030EDE16000EDE160E50D96EDA6AFF0E7D
:10701600DE16FF0EDE16030EDE16000EDE1612005C
:10702600396E65EC30F0000E046E0A0E3FEC30F05F
:10703600480E0F6E7F0E106E3DEC31F0020E046EA0
:107046000A0E3FEC30F03950D8A42CEF38F02EEF72
:1070560038F036EF38F0730E0F6E7F0E106E3DEC83
:1070660031F05FEF38F02950D8A43CEF38F03EEF0E
:1070760038F046EF38F0390E0F6E7F0E106E3DEC8D
:1070860031F05FEF38F0F10E0F6E7F0E106E3DECB3
:1070960031F02AC008F02BC009F02D0E0A6E60EC04
:1070A60034F02D0E0F6E106A3DEC31F0EC0E0F6EC3
:1070B6007F0E106E3DEC31F0040E046E0A0E3FECAE
:1070C60030F03950D8A46AEF38F06CEF38F074EF2E
:1070D60038F00B0E0F6E7F0E106E3DEC31F0ADEFFB
:1070E60038F02550D8A47AEF38F07CEF38F084EFEA
:1070F60038F0650E0F6E7F0E106E3DEC31F0ADEF81
:1071060038F02650D8A48AEF38F08CEF38F094EF98
:1071160038F00B0E0F6E7F0E106E3DEC31F0ADEFBA
:1071260038F0E60E0F6E7F0E106E3DEC31F027C084
:1071360013F028C014F02D0E156EFFEC36F02D0E50
:107146000F6E106A3DEC31F0F80E0F6E7F0E106E6A
:107156003DEC31F0060E046E0A0E3FEC30F02C507A
:10716600D8B4B8EF38F0BAEF38F0C2EF38F0A60E60
:107176000F6E7F0E106E3DEC31F0C8EF38F0810EC9
:107186000F6E7F0E106E3DEC31F0120025C008F038
:1071960026C009F0CEEC32F0E40E026E7F0E036ECE
:1071A6000EEC31F02750D8A4DBEF38F0DDEF38F0E5
:1071B600EBEF38F0570E026E7F0E036E0EEC31F0D9
:1071C600D10E026E7F0E036E0EEC31F013EF39F026
:1071D6002C50D8A4F1EF38F0F3EF38F001EF39F086
:1071E600B20E026E7F0E036E0EEC31F08E0E026E44
:1071F6007F0E036E0EEC31F013EF39F0B20E026E15
:107206007F0E036E0EEC31F02DC008F02EC009F093
:10721600CEEC32F0D30E026E7F0E036E0EEC31F022
:107226002750D8A419EF39F01BEF39F029EF39F0C0
:10723600570E026E7F0E036E0EEC31F0E00E026EFC
:107246007F0E036E0EEC31F06EEF39F02850D8A4A5
:107256002FEF39F031EF39F03FEF39F0B20E026E11
:107266007F0E036E0EEC31F0C80E026E7F0E036EBB
:107276000EEC31F06EEF39F02950D8A445EF39F015
:1072860047EF39F055EF39F0570E026E7F0E036E59
:107296000EEC31F0E00E026E7F0E036E0EEC31F056
:1072A6006EEF39F0B20E026E7F0E036E0EEC31F009
:1072B6002AC013F02BC014F0380E156EFFEC36F012
:1072C600380E026E036A0EEC31F0E20E026E7F0E8D
:1072D600036E0EEC31F02FC00EF030C00FF031C04F
:1072E60010F032C011F0380E126E7EEC35F0380E0A
:1072F600026E036A0EEC31F0E40E026E7F0E036E30
:107306000EEC31F033C00EF034C00FF035C010F083
:1073160036C011F0380E126E7EEC35F0380E026E65
:10732600036A0EEC31F0E40E026E7F0E036E0EEC75
:1073360031F03750D8B4A2EF39F0A4EF39F0ACEF02
:1073460039F0AF0E046E7F0E056E9BEC2EF0B2EF99
:1073560039F0D90E046E7F0E056E9BEC2EF01200EE
:10736600000E00016A6F000E6B6F000E6C6F000E50
:107376006D6F000E756F000E766F000E776F000E44
:10738600786F666B726B000E716F7A6B000E796F99
:107396007B6B736B746B686B000E676F616B000EB3
:1073A600606F636B000E626F656B000E646FD3ECEB
:1073B6002FF0B6EC33F00001706F7051D8A4E6EFF1
:1073C60039F0E8EF39F01DEF3AF03DEC2EF041ECE4
:1073D6002EF065EC30F0000E046E0A0E3FEC30F035
:1073E6001B0E0F6E7F0E106E3DEC31F0020E046E1A
:1073F6000A0E3FEC30F0BD0E0F6E7F0E106E3DECA8
:1074060031F0040E046E0A0E3FEC30F09A0E0F6E49
:107416007F0E106E3DEC31F0C20E046E7E0E056ED0
:107426009BEC2EF0DF0E046E7E0E056E9BEC2EF0AE
:107436001BEF3AF0FA0E046E7E0E056E9BEC2EF0F4
:10744600A10E046E7E0E056E9BEC2EF0570E046E9A
:107456007E0E056E9BEC2EF03CEC2FF065EC30F0CA
:10746600000E046E0A0E3FEC30F0480E0F6E7F0ED3
:10747600106E3DEC31F0020E046E0A0E3FEC30F059
:107486002A0E0F6E7F0E106E3DEC31F043EC2EF09F
:107496006A0E0D6E750E0E6E87EC37F075C001F034
:1074A60076C002F077C003F078C004F0B5EC30F097
:1074B60000017C6F7C51E4EC2EF000017C05D8A421
:1074C60067EF3AF069EF3AF09DEF3AF06651D8A4CB
:1074D6006FEF3AF071EF3AF09DEF3AF0D3EC31F0FE
:1074E6000001726B000E716F7A6B000E796F7B6B09
:1074F600686B000E676F4FEC2FF00001746F7451CC
:10750600D8B488EF3AF08AEF3AF08EEF3AF0010EEF
:10751600736F8FEF3AF0736BE50E046E7F0E056E98
:107526009BEC2EF07E0E046E7E0E056E9BEC2EF00E
:107536003CEC2FF000017C51D8A4A4EF3AF0A6EF62
:107546003AF0B8EF3AF0726B000E716F6E6B7A6BB1
:10755600000E796F7B6B6F6B746B686B000E676FD9
:10756600736BD3EC31F010EF3BF075C01BF076C0B7
:107576001CF077C01DF078C01EF0710E1F6E98ECDF
:107586003BF000016E6F7451D8B4CCEF3AF0CEEFF9
:107596003AF0F4EF3AF0674B682B685109E1500E68
:1075A600675DD8A0D9EF3AF0DBEF3AF007EF3BF092
:1075B600790E1B6E17EC33F000017B6F7B51D8B44C
:1075C600E7EF3AF0E9EF3AF0EDEF3AF0010E736FBC
:1075D600EEEF3AF0736B746B686B000E676F07EF34
:1075E6003BF04FEC2FF00001746F7451D8B4FEEFEE
:1075F6003AF000EF3BF004EF3BF0010E736FEFEF54
:107606003AF0736BEFEF3AF079C001F07AC002F00E
:107616007B518BEC30F000016F6F00017005D8A430
:1076260017EF3BF019EF3BF025EF3BF07305D8A4BD
:107636001FEF3BF021EF3BF025EF3BF0010E696FAA
:1076460026EF3BF0696B73C001F070517AEC2FF0B6
:107656000001644B652B655109E1640E645DD8A099
:1076660037EF3BF039EF3BF066EF3BF0656B000E12
:10767600646F604B612B60C025F061C026F07CC052
:1076860027F07BC028F06FC029F079C02AF07AC0B5
:107696002BF06EC02CF071C02DF072C02EF06AC0B7
:1076A6002FF06BC030F06CC031F06DC032F075C099
:1076B60033F076C034F077C035F078C036F069C064
:1076C60037F0C9EC38F00001624B632B635109E1D6
:1076D600640E625DD8A072EF3BF074EF3BF08AEF68
:1076E6003BF0636B000E626F7BC025F06FC026F027
:1076F60079C027F07AC028F06EC029F071C02AF050
:1077060072C02BF069C02CF07C5113EC38F07CC0B1
:1077160066F01A0E446EF80EE82EFED7442EFCD7FD
:1077260000D04BEF3AF0FEEF3FF01E501D1009E17E
:10773600200E1B5C4E0E1C58D8B0A4EF3BF0A6EFF3
:107746003BF0ABEF3BF0D3EC31F0000EF1EF3DF048
:10775600010E4926000E4A224B224C225550561045
:1077660057105810D8A4BAEF3BF0BCEF3BF0D7EF58
:107776003BF01BC055F01CC056F01DC057F01EC094
:1077860058F0000E00017D6F000E7E6F000E7F6FB9
:10779600000E806F000E516E000E526E000E536E7C
:1077A600000E546EA8EF3BF055C001F056C002F033
:1077B60057C003F058C004F01F0E056E000E066E8B
:1077C600000E076E000E086E9EEC31F01B50012471
:1077D6000D6E1C5002200E6E1D5003200F6E1E50A3
:1077E6000420106E200E116E000E126E000E136E27
:1077F600000E146EF3EC35F00DC055F00EC056F0C9
:107806000FC057F010C058F055501B5C386E5650DC
:107816001C58396E57501D583A6E58501E583B6EBC
:107826003BBE1AEF3CF018EF3CF035EF3CF038C0A9
:1078360020F039C021F03AC022F03BC023F0201ED0
:10784600211E221E231E202A000E2122222223224E
:1078560020C024F021C025F022C026F023C027F046
:107866003DEF3CF038C024F039C025F03AC026F090
:107876003BC027F04DC001F04EC002F04FC003F0F0
:1078860050C004F00F0E056E000E066E000E076E59
:10789600000E086E9EEC31F024500124206E255017
:1078A6000220216E26500320226E27500420236ECC
:1078B600050E63EF3CF0D89023322232213220327B
:1078C600E82E5EEF3CF020C04DF021C04EF022C005
:1078D6004FF023C050F04DC020F04EC021F04FC0F5
:1078E60022F050C023F0D8902332223221322032A7
:1078F60020C028F021C029F022C02AF023C02BF096
:107906002B502A10291007E1500E285CD8B08EEFB4
:107916003CF090EF3CF098EF3CF0500E286E000ED5
:10792600296E000E2A6E000E2B6E4C504B104A101C
:1079360007E1320E495CD8B0A3EF3CF0A5EF3CF06E
:10794600B7EF3CF051C07DF052C07EF053C07FF0DF
:1079560054C080F038C051F039C052F03AC053F0EC
:107966003BC054F0A8EF3BF0515000017D5D5250F2
:107976007E5953507F598051800A206E5450800A98
:107986002058D8B0C9EF3CF0CBEF3CF0D1EF3DF03A
:107996005150385C5250395853503A583B50800A2F
:1079A600206E5450800A2058D8B0DCEF3CF0DEEF51
:1079B6003CF0D1EF3DF05150285C525029585350BD
:1079C6002A582B50800A206E5450800A2058D8B06E
:1079D600EFEF3CF0F1EF3CF0D1EF3DF0FF0E492424
:1079E6002C6EFF0E4A202D6EFF0E4B202E6EFF0EC4
:1079F6004C202F6E4550461047104810D8B406EF5D
:107A06003DF008EF3DF021EF3DF045502C5C206E37
:107A160046502D58216E47502E58226E48502F58EA
:107A2600236E23502210211009E1280E205CD8A0D5
:107A36001FEF3DF021EF3DF0D1EF3DF045504610F0
:107A460047104810D8B42AEF3DF02CEF3DF0C9EFAF
:107A56003DF045502C5C306E46502D58316E4750E7
:107A66002E58326E48502F58336E33503210311024
:107A760009E12E0E305CD8A043EF3DF045EF3DF016
:107A8600C9EF3DF033503210311007E1860E305CFD
:107A9600D8B050EF3DF052EF3DF0C9EF3DF0700E1B
:107AA600016E170E026E000E036E000E046E30C0DD
:107AB60005F031C006F032C007F033C008F064ECC0
:107AC60033F001C034F002C035F003C036F004C014
:107AD60037F037503610351009E12D0E345CD8A03A
:107AE60077EF3DF079EF3DF0C9EF3DF037503610B6
:107AF600351007E1830E345CD8B084EF3DF086EF95
:107B06003DF0C9EF3DF059505A10D8A48DEF3DF025
:107B16008FEF3DF095EF3DF034C059F035C05AF087
:107B2600C0EF3DF059C001F05AC002F0036A046A82
:107B3600030E056E000E066E000E076E000E086E32
:107B46009EEC31F034500124206E35500220216E17
:107B560036500320226E37500420236E030EB9EFF1
:107B66003DF0D8902332223221322032E82EB4EF73
:107B76003DF020C059F021C05AF00A0E5B60C6EFF6
:107B86003DF0C8EF3DF0C9EF3DF05B2A2CC045F053
:107B96002DC046F02EC047F02FC048F051C07DF0F2
:107BA60052C07EF053C07FF054C080F038C051F010
:107BB60039C052F03AC053F03BC054F05B50D8B4D1
:107BC600E7EF3DF0E9EF3DF0A8EF3BF01F50D96E2F
:107BD600DA6A59C0DEFF5AC0DDFF010E120000004E
:107BE6000000000000005F00000007000700147F8F
:107BF600147F14242A7F2A122313086462364955F7
:107C060022500005030000001C2241000041221CF6
:107C16000014083E081408083E080800503000000A
:107C26000808080808006060000020100804023EEA
:107C36005149453E00427F4000426151494621413B
:107C4600454B311814127F1027454545393C4A49A2
:107C5600493001710905033649494936064949291A
:107C66001E00363600000056360000081422410079
:107C76001414141414004122140802015109063286
:107C86004979413E7E1111117E7F494949363E416F
:107C96004141227F4141221C7F494949417F0909CF
:107CA60009013E4149497A7F0808087F00417F4122
:107CB600002040413F017F081422417F4040404060
:107CC6007F020C027F7F0408107F3E4141413E7FC8
:107CD600090909063E4151215E7F0919294646498F
:107CE60049493101017F01013F4040403F1F20408B
:107CF600201F7F2018207F6314081463070870086C
:107D0600076151494543007F4141000204081020A4
:107D16000041417F0004020102044040404040000F
:107D26000102040020545454787F484444383844AF
:107D3600444420384444487F3854545418087E0933
:107D460001020C5252523E7F0804047800447D40E2
:107D5600002040443D007F1028440000417F400041
:107D66007C041804787C0804047838444444387C3D
:107D760014141408081414187C7C080404084854C5
:107D8600545420043F4440203C4040207C1C20406A
:107D9600201C3C4030403C44281028440C50505095
:107DA6003C4464544C44000836410000007F000007
:107DB600004136080008082A1C0800000000002DB3
:107DC6002D2D2D2D2D2D2D2D2D2D2D2D2D2D2D2DDD
:107DD6002D2D2D2D2D2D2D2D2D2D2D2D2D2D2D2DCD
:107DE6002D2D2D2D2D2D2D2D2D2D2D2D2D2D2D2DBD
:107DF6002D2D2D2D2D2D2D2D2D2D2D2D2D2D2D2DAD
:107E06002D2D2D2D2D2D2D2D2D2D2D2D2D2D2D00C9
:107E16004D7565737472610946435F457374616499
:107E26006F0946435F56616C6F720954656D705FEA
:107E360045737461646F0954656D705F56616C6F4C
:107E460072095245440949520953697374656D6153
:107E5600004573706572616E646F206465646F209F
:107E6600706172612061637469766172206D656408
:107E76006963696F6E6573004465646F2064657439
:107E860065637461646F202D206D65646963696F35
:107E96006E206163746976616461004D41583330C8
:107EA6003130322064657465637461646F20636F7A
:107EB6007272656374616D656E7465004552524FEA
:107EC600523A204D41583330313032206E6F2064A3
:107ED600657465637461646F0052657669736520C5
:107EE6005643432C20474E442C20534441207920AE
:107EF60053434C0053697374656D6120696E696301
:107F06006961646F0054656D703A204E6F20646538
:107F160074656374004D4158333031303220455218
:107F2600524F52004573706572616E646F206465CE
:107F3600646F0046433A2043616C63756C616E64FE
:107F46006F005369676E6F7320566974616C657351
:107F5600004E6F2064657465637461646F09005434
:107F6600656D703A204C6579656E646F0046433ADC
:107F7600204E6F206465746563740053697374657D
:107F86006D613A204553500043616C63756C616EB8
:107F9600646F09005344412053434C205643430029
:107FA60053697374656D613A204F4B00446574657F
:107FB600637461646F09005265766973652049329E
:107FC60043004C6579656E646F09002D2D20425083
:107FD6004D0900455350455241002D2D20430900BF
:107FE60054656D703A002042504D0046433A000DEC
:0A7FF6000A0020430000F4EF2EF013
:020000040030CA
:0E0000000008181EFF8181FF0FC00FE00F40A7
:00000001FF
