:04000000FEEF3FF0E0
:1074FE008C8212008C9412008C8012008C921200DE
:10750E008C841200BEEC3AF01200036E0350E1ECD4
:10751E003AF012009590959295948C908C928C9452
:10752E001200186A176A000EF86E0001D2EF3DF0D5
:10753E00B3EC3AF0780EE1EC3AF0400EE1EC3AF0B2
:10754E0012001DEC3BF0C582C5B2B0EF3AF0B2EFBF
:10755E003AF0ABEF3AF012001DEC3BF0C580C5B02F
:10756E00BBEF3AF0BDEF3AF0B6EF3AF012001DEC79
:10757E003BF0C584C5B4C6EF3AF0C8EF3AF0C1EFA0
:10758E003AF01200016E9EA8CFEF3AF0D1EF3AF02A
:10759E00CAEF3AF001C0ADFF120004C002F005C000
:1075AE0003F061EC3BF0F80E026E7F0E036E61ECA1
:1075BE003BF01200026E1DEC3BF002C0C9FF9EA60E
:1075CE00EBEF3AF0EDEF3AF0E6EF3AF09E96C5505B
:1075DE001200046EB3EC3AF0AE0EE1EC3AF0045049
:1075EE00E1EC3AF00350E1EC3AF0BEEC3AF0120066
:1075FE00036EB3EC3AF0780EE1EC3AF0000EE1ECEB
:10760E003AF00350E1EC3AF0BEEC3AF01200949CE2
:10761E00948EAC6AAB6AB86AAC98AC84B886B06A21
:10762E00CF0EAF6EAB8EAC8AAB881200C5CF01F019
:10763E001F0E0116D8A426EF3BF028EF3BF01DEFEE
:10764E003BF0C7B42DEF3BF02FEF3BF01DEF3BF0BF
:10765E001200046EB3EC3AF0AE0EE1EC3AF00450C8
:10766E00E1EC3AF0A8EC3AF0AF0EE1EC3AF0000E95
:10767E007CEC3BF0056EBEEC3AF00550120052EF7A
:10768E003BF00FC0F6FF10C0F7FF0800F5504BECB3
:10769E003DF00F4A102A0FC0F6FF10C0F7FF08008A
:1076AE00F5500009D8A45EEF3BF060EF3BF048EFD9
:1076BE003BF012006DEF3BF002C0F6FF03C0F7FF88
:1076CE000800F550C9EC3AF0024A032A02C0F6FF50
:1076DE0003C0F7FF0800F5500009D8A479EF3BF07E
:1076EE007BEF3BF063EF3BF01200026E1DEC3BF0C4
:1076FE00C586C7A085EF3BF087EF3BF080EF3BF0F0
:10770E00C9CF03F01DEC3BF00250D8B491EF3BF023
:10771E0093EF3BF096EF3BF0C59A97EF3BF0C58A9F
:10772E00C588C5B89DEF3BF09FEF3BF098EF3BF05F
:10773E0003501200056E7F0E0564A8EF3BF0AAEF12
:10774E003BF0ABEF3BF0056A070E0464B1EF3BF084
:10775E00B3EF3BF0B4EF3BF0046A05C018F004C081
:10776E0017F00450B00FFFEC3AF005500F0BFFEC82
:10777E003AF005380F0B0F0B100FFFEC3AF012001A
:10778E00076A07C004F0000EA1EC3BF09FEC3AF044
:10779E00066A000E8CEC3AF0062A7F0E0664DAEFCB
:1077AE003BF0DCEF3BF0D0EF3BF089EC3AF0072AF0
:1077BE00070E0764E5EF3BF0E7EF3BF0C8EF3BF059
:1077CE00000E046E000EA1EC3BF01200720ED36E92
:1077DE000F0EC16E070EB46EB56A896A8A6A8B6A1D
:1077EE008C6A8D6A9268936894689568966891EC35
:1077FE003AF083EC3AF085EC3AF087EC3AF00EEC86
:10780E003BF0A00E0E6E860E0F6E010E106E000E69
:10781E00116E17EC3CF0E8EC3CF0C7EC3BF01200BC
:10782E0093809382C66AC56AC76A280EC66EC78ED3
:10783E00000E016E120E026E7A0E036E000E046EB4
:10784E000EC012F00FC013F010C014F011C015F0DE
:10785E00020ED8901236133614361536E82E30EF47
:10786E003CF012C005F013C006F014C007F015C0AE
:10787E0008F096EC3CF00104C86E1200FF0E30ECDE
:10788E003BF0086E150E0818D8B450EF3CF052EFCE
:10789E003CF055EF3CF0000E95EF3CF0400E036EC1
:1078AE00090EF0EC3AF0020E076E040E066EBA0EDA
:1078BE00E82EFED7062EFCD7072EFAD700D0000EE4
:1078CE00036E040EF0EC3AF0000E036E050EF0ECB3
:1078DE003AF0000E036E060EF0EC3AF01F0E036E39
:1078EE00080EF0EC3AF0030E036E090EF0EC3AF0CF
:1078FE00270E036E0A0EF0EC3AF0240E036E0C0EF9
:10790E00F0EC3AF0240E036E0D0EF0EC3AF0000E91
:10791E0030EC3BF0010E30EC3BF0010E1200000E8D
:10792E00096E000E0A6E000E0B6E000E0C6E0550E8
:10793E00061007100810D8B4A7EF3CF0A9EF3CF0E2
:10794E00DFEF3CF0010E0D6EB3EF3CF0D890053634
:10795E000636073608360D2A08AEB8EF3CF0BAEFF9
:10796E003CF0ADEF3CF0D89009360A360B360C36AB
:10797E000550015C06500258075003580850045831
:10798E00D8A0CCEF3CF0CEEF3CF0D7EF3CF005505A
:10799E00015E0650025A0750035A0850045A0980D5
:1079AE00D89008320732063205320D2EBAEF3CF06F
:1079BE0009C001F00AC002F00BC003F00CC004F0C5
:1079CE001200020E096E040E086EBA0EE82EFED7D5
:1079DE00082EFCD7092EFAD700D0AE0EFFEC3AF0E7
:1079EE00200EFFEC3AF0020EFFEC3AF0B00EFFEC78
:1079FE003AF0C80EFFEC3AF0000EFFEC3AF0100E23
:107A0E00FFEC3AF0400EFFEC3AF0810EFFEC3AF04C
:107A1E007F0EFFEC3AF0A10EFFEC3AF0A60EFFEC53
:107A2E003AF0A80EFFEC3AF03F0EFFEC3AF0A40E3F
:107A3E00FFEC3AF0D30EFFEC3AF0000EFFEC3AF00A
:107A4E00D50EFFEC3AF0800EFFEC3AF0D90EFFECBB
:107A5E003AF0F10EFFEC3AF0DA0EFFEC3AF0120EBD
:107A6E00FFEC3AF0DB0EFFEC3AF0400EFFEC3AF092
:107A7E008D0EFFEC3AF0140EFFEC3AF0AF0EFFEC69
:107A8E003AF0C7EC3BF012000C6E0A0E0C18D8A49C
:107A9E0053EF3DF055EF3DF069EF3DF0186A070EDC
:107AAE0017605CEF3DF05EEF3DF061EF3DF0172AA1
:107ABE0062EF3DF0176A17C004F01850A1EC3BF0CE
:107ACE00D1EF3DF00CC00EF01F0E0E6471EF3DF0C5
:107ADE0073EF3DF07BEF3DF07F0E0E6479EF3DF0DE
:107AEE007BEF3DF07DEF3DF03F0E0E6E7A0E18648B
:107AFE0083EF3DF085EF3DF097EF3DF0186A070EEE
:107B0E0017608CEF3DF08EEF3DF091EF3DF0172AB0
:107B1E0092EF3DF0176A17C004F01850A1EC3BF03D
:107B2E00E00E0E24066E076AFF0E0722050E0602F1
:107B3E00F3CF08F0F4CF09F00702F350092608C07E
:107B4E000AF009C00BF09FEC3AF00D6AE70E066ED4
:107B5E007C0E076E0D500626000E07220A500626D2
:107B6E000B50072206C0F6FF07C0F7FF0800F550BE
:107B7E008CEC3AF00D2A040E0D64C8EF3DF0CAEFFE
:107B8E003DF0ADEF3DF0000E8CEC3AF089EC3AF0A2
:107B9E00060E18261200EDEC3BF0830E046E7F0EDF
:107BAE00056ED4EC3AF0940E046E7F0E056ED4EC96
:107BBE003AF0400E046E7F0E056ED4EC3AF0E80EED
:107BCE00046E7E0E056ED4EC3AF0590E046E7F0EE6
:107BDE00056ED4EC3AF045EC3CF0166EC7EC3BF07B
:107BEE001604D8A4FDEF3DF0FFEF3DF03DEF3EF063
:107BFE007FEC3AF087EC3AF0C70E046E7E0E056EFF
:107C0E00D4EC3AF0710E046E7F0E056ED4EC3AF0A1
:107C1E00000E046E0A0EA1EC3BF0B40E0F6E7F0E3A
:107C2E00106E46EC3BF0020E046E0A0EA1EC3BF019
:107C3E00CF0E0F6E7F0E106E46EC3BF0040E046EF0
:107C4E000A0EA1EC3BF0F00E0F6E7F0E106E46EC9E
:107C5E003BF0060E046E0A0EA1EC3BF0E60E0F6E24
:107C6E007F0E106E46EC3BF06EEF3EF085EC3AF078
:107C7E0081EC3AF0080E046E7F0E056ED4EC3AF0ED
:107C8E00250E046E7F0E056ED4EC3AF0000E046ED7
:107C9E000A0EA1EC3BF0A50E0F6E7F0E106E46EC99
:107CAE003BF0020E046E0A0EA1EC3BF0DB0E0F6EE3
:107CBE007F0E106E46EC3BF0040E046E0A0EA1EC25
:107CCE003BF0C30E0F6E7F0E106E46EC3BF00000C5
:107CDE006EEF3EF0FEEF3FF00000000000000000EF
:107CEE005F00000007000700147F147F14242A7F12
:107CFE002A122313086462364955225000050300E8
:107D0E0000001C2241000041221C0014083E0814F1
:107D1E0008083E080800503000000808080808004F
:107D2E006060000020100804023E5149453E0042AA
:107D3E007F400042615149462141454B3118141292
:107D4E007F1027454545393C4A494930017109059F
:107D5E00033649494936064949291E003636000080
:107D6E000056360000081422410014141414140096
:107D7E00412214080201510906324979413E7E1111
:107D8E0011117E7F494949363E414141227F414191
:107D9E00221C7F494949417F090909013E41494950
:107DAE007A7F0808087F00417F41002040413F0153
:107DBE007F081422417F404040407F020C027F7FAB
:107DCE000408107F3E4141413E7F090909063E41AC
:107DDE0051215E7F09192946464949493101017FE2
:107DEE0001013F4040403F1F2040201F7F201820B0
:107DFE007F631408146307087008076151494543EF
:107E0E00007F41410002040810200041417F000420
:107E1E000201020440404040400001020400205490
:107E2E005454787F484444383844444420384444B9
:107E3E00487F3854545418087E0901020C5252528D
:107E4E003E7F0804047800447D40002040443D00FD
:107E5E007F1028440000417F40007C041804787C89
:107E6E000804047838444444387C14141408081464
:107E7E0014187C7C080404084854545420043F44CD
:107E8E0040203C4040207C1C2040201C3C40304088
:107E9E003C44281028440C5050503C4464544C44EC
:107EAE00000836410000007F00000041360800083F
:107EBE00082A1C0800000000004D415833303130B4
:107ECE00322064657465637461646F20636F7272CF
:107EDE00656374616D656E7465005541525420661C
:107EEE00756E63696F6E616E646F20612039363016
:107EFE00302062617564696F73004552524F523A79
:107F0E00204D41583330313032206E6F206465740D
:107F1E0065637461646F00526576697365205643BC
:107F2E00432C20474E442C20534441207920534368
:107F3E004C004C45447320696E64696361646F72D2
:107F4E0065732061637469766F7300566572696636
:107F5E006963616E646F204D415833303130322E7B
:107F6E002E2E0053697374656D6120656E206573E6
:107F7E00706572610053697374656D6120696E6915
:107F8E00636961646F004F4C45442066756E63698A
:107F9E006F6E616E646F004D415833303130322058
:107FAE004552524F52005369676E6F732056697473
:107FBE00616C6573005344412053434C2056434338
:107FCE00004D41583330313032204F4B00526576E0
:107FDE006973652049324300456E20657370657282
:107FEE00610055415254204F4B000D0A000098EF8E
:027FFE003AF057
:020000040030CA
:0E0000000008181EFF8181FF0FC00FE00F40A7
:00000001FF
